:020000021000EC
:10E000000C944AF00C9469F00C9469F00C9469F04B
:10E010000C9469F00C9469F00C9469F00C9469F01C
:10E020000C9469F00C947BF00C9469F00C9469F0FA
:10E030000C9469F00C9469F00C9469F00C9469F0FC
:10E040000C9469F00C9469F00C9469F00C9469F0EC
:10E050000C9469F00C9469F00C9469F00C9469F0DC
:10E060000C9469F00C9469F00C9469F00C9469F0CC
:10E070000C9469F00C9469F00C9469F00C9469F0BC
:10E080000C9469F00C9469F00C9469F00C9469F0AC
:10E090000C9469F011241FBECFEFD0E1DEBFCDBFDD
:10E0A00011E0A0E0B1E0E6EFFDEF01E00BBF02C040
:10E0B00007900D92AC30B107D9F712E0ACE0B1E0B7
:10E0C00001C01D92AF39B107E1F70E94DEF00C9458
:10E0D000FAFE0C9400F09EB190639EB994B39861DF
:10E0E00094BB992780FD749881FD759882FDA39853
:10E0F00083FDA49808951F920F920FB60F921124DA
:10E100008F939F939FB189B18695869580958170F5
:10E11000982331F08091670190916801019602C0C7
:10E1200080E197E290936801809367019F918F91BE
:10E130000F900FBE0F901F9018951F93CF93DF93F2
:10E14000CDB7DEB722970FB6F894DEBF0FBECDBFB6
:10E1500088EF93E00E9423F78A8389EF93E00E947F
:10E1600023F7898329818A819A8189272817C1F415
:10E170008AEF93E00E9423F7182F8A81212F3327FB
:10E18000992786559F4F2817390751F48BEF93E055
:10E190000E9423F79A81298192279127891711F0EC
:10E1A0008FEF8A838A81992722960FB6F894DEBF73
:10E1B0000FBECDBFDF91CF911F9108950F931F9395
:10E1C000CF93DF93CDB7DEB722970FB6F894DEBFBB
:10E1D0000FBECDBF8FEF8983F8940E949DF08A8394
:10E1E0008F3F79F086E09FEF0E9428F29A8189178D
:10E1F00041F041E050E066E07FEFCE0102960E94E0
:10E2000016F28CEF93E00E9423F7843031F48DEF07
:10E2100093E00E9423F78B3F51F064E08CEF93E092
:10E220000E942CF76BEF8DEF93E00E942CF780E0BB
:10E230009FEF0E9428F2182F80E00E946BF08DB1B2
:10E2400080638DB983B3886183BB1F3F49F041E090
:10E2500050E060E07FEFCE0101960E9416F279C097
:10E2600014BE82E080BB9FB189B18695869580956A
:10E270008170982311F0292F2EC080918100856034
:10E2800080938100109285001092840020E041E08C
:10E2900050E011C08FB1282F217080FF0BC0899AE8
:10E2A00089B199279695879596958795842795277F
:10E2B000282301C089988091840090918500865818
:10E2C0009E4118F4222331F387C08091810010927F
:10E2D0008100222369F18091810085608093810013
:10E2E000109285001092840041E050E011C08FB17F
:10E2F000282F217080FF0BC0899A89B199279695A4
:10E3000087959695879584279527282301C0899816
:10E3100080918400909185008359914218F42223C2
:10E3200031F75FC08091810010928100222389F42F
:10E3300088E09FEF0E9428F2082F89E09FEF0E945B
:10E3400028F21127102F00279927802B912B0E944C
:10E35000F6F10E947FFD82E00E946BF010927E0237
:10E36000569855985E9A5D9A11E0109511704E99E5
:10E37000FECF81E08093D80082E09FEF0E9428F2D8
:10E380008F3F99F083E09FEF0E9428F28093E20094
:10E3900084E09FEF0E9428F28093E30085E09FEFE6
:10E3A0000E9428F28093E40005C0812F0E947EF92C
:10E3B0008823D9F30E9495F78091D80082608093DA
:10E3C000D80080917E02882311F40E94AAF90E944D
:10E3D000F5F98823E1F7C9CF80918100109281007F
:10E3E0007ACF8091810010928100A2CF9C018DB1E3
:10E3F0001DB880E72030380718F4F9010994089512
:10E400000C940000089580936D020895809370022B
:10E41000089590936A0280936902681B790B6F5F7D
:10E420007F4F70936C0260936B0208951F931BB72C
:10E4300021E02BBF0E9421F61BBF1F9108951F935F
:10E440001BB721E02BBF0E94E2F61BBF1F9108956E
:10E450001F931BB721E02BBF0E9498F51BBF992784
:10E460001F910895CF92DF92EF92FF920F931F9327
:10E47000CF93DF937C01EB0180916D028130F9F045
:10E48000813050F0843009F449C0883009F01BC154
:10E4900000E0CC24DD24EEC081E09FEF0E9428F252
:10E4A0008F3F09F010C1809170028BBF60916902AB
:10E4B00070916A02AE01C7010E9421F616C081E088
:10E4C0009FEF0E9428F28F3F09F0FDC0BE018091AE
:10E4D000690290916A020E9464F7609169027091EA
:10E4E0006A02AE01C7010E9435F7809169029091DE
:10E4F0006A028C0F9D1F90936A028093690280913B
:10E500006B0290916C028C1B9D0B90936C0280931C
:10E510006B0200E0892B09F0D7C0CDC081E09FEFEE
:10E520000E9428F28F3F59F46091690270916A024B
:10E5300060507140AE01C7010E9416F2D6CF81E053
:10E540009FEF0E9428F28E3F09F0BDC080916902C2
:10E5500090916A02019709F0B6C0219709F0B3C003
:10E56000F70180818C3F09F0AEC06CEF81E09FEF36
:10E570000E941FF2A0C0F701EC0DFD1D90812091BB
:10E580000B019A3009F05BC010921001322F3F5FEF
:10E590003093110180E8809312011092130182E3FD
:10E5A0008093140180910E0190910F010196909338
:10E5B0000F0180930E01809115018A33A9F4E7E1E0
:10E5C000F1E0119281E0E736F807D9F787E580930B
:10E5D000110190910A0198279093660186E5809336
:10E5E0000B010AC00FEF24C0E22FFF27E05FFE4FB0
:10E5F00080910A018327808313E002C0115091F3B8
:10E6000020910E0130910F0160910B0177276F5F10
:10E610007F4F882777FD8095982F40E151E00E9439
:10E6200070FE20910E0130910F018217930731F790
:10E6300085E080930B0182EB80930A0118C08091E2
:10E640000A01892780930A01908180910D01892711
:10E6500080930D018081E22FFF27E05FFE4F8083D2
:10E66000822F8F5F80930B01873508F00FEF08949E
:10E67000C11CD11CCC16DD0621F00F3F09F07BCF69
:10E680001CC00F3FD1F080916B0290916C028C1BEB
:10E690009D0B90936C0280936B02892B09F401E02F
:10E6A000809115018A3381F460910D0184E30E9409
:10E6B000DCFD892B41F001E007C085E080930B0170
:10E6C00082EB80930A010FEF802F9927DF91CF9182
:10E6D0001F910F91FF90EF90DF90CF900895809160
:10E6E0006D02813041F1813020F0843009F063C047
:10E6F0003FC0809170028BBF8091690290916A0245
:10E700000E9498F58F3F09F058C08091690290915E
:10E710006A02019690936A028093690280916B026B
:10E7200090916C02019790936C0280936B02892BFD
:10E7300009F441C0E1CF8091690290916A020E9480
:10E7400023F78F3FD1F58091690290916A0201967B
:10E7500090936A028093690280916B0290916C029F
:10E76000019790936C0280936B02892B21F1E3CF88
:10E770008091690290916A02805091400E9428F233
:10E780002091690230916A02F901E050FF4F9081B7
:10E79000891799F42F5F3F4F30936A0220936902E3
:10E7A00080916B0290916C02019790936C02809320
:10E7B0006B02892BE9F681E001C080E0992708957A
:10E7C000EF92FF920F931F93CF93DF937C01EB01A6
:10E7D00080916D02833009F4CFC0843038F48130E9
:10E7E00009F458C0823008F08DC00AC0853009F4A1
:10E7F0002FC1853008F4F5C0883009F05DC148C0EC
:10E8000081E09FEF0E9428F28F3F39F081E09FEF77
:10E810000E9428F28E3F09F04FC1809170028BBF99
:10E82000209741F080916B0290916C028C179D07AC
:10E8300008F4EC0100E010E01DC0809169029091A5
:10E840006A020E9498F5F70181937F018091690225
:10E8500090916A02019690936A0280936902809176
:10E860006B0290916C02019790936C0280936B0203
:10E870000F5F1F4F0C171D0701F780916B029091DE
:10E880006C02892B09F01AC1D0936C02C0936B0201
:10E8900081E015C181E09FEF0E9428F28F3F39F09F
:10E8A00081E09FEF0E9428F28E3F09F005C10091A0
:10E8B0006B0210916C02C017D10708F48E01C0E002
:10E8C000D0E01CC08091690290916A020E9423F7F7
:10E8D000F70181937F018091690290916A0201960C
:10E8E00090936A028093690280916B0290916C020E
:10E8F000019790936C0280936B022196C017D10709
:10E9000009F79BC020916B0230916C02621773076C
:10E9100008F49B01F70140E050E0AEE171E867E9DF
:10E9200027C08091690290916A02009711F4A08338
:10E930000AC08130910511F4708305C0029711F46B
:10E94000608301C010828091690290916A020196F1
:10E9500090936A028093690280916B0290916C029D
:10E96000019790936C0280936B024F5F5F4F3196DB
:10E9700042175307B1F695C020916B0230916C029B
:10E980006217730708F49B01F70140E050E0A4E030
:10E9900071ED62ED22C08091690290916A02009748
:10E9A00011F4A08305C0019711F4708301C0608346
:10E9B0008091690290916A02019690936A02809315
:10E9C000690280916B0290916C02019790936C02A6
:10E9D00080936B024F5F5F4F319642175307D9F612
:10E9E00060C000916B0210916C026017710708F40F
:10E9F0008B01C0E0D0E01EC08091690290916A0254
:10EA0000805091400E9428F2F70181937F0180910C
:10EA1000690290916A02019690936A02809369025A
:10EA200080916B0290916C02019790936C0280939D
:10EA30006B022196C017D107F9F680916B02909175
:10EA40006C02892BD9F510936C0200936B0220CFD6
:10EA500020916B0230916C026217730708F49B01DE
:10EA600040E050E0D7011AC0E0916902F0916A02DB
:10EA700080818D938091690290916A0201969093B2
:10EA80006A028093690280916B0290916C020197F7
:10EA900090936C0280936B024F5F5F4F4217530756
:10EAA00019F780916B0290916C02892B39F43093A5
:10EAB0006C0220936B02ECCE8FEF01C080E09927AF
:10EAC000DF91CF911F910F91FF90EF9008951F93C9
:10EAD00010916D02113069F0113018F0143019F5F1
:10EAE00012C00E94F9F56FEF81E09FEF0E941FF2C4
:10EAF00018C081E09FEF0E9428F290E08F3F09F05C
:10EB000091E0912711C081E09FEF0E9428F28F3F92
:10EB100051F44AE050E060E07FEF80E091E00E9435
:10EB200016F291E001C090E0892F99271F91089576
:10EB30002BB7332744275527A90133272227AA2794
:10EB4000BB27282B392B4A2B5B2B4BBFF32FE22FF4
:10EB5000D895202D822F992708952BB73327442746
:10EB60005527A90133272227AA27BB27282B392B72
:10EB70004A2B5B2B4BBFF32FE22FD895802D0BB682
:10EB80003196011C0BBED895902D0895CF93DF933D
:10EB9000BC016070C0E0D0E08BB79927AA27BB27E3
:10EBA000DC01992788279B0144275527822B932B2B
:10EBB000A42BB52BABBFF92FE82FD895802D0BB622
:10EBC0003196011C0BBED895902D8F5F9F4F19F089
:10EBD00080E090E108C06E5F7F4F2196C038D1057C
:10EBE000D9F680E090E07070862B972BDF91CF9163
:10EBF0000895DF92EF92FF920F931F93DBB6EE24FE
:10EC0000FF248701C801AA27BB278BBFC7010E9429
:10EC100016F780E091E0A0E0B0E0E80EF91E0A1FD0
:10EC20001B1F90E0E91690EEF90691E0090790E0CD
:10EC3000190741F7DBBE1F910F91FF90EF90DF9016
:10EC400008953F924F925F926F927F928F929F9220
:10EC5000AF92BF92CF92DF92EF92FF920F931F93EA
:10EC6000CF93DF934C012B01EA013FB6F8948B015F
:10EC7000007082C082E090E0E80EF91E209709F44F
:10EC800046C0E414F50440F0F40181914F01C82E10
:10EC9000DD242197C9F422C08BB79927AA27BB2767
:10ECA000DC0199278827970144275527822B932B2E
:10ECB000A42BB52BABBFF92FE82FD895802DC82EEC
:10ECC000DD24A414B50451F4F40181914F01992776
:10ECD000782F66276C297D29219732C08BB7992719
:10ECE000AA27BB27DC0199278827950144275527A8
:10ECF000822B932BA42BB52BABBFF92FE82FD895E4
:10ED0000802D9927782F66276C297D2919C08BB70C
:10ED10009927AA27BB27DC01992788279701442731
:10ED20005527822B932BA42BB52BABBFF92FE82FA4
:10ED3000D895602D0BB63196011C0BBED895702D61
:10ED4000C7010E94FDF60894611C711C82E090E0EE
:10ED5000A80EB91E90E86916710409F08BCFC8019E
:10ED60000E94C6F5892B19F0C8010E9416F7C80148
:10ED70000E9409F700501F4F209741F05801089456
:10ED8000A11CB11C78016624772478CF002401E10E
:10ED900007BFE89507B600FCFDCF37FE01C07894A9
:10EDA000DF91CF911F910F91FF90EF90DF90CF9067
:10EDB000BF90AF909F908F907F906F905F904F909B
:10EDC0003F900895CF93DF93CDB7DEB721970FB66D
:10EDD000F894DEBF0FBECDBF698341E050E0BC01B7
:10EDE000CE0101960E9421F621960FB6F894DEBF5F
:10EDF0000FBECDBFDF91CF9108950F930B01FC01A2
:10EE000001E007BFE895112407B600FCFDCF0F9184
:10EE100008950F9307B600FCFDCFFC0105E007BF86
:10EE2000E89507B600FCFDCF0F9108950F9307B644
:10EE300000FCFDCFFC0103E007BFE89507B600FC2E
:10EE4000FDCF0F910895F999FECFFC01E1BDF2BD10
:10EE5000F89A80B599270895F999FECFFC01E1BD94
:10EE6000F2BD60BDFA9AF99A0895DC010EC08C914A
:10EE7000F999FECFFB01E1BDF2BD80BDFA9AF99A86
:10EE800011966F5F7F4F415050404115510579F702
:10EE9000089520E030E09FEFF999FECFF901E1BD40
:10EEA000F2BDF89A80B58F3F41F0F999FECFF90194
:10EEB000E1BDF2BD90BDFA9AF99A2F5F3F4F80E114
:10EEC0002030380748F3089540E050E0AFEF9C0150
:10EED00015C0F999FECFF901E1BDF2BDF89A80B5F0
:10EEE0008F3F41F0F999FECFF901E1BDF2BDA0BD20
:10EEF000FA9AF99A4F5F5F4F2F5F3F4F46175707B8
:10EF000041F708959C01DB010CC0F999FECFF9018E
:10EF1000E1BDF2BDF89A80B58D932F5F3F4F415010
:10EF200050404115510589F7089520E030E0822FC7
:10EF30008295807F8093ED00EEEEF0E01192E83F45
:10EF4000F105E1F72F5F3F4F2F30310581F708952D
:10EF50004091ED0020E030E0822F8295807F809309
:10EF6000ED008091EF00807C29F44093ED00822F2A
:10EF7000992708952F5F3F4F2F30310569F7409350
:10EF8000ED008FEF90E008958091EF00807C19F400
:10EF90008FEF90E008959091EE00892F807E80326F
:10EFA00021F0803411F0803A11F499270895892FC7
:10EFB0008F7119F480E090E0089599270895BC01BD
:10EFC00040E050E005C0E60FF71F8091FA00808313
:10EFD000242F8091EF004F5F5F4FE22FFF2799278B
:10EFE0008F709070E817F90774F30895AF92BF928D
:10EFF000CF92DF92EF92FF920F931F93CF93DF9305
:10F00000CDB7DEB721970FB6F894DEBF0FBECDBFE8
:10F01000882359F471E0E72E63E018E0A2E0B2E043
:10F0200070E051E040E001E056C08091E2008E7750
:10F0300019F461E0E62E09C08091E20099278E77ED
:10F04000907095958795E82EE3948091E3008E70FB
:10F0500011F461E009C08091E30099278E709070EF
:10F0600095958795682F6F5F8091E4008E7083304F
:10F0700010F4A2E009C08091E40099278E7090708E
:10F0800095958795A82FAF5F8091E40080778131B7
:10F0900010F4B2E00CC08091E40099278077907062
:10F0A00024E0959587952A95E1F7B82FBF5F2B2F20
:10F0B0002A0F312D311DC901860F911D089714F4B7
:10F0C00018E005C01B2F1A0F6F5F160F615071E01B
:10F0D00050E041E000E020E030E0822F8295807F28
:10F0E0008093ED00EEEEF0E01192E83FF105E1F7DC
:10F0F0002F5F3F4F2F30310581F7FF24AA24BB2417
:10F10000DD24CE2CCC0C3EEFC30E013019F081E093
:10F11000898381C00093D8000894A11CB11CC092BF
:10F12000E2002B2F269533272150304085E0220F17
:10F13000331F8A95E1F7862F99270197880F991F2A
:10F14000282B2093E3002A2F332721503040220F11
:10F15000331F8B2F9927019734E0880F991F3A9519
:10F16000E1F78160822B8093E400C50123E096954E
:10F1700087952A95E1F78093E5001092ED001092B3
:10F18000EE0080E88093EF008AE08093D8008091C1
:10F19000D90082FFFCCF8FEF8093DA00FF24B7CF36
:10F1A0008091EE00992785FF11C08091EF008F7349
:10F1B0008093EF001092D8008091D90082FDFCCF9F
:10F1C000198250E040E081E0D82E7EC08F719070AF
:10F1D000892B11F050E041E08091DA00282F33278D
:10F1E00025FF11C0FF2041F48091DA0080628093F6
:10F1F000DA00F1E0FF2E07C08091DA008062809390
:10F20000DA0050E041E02F703070232B21F050E005
:10F2100041E001E059C0513019F256C07111AF5FA1
:10F22000A930F0F0B830F0F0193111F01F5F07C0CD
:10F23000E0E4EE1641F0E394F2E0CF0E18E0A2E035
:10F24000B2E070E0EBCF8091EF008F738093EF001E
:10F250001092D8008091D90082FDFCCFDD243BC004
:10F26000A63050F02A2F33278B2F9927019682172B
:10F2700093071CF4AB2FAF5FBA2F8A2F8B0F612F30
:10F28000681B6150862F81508830E0F44B2F552742
:10F290002A2F33272F5F3F4F260F311DCA01880FBA
:10F2A000991F880F991F8217930764F0CA01880F6E
:10F2B000991F480F591F2417350724F071E051E0BA
:10F2C00040E005C071E0AACF413009F4A7CF298101
:10F2D000213009F41ACF8D2D992721960FB6F89475
:10F2E000DEBF0FBECDBFDF91CF911F910F91FF9079
:10F2F000EF90DF90CF90BF90AF90089581E0809322
:10F30000D8001092E20086E08093E30085E18093CC
:10F31000E40081E090E008958CE892E00E9477FCA0
:10F320008823D1F78CE892E00E9423FD8130D1F34D
:10F33000089580918A0290918B0206969093900294
:10F3400080938F021092970281E0809393020E9433
:10F350008CF90895CF93DF9380E00E9403F210921E
:10F36000700210926A0210926902C1E0D0E0D0935C
:10F370006C02C0936B021092750287E09FEF0E94AF
:10F3800028F2992724E0880F991F2A95E1F7909396
:10F390008B0280938A02815F974020F010928B024B
:10F3A00010928A0286E792E0909388028093870207
:10F3B00010926F0210926E0280EF97E09093850298
:10F3C0008093840282E090E0909381028093800297
:10F3D00087E992E09093950280939402D0938E02F5
:10F3E000C0938D02DF91CF9108950F931F93CF9318
:10F3F000DF93CDB7DEB721970FB6F894DEBF0FBE0F
:10F40000CDBF8FEF898388E08093860280918A0246
:10F4100090918B0290938302809382028FE792E017
:10F420000E9477FC8823D1F78FE792E00E9423FDAA
:10F43000482F8130C9F3823019F480E090E04CC24B
:10F4400020918A0230918B028091820290918302F6
:10F45000821B930B877090708230910509F4C8C0AD
:10F460008330910530F4009781F0019709F032C2A2
:10F4700057C08430910509F4A1C18430910508F486
:10F4800027C1069709F026C2E4C11091760286E0F2
:10F490009FEF0E9428F2181721F0809176028F3F8B
:10F4A00091F590918602913071F580917E028823CA
:10F4B00031F490937E028AE00E946BF011C082E0EA
:10F4C0000E946BF08FEF898341E050E060E07FEFB6
:10F4D000CE0101960E9416F210927E0210927502E1
:10F4E00080918A0290918B029093900280938F0278
:10F4F00082E08093930284E08093970280917E0261
:10F5000080939802E5C180917E02813009F0E2C1CA
:10F5100082E00E946BF010927E0210927502DAC1B6
:10F5200080917E02882309F4D5C1809176028038CB
:10F5300079F4809177028F3F09F0B9C18091780208
:10F540008F3F09F0B4C10E9467F58823D9F5AFC198
:10F55000882309F0ACC1609179027727762F66275E
:10F5600080917A029927682B792B809177029927CD
:10F57000982F8827209178023327822B932B0E9483
:10F5800009F210926F0210926E0281E08093750270
:10F590008AEA898341E050E060E07FEFCE01019686
:10F5A0000E9416F28091690290916A02909374020F
:10F5B0008093730280916B0290916C02909372021F
:10F5C0008093710280918A0290918B0201969093B0
:10F5D000900280938F021092970281E080939302B1
:10F5E00080917502813009F073C11092930270C14D
:10F5F00080917E02882309F46DC18091750281306B
:10F6000009F055C180916D0290918602813049F0D8
:10F6100060916E0270916F02DB01A759BE4F20E02E
:10F6200010C0692F772786E792E00E9432F2482FB8
:10F6300023C0E22FFF27EA58FD4F80818D932F5F73
:10F6400040E02917B1F7690F711D70936F02609345
:10F650006E02693F710538F480916B0290916C02E3
:10F660006817790749F489E691E00E9432F2482F41
:10F6700010926F0210926E0280918A0290918B021A
:10F6800002969093900280938F0281E08093930280
:10F69000442321F482E0809397021AC14130A9F4F7
:10F6A00010929702109275028091730290917402E9
:10F6B00090936A0280936902809171029091720224
:10F6C00090936C0280936B0203C110927502EFC09D
:10F6D00080917E02882309F4FDC02D5F3F4F309357
:10F6E000900220938F021092930260917902772703
:10F6F000762F662780917A029927682B792B809143
:10F7000077029927982F8827209178023327822B18
:10F71000932B0E9409F28091690290916A02909362
:10F7200074028093730280916B0290916C029093AB
:10F73000720280937102809176028823C1F488E07E
:10F740008093930268E070E087E992E00E94E0F322
:10F75000882319F40E948CF9F5CF813029F4809127
:10F760006B028093930217C00E9499F916C08038EB
:10F7700009F09DC00E946FF3882369F482E08093B2
:10F7800093022091690230916A02832F9927809316
:10F790009702209398020E948CF9809173029091B5
:10F7A000740290936A028093690280917102909131
:10F7B000720290936C0280936B028CC080917E02E7
:10F7C000882309F487C080917602833009F06FC0E6
:10F7D00080916D02883021F5289A73986299FECF46
:10F7E000739A85E08093810000E010E0902F9F7174
:10F7F00080E2891B0E946BF01092850010928400B9
:10F80000629907C0809184009091850085589E413F
:10F81000B8F30F5F1F4F0034110541F710928100BC
:10F8200080917702882331F4809160008860809312
:10F830006000FFCF8130D9F5809178029927982F09
:10F840008827209179023327822B932B0E94F6F18F
:10F8500041C080917E028823E9F18091760288235D
:10F8600049F1813029F4809177020E9403F222C08D
:10F87000823029F4809178020E9406F21BC0833006
:10F88000B1F4809177020E9403F2809178020E9485
:10F8900006F280917702883069F4809170028823A3
:10F8A00049F460E08CE00E94DCFD892B19F40E9491
:10F8B00099F910C080918A0290918B0206969093DC
:10F8C000900280938F0281E08093930210929702BE
:10F8D0000E948CF981E090E021960FB6F894DEBF8B
:10F8E0000FBECDBFDF91CF911F910F910895CF93A0
:10F8F000DF93DC0180E6ED018A8789819A8181307E
:10F90000910509F048C08EE08C9380EE8093ED0065
:10F91000EEEEF0E01192E83FF105E1F78091EF00A3
:10F920008F7E8093EF00FD01948183819295990FE2
:10F93000907E869586958695980F9093F3008381A7
:10F940008295880F807E8093F2008091EF008F7EF9
:10F950008093EF00278190E009C0ED01E885F985EB
:10F96000E90FF11D80818093FA009F5F9217A9F73C
:10F970008091F0008B7F8093F0008091EF00822BCC
:10F980008093EF008091EF008F738093EF00809160
:10F99000EF00806451C0029711F08FEF50C01C92AD
:10F9A0001092ED00EEEEF0E01192E83FF105E1F784
:10F9B0008091EF008F7E8093EF00FD019481838121
:10F9C0009295990F907E869586958695980F90933F
:10F9D000F30083818295880F807E8093F20080916E
:10F9E000EF008F7E8093EF00968185819295990F2D
:10F9F000907E869586958695980F9093F7008581E1
:10FA00008295880F807E8093F6008091F400846058
:10FA10008093F4008091F0008B7F8093F0008091C0
:10FA2000F40081608093F4008091EF008F738093E5
:10FA3000EF008091EF0080688093EF0080E09927CD
:10FA4000DF91CF9108951F93CF93DF93EC018A85C7
:10FA5000882309F44BC08F3109F448C08F3F09F463
:10FA600045C088818295807F8093ED000E94C4F715
:10FA7000182F803261F0813218F4882331F02BC0C6
:10FA80008034F9F0803A39F502C081E02DC08091D0
:10FA9000EF008F708F83888599850E94DFF78091B2
:10FAA000F3008295869587708C839091F200809107
:10FAB000F300929596959770880F880F880F980F8E
:10FAC0009B831A878091EF008F738093EF001092D1
:10FAD000EE0080E009C01A878091EF008F73809359
:10FAE000EF001092EE0082E0992702C082E090E0E1
:10FAF000DF91CF911F91089581E090E0089585B145
:10FB0000806F85B985B1876485B984B1876F84B901
:10FB1000239880E38EB9739888E38DB96A9884B38B
:10FB2000886184BB83B3886183BB8CE08093B00021
:10FB30008BE78093B30084E58CBD8CB58F778CBD4B
:10FB400081E08DBD81E090E00895739885E0809319
:10FB500081001092850010928400629B07C0809102
:10FB60008400909185008A3E9105B8F3109281003F
:10FB70008CB19927969587959695879580959095C0
:10FB8000817090700895739A85E08093810010923F
:10FB9000850010928400629907C080918400909142
:10FBA00085008A3E9105B8F385E0809381008CB191
:10FBB0009927847090700895EF92FF920F931F938E
:10FBC000CF93DF93CDB7DEB72F970FB6F894DEBF94
:10FBD0000FBECDBF082F96E898271A8686E08B8740
:10FBE00080E88C876D870E8796279F8784E58CBD7C
:10FBF0008CB58F778CBD81E08DBD289A0E94A5FDC4
:10FC0000882309F45EC054E1E52EF12C0E94C3FD67
:10FC1000882309F456C020E030E010E0FE0134965D
:10FC200028988681898389818EBD0DB407FEFDCF1A
:10FC3000289A8EB58083819118272F5F3F4F2630F9
:10FC4000310571F70E94A5FD8823D9F1112391F5A3
:10FC50008E8187FD14C00C30A1F585E08093810072
:10FC6000109285001092840080918400909185000C
:10FC70008A3E9105C8F385E0809381001BC08E8188
:10FC800083FD16C0033319F081E090E01CC0288585
:10FC90008F8133279927AA27BB27BA2FA92F982FFF
:10FCA0008827280F391F3B832A838A819B810BC0B9
:10FCB0000C3039F40894E108F108E114F10409F07A
:10FCC000A5CF80E090E02F960FB6F894DEBF0FBE70
:10FCD000CDBFDF91CF911F910F91FF90EF900895CD
:10FCE0008F929F92AF92BF92CF92DF92EF92FF924C
:10FCF0000F931F93CF93DF93CDB7DEB722970FB645
:10FD0000F894DEBF0FBECDBF6B017C014A015901E3
:10FD10001A82198284E58CBD8CB58F778CBD81E009
:10FD20008DBD289A0E94A5FD882309F44EC008E0E5
:10FD300010E043C00E94C3FD882309F446C020E0C0
:10FD400030E040E050E00FC02898F401E20FF31FCC
:10FD500080818EBD0DB407FEFDCF289A8EB52F5F32
:10FD60003F4F4F4F5F4F2C153D054E055F0561F727
:10FD70000E94A5FD882349F10150104085E0809341
:10FD800081001092850010928400809184009091EF
:10FD900085008497D0F360E083E30E94DCFD9A83C2
:10FDA000898389819A818A159B0511F01A821982AB
:10FDB000109281000115110529F089819A81892B02
:10FDC00009F4B8CF89819A8102C080E090E0229640
:10FDD0000FB6F894DEBF0FBECDBFDF91CF911F915C
:10FDE0000F91FF90EF90DF90CF90BF90AF909F90DA
:06FDF0008F900895FFCF83
:0CFDF600FFFFFFFFFFFFFF000000B20551
:0AFF0000FFFFFFFFFFFFFF000000FE
:06FFFA000E9421F60895AB
:040000031000E00009
:00000001FF
