:100000000C949E000C94CB4F0C94FA4F0C942950F6
:100010000C9458500C9487500C94B6500C94E550A6
:100020000C9414510C9443510C94A3510C94D25140
:100030000C9401520C9434520C9463520C949252CE
:100040000C94C1520C94F0520C941F530C944E53C8
:100050000C947D530C94AC530C94DB530C940A54C5
:100060000C9439540C9468540C9497540C94C654C2
:100070000C94F5540C9424550C9453550C948255BF
:100080000C94B1550C94E0550C940F560C943E56BC
:100090000C946D5659140C1572139B158E169516EB
:1000A00072137213D114D114D114D114D1149C161B
:1000B0007213591459147213591472137213721360
:1000C0007213D114A81659145317D1145A1759146E
:1000D000BA175914C1177213721372137213721371
:1000E00072137213721372137213721372137213E8
:1000F0007213721372137213721372137213D11478
:10010000341859147513D1147C13D114591459147B
:10011000721372137213721372137213D1148F133A
:1001200059144B14721372137213721372135914FD
:100130005214591472135914BE14D11411241FBE31
:10014000CFEFD0E1DEBFCDBF8FEF85B984B990E8A6
:100150009AB98BB1806E8BB98EB18E638EB98EE3F6
:100160008DB984B3886184BB88E183BB899882E0C0
:1001700080BB109275009093740013E1A0E0B1E190
:10018000EEE0F5EC00E00BBF02C007900D92AC373B
:10019000B107D9F719E2ACE7B3E101C01D92A1396B
:1001A000B107E1F70E941C4D0C9486620C9400008C
:1001B000892B39F484ED8CBD81E08DBD81E090E028
:1001C000089580E090E00895CF93DF93EC0188815B
:1001D000882309F42898EA81FB8181E090E0A0E07F
:1001E000B0E08A8B9B8BAC8BBD8B80818EBD81E018
:1001F00090E0DF91CF9108950F931F93CF93DF93FA
:10020000CDB7DEB724970FB6F894DEBF0FBECDBFD3
:100210008C01FC01A28DB38D1C929081992321F455
:10022000289A739862994AC0F801248135814681E1
:100230005781211531054105510509F440C08181DF
:10024000813009F444C0F80126873787408B518BF1
:100250001286138614861586F801808199270E94DC
:10026000D800882331F1F8018081882309F052C039
:10027000739A10939A130093991384EF91E0A0E07E
:10028000B0E080939B1390939C13A0939D13B09325
:100290009E1310929F131092A0131092A11310920C
:1002A000A213629941C081E08093A31381E090E0A2
:1002B00042C0F801848195819C838B831082F80170
:1002C000A28DB38D83E08C9380E090E034C09923BD
:1002D00079F482859385A485B58582179307A40751
:1002E000B507F0F0F80186879787A08BB18BB4CF64
:1002F000F80182859385A485B585280F391F4A1F8B
:100300005B1F26873787408B518B168A178A108E82
:10031000118EA2CFC8010E94E40081E090E00BC0E2
:100320009A8389831082CBCF1092A313C8010E94B5
:10033000E40081E090E024960FB6F894DEBF0FBE93
:10034000CDBFDF91CF911F910F91089510927C1333
:1003500008958091A313813009F0089562992FC008
:1003600080919F139091A013A091A113B091A2131B
:100370000196A11DB11D80939F139093A013A0938C
:10038000A113B093A21320919B1330919C13409121
:100390009D1350919E13281739074A075B07E8F60B
:1003A00073980E94A601E0919913F0919A13028C20
:1003B000F38DE02D83E080831092A31308951092B3
:1003C000A3138091991390919A130E94E4000895C9
:1003D000EF92FF920F931F93CF93DF93EB01289A35
:1003E00089818130A9F1EE84FF84088919892A89DD
:1003F0003B894C895D892E153F054007510700F563
:100400008881882319F4629B51C028988C819D8132
:10041000AE81BF81281739074A075B0778F4EA8164
:10042000FB81E20FF31F80818EBD2F5F3F4F4F4F47
:100430005F4F2A8B3B8B4C8B5D8B3FC01EBCF5CF37
:100440000E94A6017398EA8DFB8D81E0808335C000
:100450008881882301F12E893F89488D598DEE844A
:10046000FF84088919892E153F054007510708F0B8
:10047000BECF2F5F3F4F4F4F5F4F2E8B3F8B488F2D
:10048000598F8C819D81AE81BF8182179307A4070C
:10049000B50708F0ACCFE885F9858EB58193F9876B
:1004A000E887EE84FF8408891989A1CF0E94A601FC
:1004B0007398EA8DFB8D83E08083DF91CF911F914C
:1004C0000F91FF90EF9008950E94B54D282F8091D5
:1004D0007C13882359F0822F99270E94CA4D0E94CD
:1004E000B54D282F80917C138823A9F781E0809354
:1004F0007C13822F99270E94CA4D08953F924F92F4
:100500005F926F927F928F929F92AF92BF92CF92A3
:10051000DF92EF92FF920F931F93382E3A014B0117
:1005200029010E94640230927D1381E080937E1342
:100530005092801340927F136092811370928213C5
:100540008092831390928413D0928613C092851365
:10055000E0928713F09288130093891310938A1303
:10056000B0929813A09297138DE793E10E94FC003C
:10057000882319F081E090E004C00E94A60180E089
:1005800090E01F910F91FF90EF90DF90CF90BF9080
:10059000AF909F908F907F906F905F904F903F9023
:1005A00008959F92AF92BF92CF92DF92EF92FF9207
:1005B0000F931F93982E6A017B0159010E946402D8
:1005C00090927D1310927E13B0928013A0927F13AD
:1005D000C0928113D0928213E0928313F09284131D
:1005E00010939813009397138DE793E10E94FC00FA
:1005F000882319F081E090E004C00E94A60180E009
:1006000090E01F910F91FF90EF90DF90CF90BF90FF
:10061000AF909F900895EF92FF920F931F937B01ED
:100620008C012DE733E1442737FD4095542F68EEC8
:1006300071E085E190E00E94A14F813019F080E0E7
:1006400090E004C0C7010E94D80099271F910F9124
:10065000FF90EF900895CF93DF93EC018C859D85FB
:10066000AE85BF858F3F2FEF92072FEFA2072FEFA9
:10067000B20719F1B2FD10C0B3FF1FC0CC5ADC4F56
:100680008881833551F19091C51F892F807F809398
:10069000C51F892F992724C0C257DE4F88819981B1
:1006A000AA81BB81CE58D14080709070AC71B0707F
:1006B00080509040AC41B04019F080E090E010C014
:1006C000FE01E45AFF4FC85ADF4F88819081892B81
:1006D00028969881892B992703C08091C615992760
:1006E000DF91CF910895FC016115710571F020E053
:1006F00030E040E050E081919191482759272F5FE9
:100700003F4F62177307B9F702C040E050E0CA01DB
:1007100008958091AF13992708958091B113992777
:1007200008958091B01399270895E6ECFFE11082B7
:100730003B9681E2EE37F807D1F7E3EBF3E1108265
:100740003B9684E1E336F807D1F7E3E6F4E1108263
:100750003B9684E1E03BF807D1F7E9E7F7E183ED69
:1007600097E1118210823A968E179F07D1F708956C
:10077000982FE6ECFFE18081811191833B9683E223
:10078000EB32F807C1F7E3EBF3E18081811191834C
:100790003B9684E1E336F807C1F7E3E6F4E18081B4
:1007A000811191833B9684E1E03BF807C1F7EAE7CA
:1007B000F7E18081811191833A968AE1E237F80767
:1007C000C1F708950F931F93CF93DF93CDB7DEB793
:1007D00022970FB6F894DEBF0FBECDBFFC01890192
:1007E000DB01CA010597A109B1090297A105B1056D
:1007F00018F080E090E0A9C0DF018D9199279A83DD
:100800008983463051056105710509F486C0F801F8
:1008100024853585468557852F3FFFEF3F07FFEF3E
:100820004F07FFEF5F0729F352FD3FC089819A818F
:10083000889708F05CC050FF5AC089819A818C016A
:10084000000F111F9C01220F331F220F331F220F95
:10085000331F020F131F080F191F0A53104E0115E3
:10086000110539F28C91F8018287FD0161817727AA
:100870008827992724E630E040E050E00E94AC61F0
:10088000F8016283738384839583168217821086AE
:100890001186643671058105910508F44AC081E02E
:1008A000F801808381E090E050C089819A8144976B
:1008B00008F49FCF89819A814B9708F09ACF89815C
:1008C0009A8144979A83898389819A818C01000F48
:1008D000111F9C01220F331F220F331F220F331FC2
:1008E000020F131F080F191F0D591B4EB8CF898116
:1008F0009A81889720F089819A81C39718F189811C
:100900009A81C39708F475CF89819A818E349105B5
:1009100008F06FCF51FF6DCF90CF29813A8181814F
:100920009927982F8827820F931F9A83898311967E
:100930006ECF84E690E0A0E0B0E082839383A4834E
:10094000B583ADCF53FF55CF78CF22960FB6F8942D
:10095000DEBF0FBECDBFDF91CF911F910F910895E4
:100960000F931F93CF93DF93CDB7DEB722970FB6C8
:10097000F894DEBF0FBECDBFDC01F9014630510552
:100980006105710519F080E090E03FC02485358550
:10099000468557852F3F8FEF38078FEF48078FEF3A
:1009A000580789F350FFEFCF9C91903160F79D017C
:1009B0002F5F3F4F8BE0989F800111240D541C4EF8
:1009C000FD018181F8018287F9018281898381811A
:1009D0008A8369817A818827992728EE33E040E06D
:1009E00050E00E94AC61F801628373838483958335
:1009F000168217821086118664367105810591056D
:100A000010F281E0808381E090E022960FB6F894A6
:100A1000DEBF0FBECDBFDF91CF911F910F91089523
:100A2000CF93DF93EC01F901473051056105710562
:100A300019F080E090E059C02485358546855785BA
:100A40002F3F6FEF36076FEF46076FEF560789F3BB
:100A5000DA01C90180709070A07080509040A04071
:100A6000B14039F3888152FF28C0893010F78830AF
:100A7000A1F1282F3327B901660F771FA901440F71
:100A8000551F440F551F440F551FFB01E40FF51F61
:100A9000E758F84E81E090E002C0880F991F2A9530
:100AA000E2F78187FB01E40FF51FE758F84E81E07C
:100AB0008183828381E090E018C08C3408F0B9CF44
:100AC000282F3327B901660F771FA901440F551F3F
:100AD000440F551F440F551FE5CF80E28093D21776
:100AE00060E170E040E450E0DDCFDF91CF91089508
:100AF000CF93DF93EC01F901433051056105710596
:100B000019F080E090E017C084859585A685B785AB
:100B10008F5F9F4FAF4FBF4FA1F390E088818E3022
:100B200028F481E09827892F992705C091E081E07A
:100B30009827892F9927DF91CF910895AF92BF927F
:100B4000CF92DF92EF92FF920F931F93CF93DF9399
:100B5000EC017727A42FBB27A617B7079CF1FB0151
:100B6000EE0FFF1FCB01880F991F880F991F880F69
:100B7000991FE80FF91FE758F84E91E0A92EB12C04
:100B800042E0332750E0C501022E02C0880F991FB2
:100B90000A94E2F78C239D23892B09F051E0808190
:100BA000581741F050834283E382F4820583168311
:100BB000D086C7822F5F3F4F6F5F7F4F3A96A61751
:100BC000B70704F7DF91CF911F910F91FF90EF903E
:100BD000DF90CF90BF90AF9008952F923F924F92A9
:100BE0005F926F927F928F929F92AF92BF92CF92BD
:100BF000DF92EF92FF920F931F93CF93DF93CDB7C6
:100C0000DEB724970FB6F894DEBF0FBECDBF3B0111
:100C10004C015A8349833C832B830E94B54DE0905D
:100C20009328F09094280091952810919628A090F0
:100C30008F28B0909028C0909128D0909228209032
:100C40008728309088284090892850908A280E94D0
:100C5000CA4DEA0CFB1CC70168EE73E00E94D76125
:100C600088EE93E09C01629FC001639F900D729F8C
:100C7000900D1124E81AF90AC7018619970997FF00
:100C800006C06150704088519C4F97FDFACFEB81B0
:100C9000FC8191838083CB01AA2797FDA095BA2F71
:100CA000280E391E4A1E5B1EE981FA81208231829C
:100CB0004282538224960FB6F894DEBF0FBECDBF9A
:100CC000DF91CF911F910F91FF90EF90DF90CF9028
:100CD000BF90AF909F908F907F906F905F904F905C
:100CE0003F902F9008953F924F925F926F927F9224
:100CF0008F929F92AF92BF92CF92DF92EF92FF922C
:100D00000F931F93CF93DF93CDB7DEB728970FB61E
:100D1000F894DEBF0FBECDBF2C01342E380149013F
:100D2000FB01EE0FFF1FCB01880F991F880F991F42
:100D3000880F991FE80FF91FE60FF71FEA53F04ECF
:100D40008181813009F474C0E680F78000851185C7
:100D5000A280B380C480D580A40193012E193F09DD
:100D6000400B510BD601C501880F991FAA1FBB1F4D
:100D7000281739074A075B0788F1668277828086E1
:100D8000918686E289831182332009F44EC01A824B
:100D90006B836F3F710559F150F1872F99278C8331
:100DA000FB01EE0FFF1FEE0FFF1FE752FE4FE40D9A
:100DB000F51D80818D8381818E8382818F838381E4
:100DC0008887EE24FF24870127E048E050E060E0B8
:100DD00070E0CE0101960E949B3E31C0EA0CFB1CE4
:100DE0000C1D1D1DE682F78200871187CACFFB010B
:100DF000EE0FFF1FEE0FFF1FE752FE4FE40DF51D34
:100E000080818C8381818D8382818E8383818F8396
:100E1000EE24FF24870127E047E050E060E070E027
:100E2000CE0101960E949B3E0AC081E08A83B0CF2A
:100E3000668277828086918686E28983A4CF28960F
:100E40000FB6F894DEBF0FBECDBFDF91CF911F91DB
:100E50000F91FF90EF90DF90CF90BF90AF909F9059
:100E60008F907F906F905F904F903F9008952F925A
:100E70003F924F925F926F927F928F929F92AF922A
:100E8000BF92DF92EF92FF920F931F93CF93DF9366
:100E9000CDB7DEB728970FB6F894DEBF0FBECDBF33
:100EA0003C010E94774E1B012C01F30124853585FE
:100EB0004685578550FF22C0E55BFC4F8081882323
:100EC00009F0B6C0D3019C91913009F4DEC1809144
:100ED000C7159091C815A091C915B091CA15009772
:100EE000A105B10509F086C051FF05C0D3018C9161
:100EF000813009F4E0C053FF53C31FC052FFF4CF49
:100F0000F301E55BFC4F8081882309F01DC1D3010B
:100F10008C91813049F771E4E72E73E0F72E6E0C67
:100F20007F1CD3018C916FEBE62E6CEFF62E6E0CCE
:100F30007F1C8130C9F68083D7CF86E090E00E9485
:100F4000D73D882309F42CC380910611282F33271D
:100F500060E004C06F5F6C3409F422C32F5F3F4F21
:100F60002C34310514F020E030E08901000F111F0E
:100F7000A901440F551F440F551F440F551FD80199
:100F8000A40FB51FA758B84EFD019181913011F7FC
:100F900082818823F9F212822093061199838C9121
:100FA000882309F493C180E88A83B801640F751F10
:100FB000DB01A058B84EFD0181818B838C918C831D
:100FC000FB01E458F84E83818D8382818E83818179
:100FD0008F838081888779010027F7FC0095102F87
:100FE00026E048E050E060E070E0CE0101960E940B
:100FF0009B3ED6C282017101E81AF90A0A0B1B0B4B
:10100000D801C7018D5D9540A040B04008F46CCF79
:1010100081E080831092C7151092C8151092C915EF
:101020001092CA15F30124853585468557855CCF16
:1010300087E090E00E94D73D882309F4E9C0F09052
:10104000001160E070E04FE3A42E43E0B42EA60C44
:10105000B71C1BE028C0F19EF0011124EA53F04EAA
:1010600080818823D1F02681378140855185818117
:10107000882309F0C2C0D201C101821B930BA40BCB
:10108000B50B9C01AD0182819381A481B58182174A
:101090009307A407B50708F4B0C06F5F7F4F6832AD
:1010A000710509F4B5C0F394F8E2FF16A1F6FF2428
:1010B000E6ECFFE1D5CF13E4E12E13E0F12EE60CD0
:1010C000F71CF70180819181892B09F414CF87E007
:1010D00090E00E94D73D882309F434C1D7018D9157
:1010E0009C91892B09F42EC1609104117091051116
:1010F00020E030E023C06A33710509F429C16F5F35
:101100007F4FFB01EE0FFF1FCB01880F991F880F48
:10111000991F880F991FE80FF91FE60FF71FEA5371
:10112000F04E8081882321F08181882309F024C238
:101130002F5F3F4F2930310509F467C16D347105C8
:10114000D1F663E370E0DDCF87E090E00E94D73D09
:10115000882309F0BDC08301075C1C4FD8019C9116
:101160009570F301E65CFC4F8081981761F09083E5
:10117000E3E6F4E192E08081811191833B96B4E152
:10118000E03BFB07C1F786E090E00E94D73D882353
:1011900071F1E090031140E08E2D8F5F69E00E94B5
:1011A000CB61E92E892F9927BC01660F771F9C011F
:1011B000220F331F220F331F220F331FDB01A20F19
:1011C000B31FA758B84EFD018181882369F091852E
:1011D000F80180819823FD018281882309F065C18F
:1011E0008C91981709F033C14F5F4930A9F6F3018C
:1011F000248535854685578577CE6F2D77279201D3
:101200008101D5014C91C3010E947306F092001137
:1012100085E090E00E94D73D882349F3D0900111EA
:10122000A0E0D394BFE0DB226D2D7727FB01EE0F0A
:10123000FF1FCB01880F991F880F991F880F991FD7
:10124000E80FF91FE60FF71FED54FC4E808188234D
:10125000C1F0E680F78000851185520141018E18AA
:101260009F08A00AB10A8181882309F074C02281F5
:10127000338144815581281539054A055B0508F4F9
:10128000B8C0AF5FA03169F6B2CFAFE3EA2EA3E0FA
:10129000FA2E6E0C7F1CD3018C9171ECE72E7CEF43
:1012A000F72E6E0C7F1C813079F000E413E0600EA5
:1012B000711ED3018C9160ECE62E6CEFF62E6E0C55
:1012C0007F1C813009F003CE908301CE1A826DCE4F
:1012D000D0900211A0E08D2D8F5F67E00E94CB615E
:1012E000D92E692F7727FB01EE0FFF1FCB01880F47
:1012F000991F880F991F880F991FE80FF91FE60F94
:10130000F71FED59FB4E80818823C1F0E680F780FE
:1013100000851185520141018E189F08A00AB10A6B
:101320008181882309F014C1228133814481558150
:10133000281539054A055B0508F4C5C0AF5FA7301D
:1013400051F609CFF3012485358546855785D3CDE0
:101350006DE470E0D6CED0920111813009F4ACC0BA
:101360002281338144815581DA01C901880F991F97
:10137000AA1FBB1F88169906AA06BB06E8F126829B
:1013800037824086518689E289831182E0E4F3E066
:101390006E0E7F1ED3018C91E0ECFCEF6E0E7F1E73
:1013A000813009F452C081E08A83DB82FB01EE0FB9
:1013B000FF1FEE0FFF1FE756FE4FE60DF71D808162
:1013C0008C8381818D8382818E8383818F83EE24C0
:1013D000FF24870125E047E050E060E070E0CE01A7
:1013E00001960E949B3EF3012485358546855785ED
:1013F0007BCDD0920111B8CFE20EF31E041F151F52
:10140000E682F78200871187BECF70930511609343
:10141000041120E030E0E8EFF1E28081280F311D77
:101420003B96B2E2E035FB07C1F780911623280F07
:10143000311D232B09F086CFF70111821082F301B1
:10144000248535854685578556CD1A82AECFE092E4
:10145000031181E08983FB01E20FF31FE758F84E87
:101460001282908301E413E0600E711ED3018C910F
:10147000EFEBFCEF6E0E7F1E813009F47BC081E044
:101480008A83992319F08A8180688A8386E0FE0125
:10149000339611928A95E9F7FF240027112726E059
:1014A00048E050E060E070E09ACFE09203118130B4
:1014B00081F682E08983CFCF2682378240865186AB
:1014C0008AE2898362CFD0920211DA01C901880FC2
:1014D000991FAA1FBB1F88169906AA06BB0608F407
:1014E00040C0268237824086518685E289831182F8
:1014F00001E413E0600E711ED3018C91EFEBFCEF61
:101500006E0E7F1E813009F442C081E08A83F4E1CF
:10151000DF0EDB82FB01EE0FFF1FEE0FFF1FE75E0A
:10152000FC4FE60DF71D80818C8381818D83828144
:101530008E8383818F83EE24FF24870127E047E099
:1015400050E060E070E0CE0101960E949B3E03CE29
:10155000D09202118130E9F022813381448155819A
:10156000B4CFE20EF31E041F151FE682F782008738
:101570001187BBCF1A8285CF709305116093041138
:101580009201810141E0C3010E94730642CF1A8299
:10159000BECF268237824086518686E28983A7CFD6
:1015A00028960FB6F894DEBF0FBECDBFDF91CF9166
:1015B0001F910F91FF90EF90DF90BF90AF909F90A1
:1015C0008F907F906F905F904F903F902F900895F5
:1015D0002F923F924F925F926F927F928F929F9243
:1015E000AF92BF92CF92DF92EF92FF920F931F9331
:1015F000CF93DF93CDB7DEB7A8970FB6F894DEBFD1
:101600000FBECDBF3B014C0159016A01280160307A
:1016100020E2720720E0820720E0920708F079C0FC
:10162000E114F10409F475C0DC01CB018A0D9B1DA6
:10163000AC1DBD1D81509042A040B04048F0A12C8F
:1016400020E2B22EC12CD12CA618B708C808D908A0
:10165000A114B104C104D10409F46EC069827A8274
:101660008B829C8281E090E08C0F9D1F019698A751
:101670008FA3662477244301D401C3018096A11D62
:10168000B11D8A159B05AC05BD0508F049C000E2F7
:1016900010E092E2292E312CEFA1F8A580818D83F4
:1016A00089818E83A801B201CE0107960E94535E04
:1016B0009701AE014B5F5F4FB10180EA0E94142495
:1016C000F701808180FFFCCF8081992796958795CF
:1016D000682F617071E0762798014427552789812A
:1016E0009A81AB81BC81820F931FA41FB51F898390
:1016F0009A83AB83BC83620E731E841E951E6A148C
:101700007B048C049D04A8F4662399F4400E511EBA
:10171000B3CF70E083E0F7018083872F99270EC055
:1017200085010619170982E0282E312C200E311E62
:10173000B3CF772379F3F1CF81E090E0A8960FB68D
:10174000F894DEBF0FBECDBFDF91CF911F910F91F7
:10175000FF90EF90DF90CF90BF90AF909F908F90D1
:101760007F906F905F904F903F902F900895EF92F1
:10177000FF920F931F93CF93DF93CDB7DEB72197DF
:101780000FB6F894DEBF0FBECDBFABE5B4E2FC01EF
:10179000EB5AFB4F88E101900D928150E1F768E12F
:1017A00070E08BE594E20E94384F8093772483E3C6
:1017B0009CECA5E5BAEA8093732490937424A093DB
:1017C0007524B09376247E010894E11CF11C0BE58E
:1017D00014E22DE130E040E050E060E171E080E0B3
:1017E00090E00E94E80A81E08093B11321960FB641
:1017F000F894DEBF0FBECDBFDF91CF911F910F9147
:10180000FF90EF900895EF92FF920F931F93CF9365
:10181000DF93CDB7DEB721970FB6F894DEBF0FBECA
:10182000CDBFA5ECB3E2FC01EB5AFB4F80E1019088
:101830000D928150E1F760E170E085EC93E20E9447
:10184000384F8093D92383E39CECA5E5BAEA8093D3
:10185000D5239093D623A093D723B093D8237E018A
:101860000894E11CF11C05EC13E225E130E040E0B6
:1018700050E06AE770E080E090E00E94E80A81E0D2
:101880008093B01321960FB6F894DEBF0FBECDBF84
:10189000DF91CF911F910F91FF90EF9008952F92BC
:1018A0003F924F925F926F927F928F929F92AF92F0
:1018B000BF92CF92DF92EF92FF920F931F93CF933D
:1018C000DF93CDB7DEB72D970FB6F894DEBF0FBE0E
:1018D000CDBF5C0119E9C12E11E0D12EC80ED91E71
:1018E00060E470E0C6010E94384F782E4E010894E3
:1018F000811C911C7401860120E430E040E050E03E
:1019000060E070E080E090E00E94E80AABE4B3E2BF
:10191000F60180E401900D928150E1F783E39CECA5
:10192000A5E5BAEA80938B2390938C23A0938D2313
:10193000B0938E2370928F2374010BE813E225E09D
:1019400030E040E050E060E470E080E090E00E9431
:10195000E80A20E730E0A20EB31EF50181918A83E8
:1019600081918B8381918C8381918D8381918E83F1
:1019700081918F8381915F018887808129E83FEF82
:10198000A20EB31E89872A813B814C815D816E81C5
:101990007F81888599850E944D586B017C0120E0EC
:1019A00034E244E759E40E94255A88230CF47EC0AF
:1019B00020E034E244E759E4C701B6010E946B59C4
:1019C0006B017C01BBE02B2E312C2C0E3D1EACE0BC
:1019D0004A2E512C4C0E5D1EFDE06F2E712C6C0EAC
:1019E0007D1E88249924850107561E4F36C0CA01E2
:1019F000B9010E945B5A20E030E040E85EE30E94BB
:101A00004D589B01AC01C701B6010E944D580E9480
:101A10009C56660F771F881F991F660F771F881FB8
:101A2000991F6A877B878C879D87F3018081F801E6
:101A30008083F2018081F8018183F1018081F801C6
:101A400082838A8583830894811C911C0C5F1F4FBD
:101A5000F0E18F16910409F43FC0F80183818A8771
:101A60008281F1018083F8018181F2018083F80194
:101A70008081F30180832A853B854C855D8557FFF6
:101A8000B6CFCA01B90161707070807090705695C0
:101A9000479537952795622B732B842B952B0E94A6
:101AA0005B5A9B01AC010E942058A5CF20E030E09A
:101AB0004AE754E4C701B6010E94255A88230CF472
:101AC00081CF20E030E04AE754E4C701B6010E942C
:101AD0006B596B017C0176CF81E08093B2132D9618
:101AE0000FB6F894DEBF0FBECDBFDF91CF911F912F
:101AF0000F91FF90EF90DF90CF90BF90AF909F90AD
:101B00008F907F906F905F904F903F902F900895AF
:101B10002F923F924F925F926F927F929F92AF92DD
:101B2000BF92CF92DF92EF92FF920F931F93CF93CA
:101B3000DF93CDB7DEB72E970FB6F894DEBF0FBE9A
:101B4000CDBFDC017901463051056105710519F001
:101B500080E090E044C2FC0191906F01A92CBB246D
:101B6000F3E19F1609F484C0F91508F442C09920E6
:101B700009F4FEC082E1981609F4C1C1892D845090
:101B80008E3008F434C163E0262E312C2C0C3D1C21
:101B900052E0452E512C4C0C5D1C36010894611C02
:101BA000711CF7018081813009F4A6C08501000F06
:101BB000111F0A0D1B1D095F1E4ED8018C91863026
:101BC00009F4B3C0F501EE0FFF1FEE0FFF1F709673
:101BD000EE0DFF1DD1018C918083D2018C91818308
:101BE000D3018C918283D6018C91838381E090E034
:101BF000F6C194E1991609F440C1E5E19E1609F099
:101C0000BDCFE4E02E2E312C2A0E3B1E2C593F4F27
:101C1000FD018481F901808373E0472E512C4A0E27
:101C20005B1E85E690E0E80EF91EFD018381F70159
:101C300081937F0136010894611C711CF60181813A
:101C4000F70181937F01FD018181D7018C93E9E93F
:101C5000FFEFEE0EFF1EF90180819181A281B38119
:101C60000097A105B10509F0A7C1F70180819BCFBD
:101C700094E0292E312C2A0E3B1EFD0184818B839A
:101C800083E0482E512C4A0E5B1E83818C833601E3
:101C90000894611C711CF60181818D83FD01818195
:101CA0008E838B819C81AD81BE810097A105B1059A
:101CB00009F4C9C08CE590E0E80EF91E82E090E0DE
:101CC000A0E0B0E0F70180839183A283B38384EA2C
:101CD0009FEFE80EF91EF701E257FE4F80819181D8
:101CE000A281B381A86080839183A283B383D7014B
:101CF0008C91813009F05ACF8501000F111FF80136
:101D0000EA0DFB1DE95FFE4E8181813009F051CF64
:101D100085E090E00E945A5DFC019482BC01C701FD
:101D200088579E4F0E94B42644CFF10180818F8353
:101D3000D2018C918887F30180818987D6018C91AB
:101D40008A876F81788589859A850E94C45A7A83AB
:101D50006983F501EE0FFF1FEE0FFF1F7096EE0D6A
:101D6000FF1D8A8180838981818381E090E037C172
:101D700054E0252E312C280E391EFC0184818B87DE
:101D800043E0442E512C4A0E5B1E83818C87360122
:101D90000894611C711CF60181818D87FD01818190
:101DA0008E87C90188579E4F0E9446272B853C8508
:101DB0004D855E8550FF55C0DA01C901877090706E
:101DC000A070B07086309105A105B10508F0C0CEB5
:101DD00087708093A413F701248735874687578738
:101DE0008081813009F0DFCE108280E0DCCEF70107
:101DF000E257FE4F21E030E00A2C02C0220F331FD1
:101E00000A94E2F7442737FD4095542F8081918151
:101E1000A281B381822B932BA42BB52B808391833A
:101E2000A283B38343E0242E312C2C0C3D1C32E0E2
:101E3000432E512C4C0C5D1C36010894611C711C06
:101E4000D7018C91B0CEACE5B0E0EA0EFB1EF701F5
:101E5000108211821282138284EA9FEFE80EF91E2B
:101E60003ACFDA01C90180709070A070BE700097FF
:101E7000A105B10509F0AFCF6BCE04E0202E312CC7
:101E80002A0E3B1EFD0184818B8313E0412E512CD1
:101E90004A0E5B1E83818C8336010894611C711C81
:101EA000F60181818D83FD0181818E838B819C81EF
:101EB000AD81BE810097A105B10509F461C080E63E
:101EC00090E0E80EF91E81E090E0A0E0B0E0F701BC
:101ED00080839183A283B38380EA9FEFE80EF91E8B
:101EE000F701E257FE4F80819181A281B381A06109
:101EF00080839183A283B383D7018C9154CE34E045
:101F0000232E312C2A0E3B1EFD0184818B8323E07E
:101F1000422E512C4A0E5B1E83818C83360108941D
:101F2000611C711CF60181818D83FD0181818E838D
:101F30008B819C81AD81BE810097A105B10571F1B6
:101F400088E590E0E80EF91E84E090E0A0E0B0E0C3
:101F5000F70180839183A283B38388EA9FEFE80E21
:101F6000F91EF701E257FE4F80819181A281B38172
:101F7000A46080839183A283B383D7018C9113CE15
:101F8000A0E6B0E0EA0EFB1EF70110821182128279
:101F9000138280EA9FEFE80EF91EA2CFA8E5B0E019
:101FA000EA0EFB1EF701108211821282138288EA68
:101FB0009FEFE80EF91ED5CF89E991E0E80EF91EF2
:101FC00080E4D7011D928A95E9F7E7E6FEEFEE0E71
:101FD000FF1EC7010E944F0CD7018C91E4CD2E96B5
:101FE0000FB6F894DEBF0FBECDBFDF91CF911F912A
:101FF0000F91FF90EF90DF90CF90BF90AF909F90A8
:102000007F906F905F904F903F902F900895CF9268
:10201000DF92EF92FF920F931F93CF93DF93CDB791
:10202000DEB724970FB6F894DEBF0FBECDBF9C83FA
:102030008B837B016A0189019C0140E28030940717
:1020400008F501151105F1F0860F971F8150904298
:1020500028F0E12C60E2F62EE21AF30A8C818983E3
:102060008B818A839801AE014F5F5F4F62E070E021
:1020700080EA0E941424F801808180FFFCCF8081D7
:1020800081FF06C083E0F801808380E090E00FC00C
:102090009801A601B70180EA0E943B24F8018081E3
:1020A00080FFFCCF808181FDEDCF81E090E0249620
:1020B0000FB6F894DEBF0FBECDBFDF91CF911F9159
:1020C0000F91FF90EF90DF90CF900895CF93DF9323
:1020D000CDB7DEB721970FB6F894DEBF0FBECDBFE8
:1020E0009E012F5F3F4F4BE554E26DE170E080E1D0
:1020F00091E00E94071068E170E08BE594E20E9495
:10210000384F90917724891719F01092B11310C0AD
:102110008091732490917424A0917524B0917624B9
:1021200083539C4CA545BA4A81F781E08093B11353
:1021300021960FB6F894DEBF0FBECDBFDF91CF91D1
:102140000895CF93DF93CDB7DEB721970FB6F894FC
:10215000DEBF0FBECDBF9E012F5F3F4F45EC53E268
:1021600065E170E08AE790E00E94071060E170E0AE
:1021700085EC93E20E94384F9091D923891719F08A
:102180001092B01310C08091D5239091D623A091C6
:10219000D723B091D82383539C4CA545BA4A81F7E5
:1021A00081E08093B01321960FB6F894DEBF0FBE86
:1021B000CDBFDF91CF9108950F931F93CF93DF93FE
:1021C000CDB7DEB721970FB6F894DEBF0FBECDBFF7
:1021D0000BE413E29E012F5F3F4FA80165E470E01E
:1021E00080E090E00E94071060E470E0C8010E9467
:1021F000384F90918F23891741F080E4F8011192B4
:102200008A95E9F71092B21310C080918B239091B8
:102210008C23A0918D23B0918E2383539C4CA54594
:10222000BA4A59F781E08093B21321960FB6F89419
:10223000DEBF0FBECDBFDF91CF911F910F910895EB
:10224000CF93DF93CDB7DEB721970FB6F894DEBFFB
:102250000FBECDBF9E012F5F3F4F4AEF53E261E4B7
:1022600070E08FEA90E00E9407106CE370E08AEF64
:1022700093E20E94384F90913A24891719F01092F6
:10228000AF1314C08091362490913724A091382444
:10229000B091392483539C4CA545BA4A81F760E03C
:1022A0008EE00E94A34E81E08093AF1321960FB67B
:1022B000F894DEBF0FBECDBFDF91CF9108956F922E
:1022C0007F928F929F92AF92BF92CF92DF92EF92C6
:1022D000FF920F931F93CF93DF93CDB7DEB7C25416
:1022E000D0400FB6F894DEBF0FBECDBFAAEFB3E269
:1022F000FC01EB5AFB4F8CE301900D928150E1F70A
:102300006CE370E08AEF93E20E94384F80933A24A6
:1023100083E39CECA5E5BAEA8093362490933724B6
:10232000A0933824B09339241092AF13CC24DD2429
:102330004E010894811C911CE2E06E2E712C6C0EF3
:102340007D1E73E4A72EB12CAC0EBD1E74010AEFE6
:1023500013E221E430E040E050E06FEA70E080E01A
:1023600090E00E94E80A8093AF13813061F0809181
:10237000AF13882311F50894C11CD11C83E0C81643
:10238000D10421F71AC09401A30161E470E08FEA3F
:1023900090E00E940710813051F72091AF13F301B4
:1023A000D80190818C91981320E031961196EA150E
:1023B000FB05B9F72093AF13DACFCE5BDF4F0FB633
:1023C000F894DEBF0FBECDBFDF91CF911F910F916B
:1023D000FF90EF90DF90CF90BF90AF909F908F9045
:1023E0007F906F9008955F926F927F928F929F92ED
:1023F000AF92BF92CF92DF92EF92FF920F931F9313
:10240000CF93DF93CDB7DEB726970FB6F894DEBF34
:102410000FBECDBF7C01162F2B833C834D835E8383
:10242000862F992706969A8389832CE433E0E20E5F
:10243000F31EF7019183808324EB3CEFE20EF31E41
:10244000B0E58B2EB3E09B2E8E0C9F1C8A81F4018D
:10245000808389818183F70180818295807F22E555
:1024600033E0E20EF31EF70180832EEA3CEFE20E2A
:10247000F31EC7010E942B03E3E5F3E0EE0EFF1EFF
:10248000F70180832DEA3CEFE20EF31EF70186810F
:1024900024E533E0E20EF31EF70180832CEA3CEFE3
:1024A000E20EF31ED4011596143069F18C81F4010B
:1024B00085838B81FD018183F7E06F2E712C680C81
:1024C000791C69817A8161507040C4010E94384F43
:1024D000582EF301808349815A8166277727C701E7
:1024E000805B9B4F25E030E0E20EF31E57016C014C
:1024F0007A018B01940180E00E947E02882399F486
:10250000F301508210C08E81F40185838D81FD011D
:1025100081838C8182838B818383A9E06A2E712CD5
:10252000680C791CCECF992726960FB6F894DEBF9B
:102530000FBECDBFDF91CF911F910F91FF90EF9014
:10254000DF90CF90BF90AF909F908F907F906F90D3
:102550005F9008958F929F92AF92BF92CF92DF9239
:10256000EF92FF920F931F93CF93DF93CDB7DEB718
:1025700022970FB6F894DEBF0FBECDBF8C017B0152
:10258000CB010A969A838983045B1C4FF8019183DF
:1025900080830C54134090E5892E93E0992E800E91
:1025A000911E8A81F40180838981818382E5C82E0E
:1025B00083E0D82EC00ED11EF80180818295807FE5
:1025C000F6018083C8010E942B03A8014D5A5C4F7D
:1025D000FA018083B8016C5A7C4FF8018681FB01B7
:1025E0008083D4011596FCEFEF16FFEFFF0669F02C
:1025F000F401C4018E0D9F1D049615823196E817D3
:10260000F907D9F7AE0DBF1D1496F6012081FA0126
:10261000808128270F5A1C4FF4018081F801908196
:10262000015513408927FB019081892728272C9386
:1026300049815A8166277727C801805B9B4F0B5FD2
:102640001F4F58016C017A018B01940180E00E94B8
:102650007E02992722960FB6F894DEBF0FBECDBF3B
:10266000DF91CF911F910F91FF90EF90DF90CF906E
:10267000BF90AF909F908F9008952F923F924F926E
:102680005F926F927F928F929F92AF92BF92CF9202
:10269000DF92EF92FF920F931F93CF93DF93CDB70B
:1026A000DEB768970FB6F894DEBF0FBECDBF7C01D2
:1026B000FC0115828091AE132681E82FFF27E0559B
:1026C000FB4E20838F5F8093AE13E22FFF27E4350C
:1026D000F10540F4E65BFF4FEE0FFF1F0590F4910C
:1026E000E02D099480E090E08DC76AE370E0C701B7
:1026F0000E94AA12992786C745E453E0E40EF51E0E
:10270000D7012D913D914D915C91EBEBFCEFEE0EDD
:10271000FF1E64E0C7010E94F311992773C782E08E
:1027200090E09A838983D7018C918295807FE2E53E
:10273000F3E0EE0EFF1ED7018C93EEEAFCEFEE0EF7
:10274000FF1EC7010E942B0323E533E0E20EF31EB8
:10275000D7018C93EDEAFCEFEE0EFF1EF7018681A8
:1027600024E533E0E20EF31ED7018C93ECEAFCEF94
:10277000EE0EFF1EE0E56E2EE3E07E2E6E0C7F1C5B
:1027800075E0472E512C460C571CD7011C96FD01B5
:102790008381F3018583FD018281F2018183FD0143
:1027A0008181F2018283F7018485F20183838A812A
:1027B000F3018187898182878301055F1F4FF09133
:1027C000A413FB8B6DEC862E61E1962E58E0A52EAE
:1027D00051E0B52E40E1242E312C2C0E3D1E38E167
:1027E000C32E31E0D32ECE0CDF1C97012C583F4F67
:1027F000388F2F8B3DC0863009F43FC020E130E098
:10280000E20EF31EF701EA0DFB1D40EF5FEFE40E51
:10281000F51E80818D8781818E8782818F8783815C
:10282000888BF4018281813009F420C5823009F45B
:102830007CC5833009F452C5D1018C91F8018083A5
:102840008F8581838E8582838D8583830C5F1F4F67
:1028500023E030E0820E931E44E050E0A40EB51E4B
:10286000C40ED51E58E7A51651E0B50609F49EC55D
:10287000D4018C91823009F0BECFF6018081918124
:1028800098878F838885D8018C938F81F801818305
:102890000E5F1F4FDDCF64E770E0C7010E94AA12F0
:1028A0009927B0C664E270E0C7010E94AA12992776
:1028B000A9C686E090E09A8389834CE453E0E40E55
:1028C000F51ED7018D939C93E4EBFCEFEE0EFF1EFB
:1028D000E0E58E2EE3E09E2E8E0C9F1C8A81D401B3
:1028E0008C938981F4018183D7018C918295807FBB
:1028F000E2E5F3E0EE0EFF1ED7018C93EEEAFCEF6B
:10290000EE0EFF1EC7010E942B0323E533E0E20E0B
:10291000F31ED7018C93EDEAFCEFEE0EFF1EF701DC
:10292000868124E533E0E20EF31ED7018C93ECEAB6
:10293000FCEFEE0EFF1E69817A8161507040C40188
:102940000E94384FE981FA81EE0DFF1DE15BFC4FDB
:10295000808349815A8166277727C701805B9B4F17
:1029600025E030E0E20EF31E57016C017A018B0185
:10297000940180E00E947E02992744C649E453E016
:10298000E40EF51ED7012D913C91E7EBFCEFEE0E26
:10299000FF1E4427552764E0C7010E94F3119927C1
:1029A00031C686E090E09A8389834CE453E0E40EDC
:1029B000F51ED7018D939C93E4EBFCEFEE0EFF1E0A
:1029C000F0E58F2EF3E09F2E8E0C9F1C8A81D401A0
:1029D0008C938981F4018183D7018C918295807FCA
:1029E000E2E5F3E0EE0EFF1ED7018C93E2E0F0E0AB
:1029F000EE0EFF1ED7012C93ECEAFCEFEE0EFF1E4D
:102A0000C7010E942B0323E533E0E20EF31ED7013A
:102A10008C93EDEAFCEF8DCFD7018C918295807F6E
:102A2000E2E5F3E0EE0EFF1ED7018D93FD0111925A
:102A30007F0181E080832CEA3CEFE20EF31E50E53B
:102A4000852E53E0952E8E0C9F1CD401159648E9D7
:102A500051E0E40EF51EF701808128E63EEFE20E1C
:102A6000F31E882309F0EAC482E190E09A83898307
:102A70009701205F3F4FF9018781F4018583F901B8
:102A80008681FD018183F9018581FD018283F90140
:102A90008481FD018383D4011996F9018385F401B2
:102AA0008187F9018285FD018183F9018185FD011D
:102AB0008283F9018085FD018383D4011D969701EE
:102AC000245F3F4FF9018381F4018587F9018281F9
:102AD000FD018183F9018181FD018283F7018485F4
:102AE000FD01838384010F5E1F4F2CE433E0E20E6F
:102AF000F31E69817A81D7016D937C93E4EBFCEF3F
:102B0000EE0EFF1E8A81D4018C938981F4018183AA
:102B100061507040C4010E94384FD8018C934981A4
:102B20005A8166277727C701805B9B4FE5E0F0E07D
:102B3000EE0EFF1E19CFD7018C918295807FE2E5C2
:102B4000F3E0EE0EFF1ED7018C93EEEAFCEFEE0EE3
:102B5000FF1EC7010E942B0323E533E0E20EF31EA4
:102B6000D7018D937D0183E08C93ECEAFCEFEE0EB0
:102B7000FF1E70E5672E73E0772E6E0C7F1C65E0FC
:102B8000A62EB12CA60CB71CD7011C96FD01838183
:102B9000F3018583FD018281F5018183FD0181813E
:102BA000F5018283F7018485F501838381E090E05C
:102BB0009C838B838C81F30181878B818287830146
:102BC000055F1F4F0E948903813009F4A3C48CE381
:102BD000D8011D928A95E9F7045C1F4F80E4F80143
:102BE00011928A95E9F7830109571F4FD8012BE10C
:102BF00030E0A70144585F4FFA0183818C938281B2
:102C0000FD018183FA018181FD018283FA018081C6
:102C1000FD01838314962F5F3F4F4C5F5F4F2E3132
:102C2000310551F7D80128E130E0A70140595F4F45
:102C3000FA018381FD018487FA018281FD01858784
:102C4000FA018181FD018687FA018081FD01878774
:102C50002F5F3F4F4C5F5F4F14962B31310541F78B
:102C600058E1C52ED12CC00ED11E8091B1138130F8
:102C700009F478C488E1D6011D928A95E9F78601A6
:102C8000085E1F4FB8016619770965507040769548
:102C90006795C5010E9473039E838D838D81F60124
:102CA000808F8E81F80181832AE130E0C20ED31E2D
:102CB000B6016619770946EE5FEFC40ED51ECB014B
:102CC00001969A838983ACE4B3E0EA0EFB1EF70118
:102CD0009183808324EB3CEFE20EF31E8A81D301C3
:102CE0008C938981F3018183C3010E94384FF601DF
:102CF000828F49815A8166277727C701805B9B4F66
:102D000025E030E0E20EF31E57016C017A018B01E1
:102D1000930180E00E947E02992774C460EA70E00B
:102D2000C7010E94AA1299276DC460E470E0C70130
:102D30000E94AA12992766C4F7018281823009F4A1
:102D4000D4CC66E170E0C7010E94AA1299275AC448
:102D5000D7018C918295807FE2E5F3E0EE0EFF1EB5
:102D6000D7018C93EEEAFCEFEE0EFF1EC7010E9426
:102D70002B0323E533E0E20EF31ED7018D937D0193
:102D800088E18C93ECEAFCEFEE0EFF1E30E5632E3B
:102D900033E0732E6E0C7F1CA3014B5F5F4FD70196
:102DA0001C96FD018381F3018583FD018281FA0177
:102DB0008183FD018181FA018283F7018485FA0113
:102DC000838384E090E09C838B838C81F3018187F3
:102DD0008B818287F70181A1F30183879701205FAF
:102DE0003F4FF9018089F30184878301035F1F4FFF
:102DF000F801A5ECB3E280E10D9001928150E1F77A
:102E0000D901B30193012C5C3F4FFD018789FB0180
:102E1000858FFD018689FB01868FFD018589FB0178
:102E2000878FFD018489FB0180A314966C5F7F4F1F
:102E30006217730751F70C5B1F4FB80166197709CA
:102E40006550704076956795CA010E9473039A8316
:102E500089838981D8018C938A81F80181830E5FEF
:102E60001F4FB8016619770902501040CB01019637
:102E70009E838D832CE433E0E20EF31ED7018D9305
:102E80009C93E4EBFCEFEE0EFF1E8E81D3018C933E
:102E90008D81F3018183C3010E94384FF801828341
:102EA0004D815E8128CF6CE170E0C7010E94AA12BB
:102EB0009927A8C38EE090E09A8389832CE433E0BD
:102EC000E20EF31ED7018D939C93E4EBFCEFEE0E24
:102ED000FF1E40E5842E43E0942E8E0C9F1C8A81B9
:102EE000D4018C938981F4018183D7018C918295DF
:102EF000807FE2E5F3E0EE0EFF1ED7018D93FD012A
:102F000011927F018CE180832CEA3CEFE20EF31EEC
:102F1000D40115969701205F3F4FF9018785F40191
:102F20008583F9018685FD018183F9018585FD0190
:102F30008283F701848DFD0183838401075F1F4F26
:102F4000D7011C96FD018381F4018187FD018281F7
:102F5000F8018183FD018181F8018283F701848575
:102F6000F80183836DE070E0C4010E94384FF801DE
:102F70008483EFCC6EE070E0C7010E94AA1299270B
:102F800041C38BE090E09A8389834CE453E0E40EE4
:102F9000F51ED7018D939C93E4EBFCEFEE0EFF1E24
:102FA00090E5892E93E0992E8E0C9F1C8A81D40186
:102FB0008C938981F4018183D7018C918295807FE4
:102FC000E2E5F3E0EE0EFF1ED7018C93EEEAFCEF94
:102FD000EE0EFF1EC7010E942B0323E533E0E20E35
:102FE000F31ED7018D937D0180E28C93ECEAFCEF18
:102FF000EE0EFF1EC70188579E4F0E946626FC01F9
:103000009481892F84508E3008F050C29350F4017F
:1030100095839D5F84010A5F1F4FE92FFF27DF0122
:10302000AA0FBB1FAE0FBF1FA95FBE4E8C9184308D
:1030300009F444C2EE0FFF1FEE0FFF1FEE0DFF1D40
:10304000808991899C838B838C81D8018C938B811F
:10305000F801818369817A8161507040C4010E94C6
:10306000384FF801848375CCD7018C918295807F8D
:10307000E2E5F3E0EE0EFF1ED7018C93EEEAFCEFE3
:10308000EE0EFF1EC7010E942B0323E533E0E20E84
:10309000F31ED7018D937D0186E38C93ECEAFCEF60
:1030A000EE0EFF1E30E5632E33E0732E6E0C7F1C98
:1030B00093012B5F3F4F3A8B298BD7011C96FD0163
:1030C0008381F3018583FD018281F9018183FD0103
:1030D0008181E989FA898283F7018485E989FA89FE
:1030E000838388E090E09C838B838C81F3018187CC
:1030F0008B8182878301055F1F4FF091A413FC8BA6
:1031000021E6822E21E1922E98E7A92EB12C89E0AA
:10311000282E312C2C0E3D1EBCE04B2E512C4C0E7B
:103120005D1EA8E8CA2ED12CCE0CDF1C97012C58AE
:103130003F4F3E8B2D8B3DC0863009F43FC020E1D0
:1031400030E0E20EF31EF501EE0DFF1D40EF5FEFE4
:10315000E40EF51E8081898781818A8782818B8731
:1031600083818C87F40182818130B1F1823009F44E
:10317000A0C0833009F453C0D2018C91F801808340
:103180008B8581838A858283D1018C9183830C5FB7
:103190001F4FE3E0F0E08E0E9F1E24E030E0A20E11
:1031A000B31EC20ED31E38E0A31631E0B30609F4F5
:1031B0000EC1D4018C91823009F0BECFF60180811E
:1031C000918198878F838885D8018C938F81F801AE
:1031D00081830E5F1F4FDDCF20E730E0E20EF31E4C
:1031E000D7018D918D87FD0181918E87DF018D91B2
:1031F0007D018F878C91EDE8FFEFEE0EFF1E888B2F
:103200002D853E854F85588969857A858B859C8576
:103210000E946B5969877A878B879C87ADCF3C89E1
:10322000332309F497C048E750E0E40EF51ED701B8
:103230008D918D87FD0181918E87DF018D917D01BB
:103240008F878C91E5E8FFEFEE0EFF1E888B2D85B2
:103250003E854F85588969857A858B859C850E9436
:103260006B5969877A878B879C8786CF20E730E008
:10327000E20EF31ED7018D918987FD0181918A8726
:10328000DF018D917D018B878C91EDE8FFEFEE0ED4
:10329000FF1E8C8729853A854B855C856D857E85EB
:1032A0008F8598890E946B596D877E878F87988B51
:1032B000C3CAAD89BE898C918D87E5E7F0E0EE0E3B
:1032C000FF1ED7018D918E87FD0181917F018F8730
:1032D000808129E83FEFE20EF31E91CF3B89332333
:1032E00009F44EC048E750E0E40EF51ED7018D9179
:1032F0008987FD0181918A87DF018D917D018B870F
:103300008C91E5E8FFEFEE0EFF1E8C8729853A854C
:103310004B855C856D857E858F8598890E946B596C
:103320006D877E878F87988B87CAAF89B88D8C9180
:103330008987E5E7F0E0EE0EFF1ED7018D918A87C1
:10334000FD0181917F018B87808129E83FEFE20EAB
:10335000F31E9FCFAD89BE898C918D87E5E7F0E0A4
:10336000EE0EFF1ED7018D918E87FD0181917F01A9
:103370008F87808129E83FEFE20EF31E888B67CFAD
:10338000AF89B88D8C918987E5E7F0E0EE0EFF1EDE
:10339000D7018D918A87FD0181917F018B87808183
:1033A00029E83FEFE20EF31E8C87B0CFB801661913
:1033B00077096550704076956795C2010E94730346
:1033C0009C838B838B81D8018C938C8146CDB801F3
:1033D00066197709655070407695679589899A894D
:1033E0000E9473039E838D838D81D8018C938E817F
:1033F000F80181830E5F1F4FB801661977090250EB
:103400001040CB0101969A8389832CE433E0E20ECD
:10341000F31ED7018D939C93E4EBFCEFEE0EFF1EA1
:103420008A81D3018C938981F3018183C3010E9436
:10343000384FF801828349815A815DCC8EE090E05B
:103440009A8389832BE630E0E20EF31EF701808138
:10345000F4018583F70182917F01FD018183F701EA
:1034600082917F01FD018283F70182917F01FD013D
:103470008383A401475F5F4F27E030E0E20EF31E35
:10348000D7018C91F40181878E91FA0181838E910D
:103490008283FD0182917F0124E93FEFE20EF31E5A
:1034A000FA0183838401035F1F4F1FCB9751F401FF
:1034B0009583995E84010A5F1F4FAFCD20E130E014
:1034C000E20EF31EEE0FFF1FEE0FFF1FEE0DFF1DAE
:1034D00040EF5FEFE40EF51E80818D8781818E873E
:1034E00082818F878381888BFD018281813009F4FD
:1034F00042C0823009F474C0833009F45FC0888907
:10350000D8018C938F85F80181838E8582838D8588
:103510008383A0CDF801AAEFB3E28CE30D90019272
:103520008150E1F79801245C3F4FABE4B3E2A9017D
:103530008C91FA018083FD018181FA018183FD0173
:103540008281FA018283FD018381FA0183834C5FCA
:103550005F4F1496F3E2AB38BF0751F78901005C67
:103560001F4F44CBF601ABE5B4E288E10D90019228
:103570008150E1F784CB20E730E0E20EF31ED70163
:103580008D918987FD0181918A87DF018D917D0170
:103590008B878C91EDE8FFEFEE0EFF1E8C8729855F
:1035A0003A854B855C856D857E858F8598890E94DF
:1035B0006B596D877E878F87988BA1CF28E730E086
:1035C000E20EF31ED7018D918987FD0181918A87D3
:1035D000DF018D917D018B878C91E5E8FFEFDCCFDA
:1035E00024E730E0E20EF31ED7018D918987FD01BB
:1035F00081918A87DF018D917D018B878C91E9E82C
:10360000FFEFCACF68960FB6F894DEBF0FBECDBFEE
:10361000DF91CF911F910F91FF90EF90DF90CF90AE
:10362000BF90AF909F908F907F906F905F904F90E2
:103630003F902F9008952F923F924F925F926F92FA
:103640007F928F929F92AF92BF92CF92DF92EF9232
:10365000FF920F931F93CF93DF93CDB7DEB7CA5E70
:10366000D0400FB6F894DEBF0FBECDBF5C01809195
:10367000A613813009F1813058F0823009F462C01C
:10368000833009F459C0F501858182608583DBC7E9
:103690001092AB134093A7135093A8136093A913F0
:1036A0007093AA13C5010E943D13882309F040C0FE
:1036B00082E08093A613C7C7F5018581992780FF13
:1036C000C2C781FDF5CF40E5842E44E0942E8A0CDC
:1036D0009B1C84010F5F1F4FF401818189838081CE
:1036E0008A833CE4632E33E0732E6A0C7B1CD30187
:1036F0008D919C9169817A818617970709F461C041
:1037000061507040C4010E94384FF501818183FFF0
:1037100051C0AEE4EA2EA3E0FA2EAE0CBF1CD501D8
:103720008D919C91069721F285E08093AB13C0CFD9
:1037300081E08093A61387C78FEFF50186831092EF
:10374000A61381C72091AB13253050F0F501858178
:103750008260858383E08093A6131092AB1373C7B6
:103760008091A7139091A813A091A913B091AA13C7
:103770007A018B01E81AF90A0A0B1B0BD801C70161
:1037800085369105A105B10508F45DC74093A713DF
:103790005093A8136093A9137093AA132F5F2093DB
:1037A000AB13C5010E943D13813009F04CC78093D3
:1037B000A61349C7F30180819181069709F0B4CF20
:1037C00077CF0197BC01C4010E94384FE981FA818B
:1037D000EA0DFB1DE15BFB4F9081891709F095CF46
:1037E000E2E5F4E0AE0EBF1ED5019C91EEEAFBEFE0
:1037F000AE0EBF1E892F8F70F5018183492F55278B
:10380000529542954F7045275F704527428393E557
:10381000E92E94E0F92EAE0CBF1CD5018C91EDEA97
:10382000FBEFAE0EBF1EF501838384E5E82E84E036
:10383000F82EAE0CBF1CD5018C91ECEAFBEFAE0E5E
:10384000BF1EF5018483B4E5EB2EB3E0FB2EAE0C76
:10385000BF1CD5012C91ECEAFCEFAE0EBF1EF501AA
:103860002783AEE4EA2EA3E0FA2EAE0CBF1CD301F0
:103870008D919C91F50191838083F2EBEF2EFCEF0B
:10388000FF2EAE0CBF1C2A3171F12B3178F425309C
:1038900009F465C12D3009F447C3243009F460C32D
:1038A00083E08093A6131092A513CDC6283309F4A4
:1038B000BFC12933B0F52E3199F768E070E0C4013B
:1038C00005960E94730329813A81820E931EEDEFC3
:1038D000FFEF8E0E9F1ED4012D913C91821793070E
:1038E00009F013CFDDCFF40181818B8380818C833C
:1038F00084010B5F1F4F6FE070E0C8010E947303EB
:10390000EB81FC81E80DF91D33972081318182170D
:10391000930709F4C1C280E090E0813009F0F5CE50
:10392000BFCF273409F4FCC32E3409F0B9CFF4011A
:1039300081818B8380818C8384010B5F1F4F63E1C6
:1039400070E0C8010E9473032B813C81820E931E9C
:103950006DEFE62E6FEFF62E8E0C9F1CD4012D918D
:103960003C9182179307B9F6DE01AE5BBF4F9D0114
:10397000A80184E2FA010190AF01F90101929F01CF
:103980008150C1F755EAE52E52E0F52EAE0CBF1C72
:103990008C91F50181935F01FD018181F501819396
:1039A0005F01FD018281F50181935F01FD0183814A
:1039B000F50181935F019D012C5F3F4FFD018481E3
:1039C000F50181935F01F9018181F50181935F0127
:1039D000F9018281F50181935F01F9018381F5018C
:1039E00081935F019D01285F3F4FFD018085F501B7
:1039F00081935F01F9018181F50181935F01F901F3
:103A00008281F50181935F01F9018381F501819341
:103A10005F019D012C5E3F4FFD018489F50181937B
:103A20005F01F9018181F50181935F01F9018281D3
:103A3000F50181935F01F9018381F50181935F01B4
:103A40009D01245F3F4FFD018485F50181935F0156
:103A5000F9018181F50181935F01F9018281F5010D
:103A600081935F01F9018381F50181935F019D01DC
:103A7000285E3F4FFD01808DF50181935F01F901C3
:103A80008181F50181935F01F9018281F5018193C3
:103A90005F01F9018381F50181935F019D01205F41
:103AA0003F4FFD018089F50181935F01F90181811B
:103AB000F50181935F01F9018281F50181935F0135
:103AC000F9018381F50181935F019D01245E3F4FE0
:103AD000FD01848DF50181935F01F9018181F5017B
:103AE00081935F01F9018281F50181935F01F90101
:103AF0008381F50180839D01205E3F4F49E4E42EE0
:103B0000F12CAE0CBF1CFD0180A1D5018D93F901F4
:103B100081818D938281FD0181935F01F901838110
:103B2000D5018C93E0EFFCEFAE0EBF1EE8EFF1E2A3
:103B300082E080833B9602E2E035F007D1F7809384
:103B4000162323E433E0A20EB31E81E090E0D501FA
:103B50008D939C93EDEBFCEFAE0EBF1EDECE840189
:103B60000B5F1F4F61E270E0C8010E947303E9819F
:103B7000FA81E80DF91D339720813181821793076F
:103B800009F0C3CD34E6E32EF12CAE0CBF1CF501D9
:103B900080819181A281B3812CE9E22E2FEFF22E58
:103BA000AE0CBF1C0097A105B10509F079CEA401A8
:103BB00020E030E0D501A756BE4FFA0185818C93F5
:103BC0008681FD018183FA018781FD018283FA01EB
:103BD0008085FD0183832F5F3F4F14964C5F5F4FBD
:103BE0002031310551F7D501A05BBA4F9801205C17
:103BF0003F4FF90183818C938281FD018183F9011B
:103C00008181FD018283F9018081FD01838310E4BC
:103C1000E12E13E0F12EAE0CBF1C81E0D5018C9398
:103C2000E0ECFCEFAE0EBF1EC5010E944F0C38CE7B
:103C3000A1E2EA2EF12CEC0EFD1ED701E9E9F2E13A
:103C400081E201900D928150E1F7D8018C918B8334
:103C5000F40180818C8384010B5F1F4FC252DF4FC0
:103C600019830883CE5DD0406EE170E0C8010E94E8
:103C70007303EB81FC81E80DF91D339720813181BD
:103C80008217930709F047CEF40182858D838185E1
:103C90008E83FBE04F2E512C480C591CF091A4133D
:103CA000C052DF4FF883C05ED0408401E8E28E2E20
:103CB000912C7FE7272E71E2372E670195012C5852
:103CC0003F4FCD51DF4F39832883C35ED040C501BC
:103CD0008B589F4FCB51DF4F99838883C55ED0406F
:103CE00069E7E62E62E0F62EEA0CFB1CD501AA5825
:103CF000BF4FC951DF4FB983A883C75ED040F501DC
:103D0000E958FF4FC751DF4FF983E883C95ED040C0
:103D10002AC0F6018181813009F48FC0F6018281C9
:103D2000813009F453C0888DD7018C938F89F701B6
:103D300081838E8982838D8983830894811C911C61
:103D400024E030E0E20EF31E8BE090E0280E391EF6
:103D50000C5F1F4FA3E0B0E0CA0EDB1EB3E38B166F
:103D6000910409F403C382E0D1018C93F8018685A4
:103D70008D8B85858E8B84858F8B8385888FD601EF
:103D80008C91813031F6E0E7F0E0AE0EBF1ED50138
:103D90008D91898BFD0181918A8BDF018D915D0170
:103DA0008B8B8C91EDE8FFEFAE0EBF1E8C8B2989BB
:103DB0003A894B895C896D897E898F89988D0E94AB
:103DC0004D586D8B7E8B8F8B988FA3CFC052DF4F5A
:103DD000F881C05ED040F13009F4B3C2CD51DF4F5D
:103DE000A881B981C35ED0408C91898BCB51DF4FC4
:103DF000E881F981C55ED04080818A8BC951DF4F4F
:103E0000A881B981C75ED0408C918B8BC751DF4FA1
:103E1000E881F981C95ED04080818C8B29893A89FB
:103E20004B895C896D897E898F89988D0E944D5858
:103E30006D8B7E8B8F8B988F76CFCD51DF4FA88186
:103E4000B981C35ED0408C91898BCB51DF4FE88123
:103E5000F981C55ED04080818A8BC951DF4FA8812E
:103E6000B981C75ED0408C918B8BC751DF4FE88101
:103E7000F981C95ED04080818C8B29893A894B8930
:103E80005C896D897E898F89988D0E944D586D8BD4
:103E90007E8B8F8B988F42CFA40120E030E0D5013C
:103EA000A75EBC4FFA0185818C938681FD018183D9
:103EB000FA018781FD018283FA018085FD018383F8
:103EC0002F5F3F4F14964C5F5F4F2730310551F7FE
:103ED000D501AB5CBC4F9801245E3F4FF901838153
:103EE0008C938281FD018183F9018181FD018283AF
:103EF000F801848DFD018383F5018481B9E3EB2E04
:103F0000B3E0FB2EAE0CBF1CD5018C93E8E0F0E0D3
:103F1000AE0EBF1E81E0D5018C93EFEBFCEFAE0E31
:103F2000BF1E81E090E0F9CC423009F402C26CE09F
:103F300070E0C40105960E9473039C0189819A81F7
:103F4000880E991EBDEFEB2EBFEFFB2E8E0C9F1C33
:103F5000D4018D919C912817390709F0D6CBA0CCBC
:103F6000E6E6EE2EF12CEC0EFD1ED701E1E2F2E1C9
:103F700088E701900D928150E1F7D8018C918987F3
:103F8000F40180818A8784010B5F1F4FCF51DF4F7F
:103F900019830883C15ED04061E570E0C8010E94CA
:103FA0007303E985FA85E80DF91D33972081318186
:103FB0008217930709F0AFCC77E1272E312C2C0E16
:103FC0003D1E68E1462E512C4C0E5D1E8401882456
:103FD0009924670159EDE52E51E0F52EEA0CFB1C02
:103FE00027C0F6018181813009F477C0F601828112
:103FF000813009F44FC0D2018C91F7018083D10147
:104000008C9181838E8982838D8983830894811C1E
:10401000911CE4E0F0E0EE0EFF1E0C5F1F4F23E06A
:1040200030E0C20ED31E38E28316910409F477C241
:10403000F80180858D8B87818E8B8681D1018C9351
:104040008581F2018083D6018C91813051F6E0E7C1
:10405000F0E0AE0EBF1ED5018D91898BFD018191DF
:104060008A8BDF018D915D018B8B8C91EDE8FFEFE9
:10407000AE0EBF1E8C8B29893A894B895C896D896C
:104080007E898F89988D0E944D586D8B7E8B8F8B8A
:10409000988FA7CF28E730E0A20EB31ED5018D91EF
:1040A000898BFD0181918A8BDF018D915D018B8B65
:1040B0008C91E5E8FFEFAE0EBF1E8C8B29893A8903
:1040C0004B895C896D897E898F89988D0E944D58B6
:1040D0006D8B7E8B8F8B988F8ECF24E730E0A20E76
:1040E000B31ED5018D91898BFD0181918A8BDF01F2
:1040F0008D915D018B8B8C91E9E8FFEFAE0EBF1EB9
:104100008C8B29893A894B895C896D897E898F8955
:10411000988D0E944D586D8B7E8B8F8B988F66CFBC
:10412000F40181818B8380818C8384010B5F1F4F1D
:104130006BE370E0C8010E947303EB81FC81E80D22
:10414000F91D33972081318133968217930709F047
:10415000E2CB349780818B8782918C876B857C85BD
:10416000882799279E01295F3F4FAE01435F5F4F2C
:104170000E94ED05F80181818987F40185818A8794
:10418000CF80D884ED84FE840F85188920E04BE42D
:104190006DE389859A850E949E05F4018085898753
:1041A00087818A87CF80D884ED84FE840F85188923
:1041B00029E04CE366E389859A850E949E0549843F
:1041C0005A842FEFE22E21E0F22E4E205F208091C4
:1041D000AC139091AD1348265926F4018285898F3E
:1041E00081858A8FCF80D884ED84FE840F851889DD
:1041F00020E045E36BE2898D9A8D0E949E05F401D3
:104200008485898F83858A8FCF80D884ED84FE84CE
:104210000F85188920E04AE26BE1898D9A8D0E9412
:104220009E059401235F3F4F9BE3F92ECC24DD24B0
:1042300069857A8589ED882E81E0982E8A0C9B1CF1
:1042400013C044215521452BE1F4F39489010C5FFF
:104250001F4FF39498012C5F3F4F0894C11CD11C51
:10426000FCE4FF1508F4A9C141E050E00C2C02C0A9
:10427000440F551F0A94E2F7CA0186239723892B1E
:1042800001F3AF2DBB27FD01EE0FFF1FCD01880FFE
:10429000991F880F991F880F991FE80FF91FEA0FC0
:1042A000FB1FEA53F04E82E081838487AA0FBB1F75
:1042B000AA0FBB1FA80DB91DF90180818C938181C4
:1042C000FD018183F9018281FD018283F9018381EE
:1042D000FD018383F39489010C5F1F4FF8018381F3
:1042E0008D8F82818E8F81818F8FF901848188A348
:1042F0002D8D3E8D4F8D58A157FD3AC1CA01B90190
:104300000E945B5A698B7A8B8B8B9C8BEF2DFF27DE
:10431000EE0FFF1FEE0FFF1FE80DF91D8C89808344
:104320008B8981838A8982838989838369857A8558
:1043300090CF6EE170E0C40105960E9473039C016A
:10434000FDCD28E730E0A20EB31ED5018D91898BFB
:10435000FD0181918A8BDF018D915D018B8B8C91A9
:10436000E5E8FFEFAE0EBF1E8C8B58CDF201BC9678
:1043700083818D8782818E8781818F87F20184A5D9
:10438000888B6D857E858F8598899E01275F3F4F3D
:10439000AE01475E5F4F0E94ED05F201F09683810A
:1043A0008D8782818E8781818F87F20180A9888B9A
:1043B00055E4E52E53E0F52EAE0CBF1C8D859E8591
:1043C000AF85B889F50180839183A283B3834BEBDA
:1043D000E42E4CEFF42EAE0CBF1CC252DF4FE8812E
:1043E000F981CE5DD04081818F8380818887A0E074
:1043F000B0E0E1E4F8E1EF80F884498D5A8D6B8DEF
:104400007C8D09851A8531E0C32ED12C22E0922EB5
:1044100096010A2E02C0220F331F0A94E2F72E21C2
:104420003F212115310511F021E030E080819927ED
:104430002817390741F020834383548365837683AB
:1044400010870783928211963A96A530B10501F73D
:10445000C252DF4FE881F981CE5DD04083818F83E6
:1044600082818887A0E0B0E0EBEAF7E1EF80F88492
:1044700091E0C92ED12C82E0982E96010A2E02C01E
:10448000220F331F0A94E2F72E213F212115310517
:1044900011F021E030E0808199272817390741F099
:1044A00020834383548365837683108707839282B6
:1044B00043835483658376831087078311963A96E6
:1044C000AF30B105D1F640938018509381186093B6
:1044D0008218709383181093851800938418409362
:1044E0007618509377186093781870937918109312
:1044F0007B1800937A1882E080937F188093751858
:104500008E818076803209F450C0803409F445C031
:104510001092731810927D1881E090E0FEC9D501C9
:10452000A05BBA4FCF51DF4F28813981C15ED040A7
:1045300020563F4FF90183818C938281FD01818355
:10454000F9018181FD018283F9018081FD0183836D
:104550004FE3E42E43E0F42EAE0CBF1C81E0D50106
:104560008C93E1ECFCEFAE0EBF1E81E090E0D5C96C
:10457000CA01B9016170707080709070569547954E
:1045800037952795622B732B842B952B0E945B5AB2
:104590009B01AC010E942058B5CE1092731881E0A7
:1045A00080937D1881E090E0B8C981E08093731812
:1045B00010927D1881E090E0B0C989017093AD132D
:1045C0006093AC1343E350E068EF71E292E085EA58
:1045D000E82E82E0F82EEA0CFB1CD9018C91F70141
:1045E0008083F9018181F7018183F9018281F701DB
:1045F0008283F9018381F7018383DB019C932C5F24
:104600003F4F4F5F5F4FE4E0F0E0EE0EFF1E655F4F
:104610007F4F4B33510509F7D501A75BBC4F98017C
:10462000205E3F4FF90183818C938281FD0181835C
:10463000F9018181FD018283F80180A1FD0183835D
:1046400081E090E06AC981E090E0C651DF4F0FB68B
:10465000F894DEBF0FBECDBFDF91CF911F910F91B8
:10466000FF90EF90DF90CF90BF90AF909F908F9092
:104670007F906F905F904F903F902F900895809122
:10468000BD158823C9F081508093BD158823A1F4FE
:10469000E091BB15F091BC15309711F083E0808359
:1046A0001092B0158091BC008B778093BC008091F4
:1046B000BC0084688093BC000895CF93DF93DB0136
:1046C0008AE0EB018D879091B900987F8C918330BF
:1046D000A9F18430D8F0853009F46FC08530B0F589
:1046E000983179F585E08C93FB0183819481019762
:1046F000948383830180F281E02D81918093BB00BC
:10470000EB01FA83E98325EC92E007C0813009F4DC
:104710006AC08230E9F125EC92E08C91873009F093
:104720007EC01C92FD011586923009F43FC0ED0158
:10473000EB85FC8581E08083206171C0903409F4B1
:1047400060C087E08C9325EC92E0E7CF863019F7C4
:10475000903511F09835A9F7ED01ED81FE8180913A
:10476000BB0080838D819E8101969E838D838F8186
:104770009885019798878F838F819885892B09F475
:1047800049C08F819885019731F625E892E0C5CF21
:10479000983011F09031A9F683E08C93ED01898572
:1047A00081608093BB0025EC92E0B7CF0384F48551
:1047B000E02D83E08083206132C0983211F6EB0156
:1047C0008B819C81892B31F18B819C8101979C830A
:1047D0008B83E981FA8181918093BB00FA83E9831D
:1047E00025EC92E09ACF983019F0903109F0A9CFDA
:1047F00084E08C93FD0182858093BB0025EC92E0E0
:104800008CCF86E08C93FB0187819085019709F01E
:1048100082CFBBCF87E08C9325EC90E07ECF2093B6
:10482000BC00DF91CF910895F90161157105F1F098
:104830009091B0159923F1F710825093B2154093DF
:10484000B115F093BC15E093BB157093B41560934C
:10485000B3158093BA1581E08093B0158091BC00A8
:10486000806A8093BC0081E090E0089583E08083BB
:1048700080E090E00895F90161157105F1F09091E3
:10488000B0159923F1F710825093B6154093B515E2
:10489000F093BC15E093BB157093B8156093B715F2
:1048A0008093B91582E08093B0158091BC00806A36
:1048B0008093BC0081E090E0089583E0808380E0F5
:1048C00090E0089520EB35E1442737FD4095542FC3
:1048D0006DE573E284E290E00E94A14F813019F00F
:1048E00080E090E008958091B9008C7F8093B900BA
:1048F0008AE08093B8001092BA0085E48093BC00EF
:1049000081E090E008951F938EEB95E10E9466266A
:10491000009749F0FC0111E01487CF010E94BF26E7
:10492000FC01892BC9F71F910895CF93DF93EC0108
:104930008EEB95E10E946626009731F415C0CF01F9
:104940000E94BF26009781F0FC0184819581AA27EF
:10495000BB27288139814A815B8182179307A4078D
:10496000B50769F781E08487DF91CF9108958F9231
:104970009F92AF92BF92CF92DF92EF920F931F93CD
:10498000CF93DF935C014B016A01122F452B19F481
:1049900080E090E052C062E170E081E090E00E942F
:1049A0003E5DEC01892BA1F30E94774E7F836E83DD
:1049B000B986A8861F87088BE98A8928D9F1BB8622
:1049C000AA86DE86CD868091C4159091C515019684
:1049D0009093C5158093C415009731F481E090E061
:1049E0009093C5158093C4159D838C830E811F8180
:1049F0008EEB95E10E946626FC01892B91F00A0D51
:104A00001B1D06C0CF010E94BF26FC01892B49F067
:104A10008681978120853185820F931F081719079A
:104A200088F7AE01BF018EEB95E10E948A268C814A
:104A30009D8103C01B861A86C4CFDF91CF911F9141
:104A40000F91EF90DF90CF90BF90AF909F908F909D
:104A50000895CF92DF92EF92FF920F931F93CF931F
:104A6000DF938EEB95E10E94ED257C01892B09F403
:104A70006DC00E94774E6B018EEB95E10E94662619
:104A80001E141F040CF062C0009709F45FC0EC0113
:104A900018C08E819F819601281B390B88859985C6
:104AA0002817390710F5CE010E94BF26EC010894A3
:104AB000E108F108E114F10409F448C0209709F471
:104AC00045C08C85882329F3CE010E94FC268C01E9
:104AD000BE018EEB95E10E94F125CE010E94FD5DA5
:104AE0000115110521F1E801DECFED85FE8549892B
:104AF00068898F8509952A853B852115310501F542
:104B0000CE010E94FC268C01BE018EEB95E10E9435
:104B1000F125CE010E94FD5D012BC1F48EEB95E1E4
:104B20000E946626BC01892B89F0EB01C0CF8EEB79
:104B300095E10E946626BC01892B41F0EB01B7CFBD
:104B40008E819F81820F931F9F838E83DF91CF91F0
:104B50001F910F91FF90EF90DF90CF9008950895EF
:104B6000FC01118210821382128215821482089530
:104B7000CF93DF93EC01AB01FB016481758161157B
:104B8000710541F12C813D812115310551F4DC0184
:104B900086E001900D928150E1F7CA010E94B02594
:104BA00019C0AA81BB81FA018081918111969C93E1
:104BB0008E9380819181FC01B383A283FA0182816B
:104BC00093819B838A83260F371F3D832C83CA01E1
:104BD0000E94B025DF91CF910895FC0184819581D9
:104BE0000895CF93DF93EC01FB01A281B38110976D
:104BF00069F08081918111969C938E930190F08150
:104C0000E02D309761F0B383A2830BC08081918146
:104C1000998388830190F081E02D3097A1F7BB83C1
:104C2000AA838C819D8101979D838C83DF91CF9195
:104C300008950F931F93CF93DF938C01EA01A9018D
:104C4000FB01A281B381109719F188819981119696
:104C50009C938E93E881F981309719F1B383A283F5
:104C6000FA0171836083D383C283FB0113821282B2
:104C70001982188261157105C1F0FB0120E030E056
:104C80002F5F3F4F0190F081E02D3097C9F70FC0A3
:104C900088819981F80191838083E881F981309737
:104CA000E9F6F801B383A283DBCF20E030E0F8011E
:104CB00084819581821B930B95838483FA013583CC
:104CC0002483DF91CF911F910F910895FC01808182
:104CD00091810895CF93DF93FC01A081B18110975A
:104CE000A9F08D919C91119791838083CD91DC9156
:104CF0001197209741F01B821A8284819581019738
:104D00009583848303C013821282F7CFCD01DF9194
:104D1000CF910895CF93DF939C01EB01DA01672BCC
:104D200051F08881998159834883009759F0FC019B
:104D3000B383A2830AC0FC018081918151834083A7
:104D40000097A9F7F901B383A28311969C938E93E0
:104D5000FD01D383C283F9018481958101969583F6
:104D60008483DF91CF910895FC01AB01628173814F
:104D70000E948A260895FC01828193810895FC0196
:104D8000808191810895FC01161617061CF0E0E061
:104D9000F0E030C02481358126173707C4F3C901FC
:104DA00095958795681779078CF40190F081E02D2F
:104DB000CB01019718161906ECF40190F081E02D53
:104DC0006150704061307105C1F714C0621B730BF4
:104DD0000280F381E02D77FF0DC020E030E0709578
:104DE00061957F4F0280F381E02D2F5F3F4F2617A3
:104DF0003707C1F7CF010895FC018281938108959F
:104E0000FC019B0177FD1AC016161706DCF480E042
:104E100090E00CC02115310519F00190F081E02DD2
:104E2000309781F001968617970761F037FFF2CF30
:104E30000280F381E02D3097A9F704C07095619549
:104E40007F4FE2CFCF0108950F931F93CF93DF934E
:104E50008B010E946626009771F08017910771F010
:104E6000C1E0D0E004C021960817190749F00E945C
:104E7000BF260097C1F7CFEFDFEF02C0C1E0D0E05F
:104E8000CE01DF91CF911F910F9108950F931F9342
:104E9000CF93DF93EC018C819D811816190694F451
:104EA000E881F981309741F000811181CF010E94A2
:104EB000FD5DF801012BC1F71D821C821B821A8245
:104EC00019821882DF91CF911F910F910895FC01F3
:104ED000AFEFB2E184E10D9001928150E1F70895C6
:104EE000CF93DF93CDB7DEB724970FB6F894DEBF2C
:104EF0000FBECDBF85B1806F85B985B1876485B997
:104F000084B1876484B923988BB18C628BB98CE2AD
:104F10008AB98EB182638EB98EB187778EB98DB121
:104F20008A6B8DB96A9884B3886184BB83B38861C6
:104F300083BB8998819A109275008CEC80937400E1
:104F40002E9884E690E0A0E0B0E089839A83AB835A
:104F5000BC8389819A81AB81BC810197A109B10988
:104F600089839A83AB83BC8389819A81AB81BC811D
:104F70008F5F9F4FAF4FBF4F61F72E9A779A80EAAE
:104F80009FE0A0E0B0E089839A83AB83BC838981F2
:104F90009A81AB81BC810197A109B10989839A8368
:104FA000AB83BC8389819A81AB81BC818F5F9F4F2A
:104FB000AF4FBF4F61F7779881E090E024960FB62E
:104FC000F894DEBF0FBECDBFDF91CF910895209141
:104FD0007D1A30917E1A40917F1A5091801A2F3F8E
:104FE0008FEF38078FEF48078FEF580709F447C056
:104FF00081E090E0A0E0B0E08093791A90937A1A73
:10500000A0937B1AB0937C1A52FD2AC053FD14C0A2
:1050100051FF3DC08091791A90917A1AA0917B1A24
:10502000B0917C1A80618093791A90937A1AA09338
:105030007B1AB0937C1A2BC08091791A90917A1ABE
:10504000A0917B1AB0917C1A84608093791A909316
:105050007A1AA0937B1AB0937C1A51FDDBCF17C04C
:1050600083E090E0A0E0B0E08093791A90937A1A00
:10507000A0937B1AB0937C1A53FFCACFDDCF109256
:10508000791A10927A1A10927B1A10927C1A80E088
:1050900090E0089581E090E00895982F8091E015C8
:1050A000823061F08330A1F0811108956093771A06
:1050B00082E08093E0159093071C08958091761A02
:1050C00081FF0FC01092E01589E08093071C0895BE
:1050D0008091761A81FD0FC01092E0151092071C86
:1050E00008958091731A813069F74093771A83E0AD
:1050F0008093E01508956093771A82E08093E0151D
:1051000008958F929F92AF92BF92CF92EF920F939A
:105110004B015C018091D515813009F441C081308B
:10512000B0F41092D51A1092D61A1092D71A109283
:10513000D81AE092771A8092D1159092D215A09247
:10514000D315B092D41581E08093D51557C0823025
:1051500009F44BC0833009F051C08091761A81FD6B
:1051600027C08091731A8017D9F51092D515209514
:105170003095409550958091791A90917A1AA09126
:105180007B1AB0917C1A82239323A423B5238093A6
:10519000791A90937A1AA0937B1AB0937C1A2EC036
:1051A0008091761A81FD07C08091731A081719F152
:1051B0001092D51523C08091D1159091D215A09150
:1051C000D315B091D415881A990AAA0ABB0A85EF9B
:1051D000881681E0980680E0A80680E0B80670F0A6
:1051E0001092D5150E94E72709C0C092771A83E074
:1051F0008093D51503C082E08093D5150F91EF9071
:10520000CF90BF90AF909F908F900895EF92FF92B4
:105210000F931F937B018C010E9483248FEFE8166C
:105220008FEFF8068FEF08078FEF180759F0EE247D
:1052300000E02DE047E259E261E070E084E190E0B7
:105240000E94B7241F910F91FF90EF900895DF9275
:10525000EF92FF920F931F93CF93DF93CDB7DEB7FB
:1052600026970FB6F894DEBF0FBECDBF8091CB1549
:10527000882349F48DE08093071C82E08093CB154E
:105280001092771AC0C0823009F0BDC01092CB15C1
:105290008091761A81FD80C08091721A83FD7CC056
:1052A00080917D1A90917E1AA0917F1AB091801AF8
:1052B000B3FF76C09091741A94FF07C08091831752
:1052C000882319F484E08093071C192F11708091B2
:1052D0007917181729F19E012F5F3F4FAE014D5FDF
:1052E0005F4F60E070E080E090E00E94ED05109379
:1052F000791782E080937B178B819C81AD81BE8181
:1053000080937C1790937D17A0937E17B0937F179F
:1053100089819A8190938117809380179091741A54
:1053200024E0E22EF12C03E817E1892F99270E2CB7
:1053300002C0959587950A94E2F791E0D92ED8227C
:10534000F8018081D816E1F09E012F5F3F4FAE013A
:105350004D5F5F4F60E070E080E090E00E94ED05FF
:10536000F801D08282E082838B819C81AD81BE81F5
:1053700083839483A583B68389819A819087878369
:105380000894E11CF11C065F1F4FF8E0EF16F104D2
:1053900039F09091741AC9CF89E08093071C33C00B
:1053A0008091071C8D3079F580917D1A90917E1A3D
:1053B000A0917F1AB091801AB1FF08C08091741A31
:1053C00083FF04C086E08093071C1DC08091751A7E
:1053D000992780FF04C082E08093071C14C081FFDE
:1053E00004C083E08093071C0EC082FF04C085E0E8
:1053F0008093071C08C083FF04C087E08093071CCC
:1054000002C01092071C26960FB6F894DEBF0FBE9E
:10541000CDBFDF91CF911F910F91FF90EF90DF9063
:105420000895FC018081813019F080E090E00895BA
:1054300021819281213061F02330B9F78091091CDC
:10544000981799F782E08093081C81E090E0089516
:10545000933058F78091711A8230B9F39093091CF8
:105460002093081C0E94774E6093031C7093041CC9
:105470008093051C9093061C81E090E00895EF92C4
:10548000FF920F931F93CF93DF93EC018881869552
:105490008695823019F080E090E03EC099818A8143
:1054A000843088F497FD18C09927019621E030E0F8
:1054B00002C0220F331F8A95E2F720958091C51F05
:1054C00082238093C51F87E090E00E94D73D813002
:1054D000B9F081E090E020C09927019621E030E00A
:1054E00002C0220F331F8A95E2F78091C51F822BDD
:1054F0008093C51F87E090E00E94D73D813049F737
:10550000EE24FF24870127E043E050E060E070E0F4
:10551000CE010E949B3EDDCFDF91CF911F910F9175
:10552000FF90EF90089581E00E94B80381E090E041
:1055300008950F931F93CF93DF93EC018901232BE1
:1055400041F1299126952695CE012930C1F02A30C6
:10555000D9F0222329F0223049F180E090E034C0D4
:1055600021E73AE10E941005813011F099272CC003
:10557000F80180818F5F808381E090E025C021E782
:105580003AE10E94E203F0CF21E73AE10E94B00441
:10559000EBCF21E73AE10E94880D982F888188237C
:1055A00011F4913041F0892F99270EC021E73AE19B
:1055B0000E947805D9CF8091711A8130E9F683E095
:1055C0008093711A81E090E0DF91CF911F910F914C
:1055D000089583E08093711A8FEF8093731A10926D
:1055E000721A8093771A1092B11D1092B01D10920A
:1055F000B21D1092B31D1092B51D1092B41D1092E1
:10560000BC1D81E090E0A0E0B0E08093E11A9093AF
:10561000E21AA093E31AB093E41A8093E51A9093E8
:10562000E61AA093E71AB093E81A8093E91A9093C8
:10563000EA1AA093EB1AB093EC1A8093ED1A9093A8
:10564000EE1AA093EF1AB093F01A8093F11A909388
:10565000F21AA093F31AB093F41A8093F51A909368
:10566000F61AA093F71AB093F81A60E070E080E0A1
:1056700090E00E940B03882319F480E090E00895E5
:105680000E94622490E0882309F491E081E0982749
:10569000892F992708950E94A9010E943F2381E044
:1056A00090E008956F927F928F929F92AF92BF92F7
:1056B000CF92DF92EF92FF920F931F93CF93DF93DE
:1056C000CDB7DEB7C050D1400FB6F894DEBF0FBEE5
:1056D000CDBF7C016B0159014E010894811C911CC6
:1056E0009C01220F331F880F991F880F991F880F65
:1056F000991F280F391FD901A058B84EFD0181818B
:1057000089838C91F4018183F901E458F84E8381F7
:105710008B8382818C8381818D8380818E831F82A4
:1057200018866E2C0E2D1127C016D1060CF4A4C0BD
:105730007E2D980168E0C901880F991F880F991F75
:10574000880F991FD901AA0FBB1FA80FB91FA7580F
:10575000B84EFD018281882379F08F818F5F8F831E
:10576000F401E60FF11D7083962F9F5FF401E90F9E
:10577000F11D8C9180836E5F7F5F272F3327C216C8
:10578000D306CCF6742EE42EFF24AE14BF04E4F14D
:105790009701F901EE0FFF1FC901880F991F880FAC
:1057A000991F880F991FE80FF91FE20FF31FEA53A3
:1057B000F04E8181882311F188858F5F8887F401FD
:1057C000E60FF11D40836F5FD401A60FB11D242F9A
:1057D0003327220F331F220F331F265B334EF9016D
:1057E00080818C938181FD018183F9018281FD019A
:1057F0008283F9018381FD0183836C5F4F5F242FD6
:105800003327A216B3062CF643E0C4010E94883F5A
:105810009C01019799F512C0C801880F991F880F44
:10582000991F880F991F000F111F080F191F075884
:10583000184EF80112826394062D1127C016D10666
:105840005CF7AE14BF04D4F0F701EE0FFF1FC701E1
:10585000880F991F880F991F880F991FE80FF91F4C
:10586000EE0DFF1DEA53F04E11827394E72CFF24D6
:10587000AE14BF044CF702C068E084CFC901C05029
:10588000DF4F0FB6F894DEBF0FBECDBFDF91CF91D3
:105890001F910F91FF90EF90DF90CF90BF90AF904E
:1058A0009F908F907F906F9008958F929F92AF926C
:1058B000BF92CF92DF92EF92FF920F931F93CF93FD
:1058C000DF93CDB7DEB724970FB6F894DEBF0FBED7
:1058D000CDBFD82E80911313882309F08CC00E946D
:1058E000774E9B01AC018091CC159091CD15A09184
:1058F000CE15B091CF15281739074A075B0761F01D
:105900002093CC153093CD154093CE155093CF15E1
:1059100024E0D21609F4E1C080911513D81609F4D9
:1059200075C00091711AD0921513009314130130B1
:1059300009F47AC08D2D8550833060F561E088E0F0
:105940000E94A34E31E0D31661F10E94774E4B01C5
:105950005C018091771A8F3F09F03FC02091711A46
:10596000223009F4E8C0233008F0CCC0222309F427
:1059700004C1213009F4B3C11092711A71E0D71635
:10598000A9F5D092F1158091D41681608F7E809315
:10599000D416B9C660E088E00E94A34E31E0D31669
:1059A000A1F62FEF3FEF4FEF5FEF20937D1A30937B
:1059B0007E1A40937F1A5093801A1092FF1B109208
:1059C000001C1092011C1092021C0E94774E4B0189
:1059D0005C018091771A8F3F09F2B501A40181E73C
:1059E0009AE10E941B1B71E0D71659F284E0D81689
:1059F00009F089C62FC0109213130E9420110E9433
:105A0000DC100E94A1100E94661069CF0091711AEB
:105A100080911413081709F495CFD09215130093B1
:105A20001413013009F086CF8D2D8350833008F098
:105A300081CF20917D1A30917E1A40917F1A50912A
:105A4000801A50FD39C152FD2CC153FF73CF0E9403
:105A50008D0370CF8091F115882309F05FC02091EC
:105A6000711A9091F015291741F0213009F42FC1D6
:105A7000913009F481C12093F0158091EE15909139
:105A8000EF15892B59F01092D5161092D616109258
:105A9000EF151092EE1581E08093F115213009F099
:105AA00032C680917D1A90917E1AA0917F1AB09192
:105AB000801AB0FF0DC08091721A80FF8AC1809158
:105AC000D41684FD05C080618093D4162093F1150F
:105AD00081E79AE10E94370716C66091932870917A
