:100000000C944A000C9469000C9469000C946900EB
:100010000C9469000C9469000C9469000C946900BC
:100020000C9469000C9469000C9469000C946900AC
:100030000C9469000C9469000C9469000C9469009C
:100040000C9469000C9469000C94051B0C946900D5
:100050000C9448260C9469000C9469000C94690077
:100060000C9469000C9469000C9469000C9469006C
:100070000C9469000C9469000C9469000C9469005C
:100080000C9469000C9469000C9469000C9433245E
:100090000C94690011241FBECFEFD0E1DEBFCDBFAD
:1000A00011E0A0E0B1E0ECEBF0E600E00BBF02C035
:1000B00007900D92A030B107D9F71CE0A0E0B1E0A5
:1000C00001C01D92A23EB107E1F70E94E31B0C9410
:1000D0005D300C940000CF93DF93CDB7DEB725974A
:1000E0000FB6F894DEBF0FBECDBF8B831A828B8113
:1000F000282F33273D832C838C819D81833091056C
:1001000091F12C813D81243031057CF48C819D81DD
:100110008130910511F12C813D812230310504F5AA
:100120008C819D810097B1F02DC02C813D812530BF
:100130003105F9F08C819D8185309105BCF02C81D1
:100140003D8126303105C1F08C819D81873091053C
:10015000B1F018C08AE0898317C08AE1898314C08E
:100160008AE2898311C08AE389830EC08AE4898385
:100170000BC08AE5898308C08AE6898305C08AE7BF
:10018000898302C08AE0898389818A8382E08A83A5
:1001900083E28A8380EC8A8325960FB6F894DEBFCB
:1001A0000FBECDBFDF91CF910895CF93DF93CDB731
:1001B000DEB7DF91CF910895CF93DF93CDB7DEB750
:1001C00027970FB6F894DEBF0FBECDBF8D831C827C
:1001D0001B828D81282F33273F832E838E819F8121
:1001E0008330910591F12E813F81243031057CF4DB
:1001F0008E819F818130910511F12E813F812230C6
:10020000310504F58E819F810097B1F02DC02E81BC
:100210003F8125303105F9F08E819F818530910530
:10022000BCF02E813F8126303105C1F08E819F8147
:1002300087309105B1F018C08AE089831DC08AE13A
:1002400089831AC08AE2898317C08AE3898314C02C
:100250008AE4898311C08AE589830EC08AE689838E
:100260000BC08AE7898308C08AE0898305C08B8137
:100270009C8101969C838B838B819C8123E0883EAB
:100280009207A8F381E08A831C821B8205C08B81C0
:100290009C8101969C838B838B819C81843091050A
:1002A000B0F327960FB6F894DEBF0FBECDBFDF9137
:1002B000CF910895CF93DF93CDB7DEB725970FB6D3
:1002C000F894DEBF0FBECDBF8A836B834C832D8332
:1002D000198267C08981482F5527CA01880F991F45
:1002E0009C01220F331F220F331F820F931F840F95
:1002F000951FFC01E056FA4F8A8180838981482F3F
:100300005527CA01880F991F9C01220F331F220F06
:10031000331F820F931F840F951FFC01EF55FA4F77
:100320008B8180838981482F5527CA01880F991FA7
:100330009C01220F331F220F331F820F931F840F44
:10034000951FFC01EE55FA4F8C8180838981482FDF
:100350005527CA01880F991F9C01220F331F220FB6
:10036000331F820F931F840F951FFC01ED55FA4F29
:100370008D8180838981482F5527CA01880F991F55
:100380009C01220F331F220F331F820F931F840FF4
:10039000951FFC01EC55FA4F8981808389818F5F1D
:1003A00089838981883008F495CF25960FB6F89413
:1003B000DEBF0FBECDBFDF91CF9108950F93CF93D6
:1003C000DF93CDB7DEB725970FB6F894DEBF0FBE2B
:1003D000CDBF89836A834B832C830D838D81482F06
:1003E0005527CA01880F991F9C01220F331F220F26
:1003F000331F820F931F840F951FFC01E056FA4FA5
:10040000898180838D81482F5527CA01880F991FC4
:100410009C01220F331F220F331F820F931F840F63
:10042000951FFC01EF55FA4F8A8180838D81482FFB
:100430005527CA01880F991F9C01220F331F220FD5
:10044000331F820F931F840F951FFC01EE55FA4F47
:100450008B8180838D81482F5527CA01880F991F72
:100460009C01220F331F220F331F820F931F840F13
:10047000951FFC01ED55FA4F8C8180838D81482FAB
:100480005527CA01880F991F9C01220F331F220F85
:10049000331F820F931F840F951FFC01EC55FA4FF9
:1004A0008D81808325960FB6F894DEBF0FBECDBF39
:1004B000DF91CF910F910895EF92FF920F931F93C9
:1004C000CF93DF93CDB7DEB725970FB6F894DEBF95
:1004D0000FBECDBFF89480E091E09D838C831B829A
:1004E0001A82198289C11B827CC019826EC08A81DE
:1004F000482F55278B81682F7727CA01880F991FAE
:100500009C01220F331F220F331F820F931F840F72
:10051000951F860F971FFC01E656FA4F20818C81AC
:100520009D81622F0E94B30B8A81082F11278B8136
:10053000E82EFF248C819D810E948C0B482FC801DE
:10054000880F991F9C01220F331F220F331F820F28
:10055000931F800F911F8E0D9F1DFC01E85BF64FCE
:1005600040838A81482F55278B81682F7727CA01BE
:10057000880F991F9C01220F331F220F331F820FF8
:10058000931F840F951F860F971FFC01E85BF64FA2
:10059000A0818A81482F55278B81682F7727CA0130
:1005A000880F991F9C01220F331F220F331F820FC8
:1005B000931F840F951F860F971FFC01E656FA4F75
:1005C0008081A81711F481E089838981882309F447
:1005D0008ECF8C819D8101969D838C838B818F5FD3
:1005E0008B838B81833008F480CF1B827CC019827F
:1005F0006EC08A81482F55278B81682F7727CA01C3
:10060000880F991F9C01220F331F220F331F820F67
:10061000931F840F951F860F971FFC01E356FA4F17
:1006200020818C819D81622F0E94B30B8A81082FCB
:1006300011278B81E82EFF248C819D810E948C0BD9
:10064000482FC801880F991F9C01220F331F220FCA
:10065000331F820F931F800F911F8E0D9F1DFC0172
:10066000E55BF64F40838A81482F55278B81682FA1
:100670007727CA01880F991F9C01220F331F220F71
:10068000331F820F931F840F951F860F971FFC0146
:10069000E55BF64FA0818A81482F55278B81682F13
:1006A0007727CA01880F991F9C01220F331F220F41
:1006B000331F820F931F840F951F860F971FFC0116
:1006C000E356FA4F8081A81711F481E0898389816C
:1006D000882309F48ECF8C819D8101969D838C8324
:1006E0008B818F5F8B838B81833008F480CF1B825B
:1006F0007CC019826EC08A81482F55278B81682F54
:100700007727CA01880F991F9C01220F331F220FE0
:10071000331F820F931F840F951F860F971FFC01B5
:10072000E056FA4F20818C819D81622F0E94B30B8D
:100730008A81082F11278B81E82EFF248C819D81CF
:100740000E948C0B482FC801880F991F9C01220F13
:10075000331F220F331F820F931F800F911F8E0DA7
:100760009F1DFC01E25BF64F40838A81482F55278D
:100770008B81682F7727CA01880F991F9C01220F50
:10078000331F220F331F820F931F840F951F860F75
:10079000971FFC01E25BF64FA0818A81482F552705
:1007A0008B81682F7727CA01880F991F9C01220F20
:1007B000331F220F331F820F931F840F951F860F45
:1007C000971FFC01E056FA4F8081A81711F481E0D1
:1007D00089838981882309F48ECF8C819D8101963C
:1007E0009D838C838B818F5F8B838B81853008F415
:1007F00080CF8A818F5F8A838A81883008F473CEA4
:1008000078948981992725960FB6F894DEBF0FBE9C
:10081000CDBFDF91CF911F910F91FF90EF90089581
:10082000CF93DF93CDB7DEB726970FB6F894DEBF30
:100830000FBECDBF88E591E09E838D831C82198217
:1008400081E0898389810E9447048B831C8210C0C8
:100850008D819E816B810E94B30B8D819E810E9450
:100860008C0B8A839A818B81981711F481E08C8399
:100870008C81882369F378948C81992726960FB60A
:10088000F894DEBF0FBECDBFDF91CF910895CF9317
:10089000DF93CDB7DEB729970FB6F894DEBF0FBE52
:1008A000CDBF898718861F821D821A82198280E037
:1008B00091E09A8389838985282F332788E590E002
:1008C000AC01249FC001259F900D349F900D1124F1
:1008D000019798878F8389819A810E948C0B8E83E0
:1008E00089819A8101969A8389831C821B8213C015
:1008F00089819A810E948C0B8D839E818D818927AD
:100900008E8389819A8101969A8389838B819C81C8
:1009100001969C838B832B813C818F81988528173E
:10092000390730F38E81992729960FB6F894DEBFE8
:100930000FBECDBFDF91CF910895EF92FF920F933D
:100940001F93CF93DF93CDB7DEB728970FB6F894F8
:10095000DEBF0FBECDBF80E091E098878F831C8201
:100960001B8219828CC01E821D8225C00B811C81B6
:10097000ED80FE808F8198850E948C0B482FC801E6
:10098000880F991F9C01220F331F220F331F820FE4
:10099000931F800F911F8E0D9F1DFC01E85BF64F8A
:1009A00040838F819885019698878F838D819E8162
:1009B00001969E838D838D819E8183309105B0F257
:1009C0001E821D8225C00B811C81ED80FE808F81DF
:1009D00098850E948C0B482FC801880F991F9C0195
:1009E000220F331F220F331F820F931F800F911F7F
:1009F0008E0D9F1DFC01E55BF64F40838F8198852E
:100A0000019698878F838D819E8101969E838D8329
:100A10008D819E8183309105B0F21E821D8225C09A
:100A20000B811C81ED80FE808F8198850E948C0B4C
:100A3000482FC801880F991F9C01220F331F220FD6
:100A4000331F820F931F800F911F8E0D9F1DFC017E
:100A5000E25BF64F40838F819885019698878F835C
:100A60008D819E8101969E838D838D819E818530AF
:100A70009105B0F28B819C8101969C838B838B8145
:100A80009C818830910508F46ECF1C821B828AE01D
:100A90008A831AC08A81805F8A8382E0898383E2A5
:100AA000898380EC89838B819C8101969C838B83D5
:100AB0008AE089838BE089838CE089838DE0898358
:100AC0008EE089838FE089838B819C8188309105BA
:100AD00008F328960FB6F894DEBF0FBECDBFDF91A6
:100AE000CF911F910F91FF90EF900895EF92FF9299
:100AF0000F931F93CF93DF93CDB7DEB7C55DD04083
:100B00000FB6F894DEBF0FBECDBFF8941D821C82D5
:100B1000198281C01B8278C019826AC08B81282FFC
:100B200033278A81482F5527C901880F991F820FC3
:100B3000931F880F991F880F991F840F951FFC0121
:100B4000E555F64F20818C819D81622F0E94B30B69
:100B50008B81082F11278A81E82EFF248C819D81AB
:100B60000E948C0B482FC801880F991F800F911F7E
:100B70009C01220F331F220F331FCE010196820FDB
:100B8000931F8E0D9F1DFC01359640838B81282F6E
:100B900033278A81482F5527C901880F991F820F53
:100BA000931F9C01220F331F220F331FCE0101968A
:100BB000820F931F840F951FFC01359660818B81F6
:100BC000282F33278A81482F5527C901880F991F5D
:100BD000820F931F880F991F880F991F840F951FED
:100BE000FC01E555F64F8081681711F481E0898397
:100BF0008981882309F492CF8C819D8101969D8300
:100C00008C838B818F5F8B838B818C3008F484CFB6
:100C10008A818F5F8A838A81813108F47BCF1B822E
:100C20001A823BC019822EC08B819927FC01E9589A
:100C3000F54F20818C819D81622F0E94B30B8B81A7
:100C4000082F11278C819D810E948C0B282FCE01AB
:100C50008E529F4FFC01E00FF11F20838B81282FC4
:100C60003327CE018E529F4FFC01E20FF31F2081EC
:100C70008B819927FC01E958F54F8081281711F4E1
:100C800081E089838981882379F28C819D81019615
:100C90009D838C838B818F5F8B838B81843010F25B
:100CA00078941B82CB52DF4F0FB6F894DEBF0FBE95
:100CB000CDBFDF91CF911F910F91FF90EF900895DD
:100CC000CF93DF93CDB7DEB760970FB6F894DEBF52
:100CD0000FBECDBF8E87198281E08C878E85282F2D
:100CE0003327388B2F878F8598898330910509F4B6
:100CF00041C02F853889243031057CF48F8598894F
:100D00008130910539F12F8538892230310554F52C
:100D10008F8598890097B1F055C02F853889253087
:100D20003105C1F18F859889853091055CF12F855A
:100D3000388926303105B1F18F8598898730910542
:100D4000C9F140C08D858A3019F481E08A873BC0A3
:100D50001A8639C08D858A3119F481E08A8733C0BB
:100D60001A8631C08D858A3219F481E08A872BC0BA
:100D70001A8629C08D858A3319F481E08A8723C0B9
:100D80001A8621C08D858A3419F481E08A871BC0B8
:100D90001A8619C08D858A3519F481E08A8713C0B7
:100DA0001A8611C08D858A3619F481E08A870BC0B6
:100DB0001A8609C08D858A3719F481E08A8703C0B5
:100DC0001A8601C01A8682E08C878D8587708D8790
:100DD0008D85833019F481E0898701C0198688E008
:100DE0008C878D85803C19F481E0888701C0188646
:100DF00089E08C878D85833219F481E08F8301C06F
:100E00001F828AE08C878E85482F5527CA01880F5C
:100E1000991F9C01220F331F220F331F820F931F34
:100E2000840F951FFC01E656FA4F90818D85981727
:100E300019F481E08E8301C01E828BE08C878E8541
:100E4000482F5527CA01880F991F9C01220F331F75
:100E5000220F331F820F931F840F951FFC01E5564D
:100E6000FA4F90818D85981719F481E08D8301C028
:100E70001D828CE08C878E85482F5527CA01880FEC
:100E8000991F9C01220F331F220F331F820F931FC4
:100E9000840F951FFC01E456FA4F90818D859817B9
:100EA00019F481E08C8301C01C828DE08C878E85D3
:100EB000482F5527CA01880F991F9C01220F331F05
:100EC000220F331F820F931F840F951FFC01E356DF
:100ED000FA4F90818D85981719F481E08B8301C0BA
:100EE0001B828EE08C878E85482F5527CA01880F7C
:100EF000991F9C01220F331F220F331F820F931F54
:100F0000840F951FFC01E256FA4F90818D8598174A
:100F100019F481E08A8301C01A828FE08C878E8564
:100F2000482F5527CA01880F991F9C01220F331F94
:100F3000220F331F820F931F840F951FFC01E15670
:100F4000FA4F90818D85981719F481E0898301C04B
:100F500019828A858130F1F489858130D9F48885B8
:100F60008130C1F48F818130A9F48E81813091F478
:100F70008D81813079F48C81813061F48B81813075
:100F800049F48A81813031F48981813019F481E01A
:100F90008B8701C01B868B85992760960FB6F894C6
:100FA000DEBF0FBECDBFDF91CF910895CF93DF930A
:100FB000CDB7DEB722970FB6F894DEBF0FBECDBF18
:100FC00089836A83AAE2B0E0EAE2F0E080818F7B65
:100FD0008C93AAE2B0E0EAE2F0E080818F7D8C930E
:100FE000ABE2B0E0EBE2F0E0808180648C93ABE2B6
:100FF000B0E0EBE2F0E0808180628C93E8EDF0E01D
:1010000081E080830E94D816EBEDF0E01082EDEED7
:10101000F0E080E38083E0EFF0E01082E1EFF0E0C9
:101020001082E2EFF0E08A8187708295880F807EDF
:101030008083E3EFF0E08A819927887F907095950F
:10104000879595958795959587958083A3EFB0E0D3
:10105000E3EFF0E08081282F8981992787709070D5
:10106000880F991F82959295907F9827807F982767
:10107000822B8C93E4EFF0E01082E5EFF0E0108239
:10108000E6EFF0E080EE8083E7EFF0E08FEF808323
:10109000EFEEF0E088E88083EDEEF0E01082E0EF24
:1010A000F0E01082E1EFF0E01082E2EFF0E080E2A9
:1010B0008083E3EFF0E01082E4EFF0E01082E5EFF0
:1010C000F0E01082E6EFF0E080ED8083E7EFF0E003
:1010D0008FEF8083EFEEF0E080E88083E2EEF0E0D7
:1010E0001082E3EEF0E086E08083E4EEF0E085E15C
:1010F0008083A5EEB0E0E2EEF0E080818C93EBED32
:10110000F0E08EEF8083EEEDF0E08FE08083EFED96
:10111000F0E01082E8EDF0E080E28083A8EDB0E03E
:10112000E8EDF0E0808182608C9322960FB6F8940F
:10113000DEBF0FBECDBFDF91CF910895CF93DF9378
:10114000CDB7DEB7E1E2F0E08FEF8083E2E2F0E0DE
:101150008FEF8083E4E2F0E08FE78083E5E2F0E068
:101160008FEF8083E7E2F0E08FEF8083E8E2F0E04A
:101170008FEF8083AAE2B0E0EAE2F0E0808188614C
:101180008C93ABE2B0E0EBE2F0E08081806E8C9378
:10119000EDE2F0E08AEB8083EEE2F0E08FEF808317
:1011A000E0E3F0E082E08083E1E3F0E08FEF808332
:1011B000E3E3F0E08FE18083E4E3F0E08FE180831C
:1011C000DF91CF910895CF93DF93CDB7DEB7109223
:1011D0009A0510929B0510929C051092A5051092FD
:1011E000A6051092A7051092B0051092B1051092B5
:1011F000B2051092BB051092BC051092BD0510926D
:10120000C6051092C7051092C8051092D10510921C
:10121000D2051092D3051092DC051092DD051092D4
:10122000DE051092E7051092E8051092E90510928C
:101230009D0510929E0510929F051092A805109290
:10124000A9051092AA051092B3051092B405109248
:10125000B5051092BE051092BF051092C005109200
:10126000C9051092CA051092CB051092D4051092B0
:10127000D5051092D6051092DF051092E005109268
:10128000E1051092EA051092EB051092EC05109220
:10129000A0051092A1051092A2051092A30510922C
:1012A000A4051092AB051092AC051092AD051092FA
:1012B000AE051092AF051092B6051092B7051092C8
:1012C000B8051092B9051092BA051092C105109296
:1012D000C2051092C3051092C4051092C505109264
:1012E000CC051092CD051092CE051092CF0510922C
:1012F000D005DF91CF910895CF93DF93CDB7DEB7BF
:1013000028970FB6F894DEBF0FBECDBF1D821E8298
:101310001F8218861C821B821A82198280E091E14A
:101320009C838B834FC01A8227C08A81282F332742
:101330008B819C81820F931FFC018A8180838A812B
:10134000282F33278B819C81820F931FFC01808182
:10135000898399818A81981709F40BC08D819E81B8
:10136000AF81B8850196A11DB11D8D839E83AF838A
:10137000B8878A818F5F8A838A818F3FB1F68B819C
:101380009C8181509F4FFC018FEF80838B819C81DA
:1013900081509F4FFC018081898389818F3F09F4AF
:1013A0000BC08D819E81AF81B8850196A11DB11DB5
:1013B0008D839E83AF83B8878B819C8180509F4FA4
:1013C0009C838B838B819C8199230CF0ACCF80E034
:1013D00091E19C838B833EC01A821DC08A81282F95
:1013E00033278B819C81820F931FFC01808189832D
:1013F00099818A81981709F40BC08D819E81AF81F4
:10140000B8850196A11DB11D8D839E83AF83B887DA
:101410008A818F5F8A838A818F3F01F78B819C81CC
:1014200081509F4FFC018081898389818F3F09F41E
:101430000BC08D819E81AF81B8850196A11DB11D24
:101440008D839E83AF83B8878B819C8180509F4F13
:101450009C838B838B819C8199230CF0BDCF80E092
:1014600091E19C838B8352C01A8225C08A81282FE8
:1014700033278B819C81820F931FFC0110828A810C
:10148000282F33278B819C81820F931FFC01808141
:1014900089838981882309F40BC08D819E81AF8166
:1014A000B8850196A11DB11D8D839E83AF83B8873A
:1014B0008A818F5F8A838A818F3FC1F68A81282F34
:1014C00033278B819C81820F931FFC0110828A81BC
:1014D000282F33278B819C81820F931FFC018081F1
:1014E00089838981882309F40BC08D819E81AF8116
:1014F000B8850196A11DB11D8D839E83AF83B887EA
:101500008B819C8180509F4F9C838B838B819C819E
:1015100099230CF0A9CF80E091E19C838B8340C09C
:101520001A821CC08A81282F33278B819C81820FCD
:10153000931FFC01808189838981882309F40BC072
:101540008D819E81AF81B8850196A11DB11D8D83CE
:101550009E83AF83B8878A818F5F8A838A818F3F1A
:1015600009F78A81282F33278B819C81820F931F53
:10157000FC01808189838981882309F40BC08D81D6
:101580009E81AF81B8850196A11DB11D8D839E837B
:10159000AF83B8878B819C8180509F4F9C838B83C6
:1015A0008B819C8199230CF0BBCF80E091E19C83DF
:1015B0008B8354C01A8226C08A81282F33278B81BF
:1015C0009C81820F931FFC018FEF80838A81282FDB
:1015D00033278B819C81820F931FFC01808189833B
:1015E00089818F3F09F40BC08D819E81AF81B885C1
:1015F0000196A11DB11D8D839E83AF83B8878A811B
:101600008F5F8A838A818F3FB9F68A81282F33279B
:101610008B819C81820F931FFC018FEF80838A81D5
:10162000282F33278B819C81820F931FFC0180819F
:10163000898389818F3F09F40BC08D819E81AF81A1
:10164000B8850196A11DB11D8D839E83AF83B88798
:101650008B819C8180509F4F9C838B838B819C814D
:1016600099230CF0A7CF80E091E19C838B8340C04D
:101670001A821CC08A81282F33278B819C81820F7C
:10168000931FFC018081898389818F3F09F40BC0FE
:101690008D819E81AF81B8850196A11DB11D8D837D
:1016A0009E83AF83B8878A818F5F8A838A818F3FC9
:1016B00009F78A81282F33278B819C81820F931F02
:1016C000FC018081898389818F3F09F40BC08D8162
:1016D0009E81AF81B8850196A11DB11D8D839E832A
:1016E000AF83B8878B819C8180509F4F9C838B8375
:1016F0008B819C8199230CF0BBCF8D819E81AF8122
:10170000B885BC01CD0128960FB6F894DEBF0FBE98
:10171000CDBFDF91CF910895CF93DF93CDB7DEB7E3
:1017200023970FB6F894DEBF0FBECDBF9B838A838D
:10173000EFE3F0E080819927827090700097C1F705
:101740008A819B81FC01E1BDF2BDF89A80B5898355
:101750008981992723960FB6F894DEBF0FBECDBFBF
:10176000DF91CF910895CF93DF93CDB7DEB7239765
:101770000FB6F894DEBF0FBECDBF9A8389836B830B
:10178000EFE3F0E080819927827090700097C1F7B5
:1017900089819A812B81FC01E1BDF2BD20BDFA9ABD
:1017A000F99A23960FB6F894DEBF0FBECDBFDF9136
:1017B000CF910895CF93DF93CDB7DEB726970FB6BD
:1017C000F894DEBF0FBECDBF9A8389837C836B8381
:1017D0005E834D8316C089819A810E948C0BEB81B8
:1017E000FC81808389819A8101969A8389838B8188
:1017F0009C8101969C838B838D819E8101979E8322
:101800008D838D819E81009731F726960FB6F894CF
:10181000DEBF0FBECDBFDF91CF910895CF93DF9391
:10182000CDB7DEB726970FB6F894DEBF0FBECDBF9B
:101830009A8389837C836B835E834D8317C0E981A0
:10184000FA8120818B819C81622F0E94B30B898158
:101850009A8101969A8389838B819C8101969C83CE
:101860008B838D819E8101979E838D838D819E8147
:10187000009729F726960FB6F894DEBF0FBECDBFAE
:10188000DF91CF910895CF93DF93CDB7DEB7229745
:101890000FB6F894DEBF0FBECDBF1A82198210C0FA
:1018A00089819A810E948C0B8F3F29F089819A81CE
:1018B0006FEF0E94B30B89819A8101969A83898385
:1018C00089819A8120E18030920750F322960FB6E9
:1018D000F894DEBF0FBECDBFDF91CF910895CF93B7
:1018E000DF93CDB7DEB723970FB6F894DEBF0FBEF8
:1018F000CDBF898389810E94BF17882319F41B8279
:101900001A820DC00E94D816A8EDB0E0E8EDF0E014
:10191000808182608C9381E090E09B838A838A81BE
:101920009B8123960FB6F894DEBF0FBECDBFDF912B
:10193000CF910895CF93DF93CDB7DEB72E970FB633
:10194000F894DEBF0FBECDBF9A878987E985FA85F7
:10195000818192818C30910501F5E985FA85828536
:101960008036B1F4ADEEB0E0E985FA8580818295EC
:10197000807F8C93AFEEB0E0EFEEF0E090818FE3EC
:1019800089238C93EEEEF0E01082E985FA851082CF
:10199000E985FA8512860C949A150E940B178C83A0
:1019A0008C818F3F11F40C949115E985FA8580E6BE
:1019B0008287E985FA858C818083EDEEF0E08C8169
:1019C0008295807F80838EEE90E09A83898308C021
:1019D000E981FA81108289819A8101969A838983AB
:1019E00089819A81883F910598F3E985FA8501807C
:1019F000F281E02DFE87ED878D859E8586309105ED
:101A000009F46BC38D859E858730910530F58D85F2
:101A10009E858330910509F4D8C18D859E858430DB
:101A2000910568F48D859E8581309105E9F18D855C
:101A30009E858230910509F404C10C948D158D8525
:101A40009E858430910509F46CC28D859E85853014
:101A5000910509F4CEC20C948D158D859E85893033
:101A6000910509F4A5C58D859E858A30910570F490
:101A70008D859E858730910509F4AAC38D859E8545
:101A80008830910509F496C40C948D158D859E853A
:101A90008A30910509F491C68D859E858B3091051C
:101AA00009F41EC70C948D15E985FA85838582702B
:101AB000882309F457C0A3EFB0E089859A8503967F
:101AC000FC0133968081282F220F220F220F898557
:101AD0009A850396FC01329680818295869587705F
:101AE000820F8C93A2EFB0E089859A850396FC0162
:101AF00032968081282F220F220F220F89859A8506
:101B00000396FC0131968081829586958770820FBD
:101B10008C93A1EFB0E089859A850396FC013196FC
:101B20008081282F220F220F220F89859A85039604
:101B3000FC018081829586958770820F8C93A0EF3F
:101B4000B0E089859A850396FC018081880F880F13
:101B5000880F8C93AFEEB0E0EFEEF0E08081806113
:101B60008C9328C0A3EFB0E089859A850396FC0189
:101B700031968081282F2295220F207E89859A8593
:101B80000396FC018081869586958695820F8C93BD
:101B9000A2EFB0E089859A850396FC018081829549
:101BA000880F807E8C93AFEEB0E0EFEEF0E08081A6
:101BB0008F7E8C931B8210C0AAEFB0E0E985FA8576
:101BC000208531858B819927F901E80FF91F8081E4
:101BD0008C938B818F5F8B83E985FA8597818B81CD
:101BE000891750F3E985FA8583858170882341F050
:101BF000A0EFB0E0E0EFF0E0808184608C9307C05C
:101C0000A0EFB0E0E0EFF0E080818B7F8C93AFEE4F
:101C1000B0E0EFEEF0E09081E985FA858781892BCD
:101C20008C93AFEEB0E0EFEEF0E090818FE389238C
:101C30008C93AFEEB0E0EFEEF0E0808180648C93A7
:101C400079C7E985FA8583858270882309F457C0AE
:101C5000A3EFB0E089859A850396FC0133968081D5
:101C6000282F220F220F220F89859A850396FC01C7
:101C700032968081829586958770820F8C93A2EF31
:101C8000B0E089859A850396FC0132968081282FE1
:101C9000220F220F220F89859A850396FC01319627
:101CA0008081829586958770820F8C93A1EFB0E03A
:101CB00089859A850396FC0131968081282F220F11
:101CC000220F220F89859A850396FC0180818295D7
:101CD00086958770820F8C93A0EFB0E089859A85F6
:101CE0000396FC018081880F880F880F8C93AFEEDC
:101CF000B0E0EFEEF0E0808180618C9328C0A3EF2C
:101D0000B0E089859A850396FC0131968081282F61
:101D10002295220F207E89859A850396FC01808179
:101D2000869586958695820F8C93A2EFB0E0898583
:101D30009A850396FC0180818295880F807E8C9322
:101D4000AFEEB0E0EFEEF0E080818F7E8C931B82EF
:101D500010C0AAEFB0E0E985FA85208531858B8136
:101D60009927F901E80FF91F80818C938B818F5F90
:101D70008B83E985FA8597818B81891750F3E985F3
:101D8000FA8583858E7F8387A0EFB0E0E0EFF0E0F7
:101D900080818B7F8C93AFEEB0E0EFEEF0E090812E
:101DA000E985FA858781892B8C93AFEEB0E0EFEE61
:101DB000F0E090818FE389238C93AFEEB0E0EFEEFB
:101DC000F0E0808180648C93B5C6E985FA858385CF
:101DD0008270882309F457C0A3EFB0E089859A8503
:101DE0000396FC0133968081282F220F220F220FA9
:101DF00089859A850396FC01329680818295869525
:101E00008770820F8C93A2EFB0E089859A85039644
:101E1000FC0132968081282F220F220F220F898504
:101E20009A850396FC01319680818295869587700C
:101E3000820F8C93A1EFB0E089859A850396FC010F
:101E400031968081282F220F220F220F89859A85B3
:101E50000396FC018081829586958770820F8C9312
:101E6000A0EFB0E089859A850396FC018081880FF8
:101E7000880F880F8C93AFEEB0E0EFEEF0E080813A
:101E800080618C9328C0A3EFB0E089859A85039682
:101E9000FC0131968081282F2295220F207E898592
:101EA0009A850396FC018081869586958695820F9A
:101EB0008C93A2EFB0E089859A850396FC0180811E
:101EC0008295880F807E8C93AFEEB0E0EFEEF0E06D
:101ED00080818F7E8C93E985FA85838581608387F5
:101EE000A0EFB0E0E0EFF0E0808184608C93AFEE93
:101EF000B0E0EFEEF0E09081E985FA858781892BEB
:101F00008C93AFEEB0E0EFEEF0E090818FE38923A9
:101F10008C93AFEEB0E0EFEEF0E0808180648C93C4
:101F200009C61D821E821F821886A7EFB0E0CE016F
:101F30000596FC0133968081282F220F220F220F55
:101F4000CE010596FC013296808182958695877038
:101F5000820F8C93A6EFB0E0CE010596FC0132967D
:101F60008081282F220F220F220FCE010596FC011F
:101F700031968081829586958770820F8C93A5EF2C
:101F8000B0E0CE010596FC0131968081982F990F23
:101F9000990F990FFE0135968081829586958770FD
:101FA000890F8C93A4EFB0E0FE0135968081880FF5
:101FB000880F880F8C93A4EFB0E0E4EFF0E080810D
:101FC0008B7F8C93A4EFB0E0E4EFF0E080818E7F14
:101FD0008C93AFEEB0E0EFEEF0E090818FE38923D9
:101FE0008C93AFEEB0E0EFEEF0E0808180688C93F0
:101FF000A1C51D821E821F821886A7EFB0E0CE0108
:102000000596FC0133968081282F220F220F220F84
:10201000CE010596FC013296808182958695877067
:10202000820F8C93A6EFB0E0CE010596FC013296AC
:102030008081282F220F220F220FCE010596FC014E
:1020400031968081829586958770820F8C93A5EF5B
:10205000B0E0CE010596FC0131968081982F990F52
:10206000990F990FFE01359680818295869587702C
:10207000890F8C93A4EFB0E0FE0135968081880F24
:10208000880F880F8C93E985FA8583858E7F8387F7
:10209000A4EFB0E0E4EFF0E0808184608C93A0EFE7
:1020A000B0E0E0EFF0E080818B7F8C93A4EFB0E0B4
:1020B000E4EFF0E080818E7F8C93AFEEB0E0EFEE46
:1020C000F0E090818FE389238C93AFEEB0E0EFEEE8
:1020D000F0E0808180688C932DC51D821E821F8256
:1020E0001886A7EFB0E0CE010596FC0133968081FB
:1020F000282F220F220F220FCE010596FC013296C7
:102100008081829586958770820F8C93A6EFB0E0D0
:10211000CE010596FC0132968081282F220F220FD6
:10212000220FCE010596FC0131968081829586951D
:102130008770820F8C93A5EFB0E0CE010596FC016D
:1021400031968081982F990F990F990FFE0135963E
:102150008081829586958770890F8C93A4EFB0E07B
:10216000FE0135968081880F880F880F8C93E98552
:10217000FA85838581608387A4EFB0E0E4EFF0E027
:10218000808184608C93A0EFB0E0E0EFF0E080818C
:1021900084608C93AFEEB0E0EFEEF0E080818F7D55
:1021A0008C93A4EFB0E0E4EFF0E080818E7F8C931D
:1021B000AFEEB0E0EFEEF0E090818FE389238C93F7
:1021C000AFEEB0E0EFEEF0E0808180688C93B2C4B7
:1021D000E985FA8583858270882309F457C0A3EFC7
:1021E000B0E089859A850396FC0133968081282F7B
:1021F000220F220F220F89859A850396FC013296C1
:102200008081829586958770820F8C93A2EFB0E0D3
:1022100089859A850396FC0132968081282F220FAA
:10222000220F220F89859A850396FC0131968081C1
:10223000829586958770820F8C93A1EFB0E0898597
:102240009A850396FC0131968081282F220F220F58
:10225000220F89859A850396FC0180818295869557
:102260008770820F8C93A0EFB0E089859A850396E2
:10227000FC018081880F880F880F8C93AFEEB0E04F
:10228000EFEEF0E0808180618C9328C0A3EFB0E096
:1022900089859A850396FC0131968081282F2295A5
:1022A000220F207E89859A850396FC018081869580
:1022B00086958695820F8C93A2EFB0E089859A85EA
:1022C0000396FC0180818295880F807E8C93AFEE0F
:1022D000B0E0EFEEF0E080818F7E8C938FEF9FEF88
:1022E000AFEFBFEF8D839E83AF83B887A7EFB0E0DA
:1022F000CE010596FC0133968081282F220F220FF4
:10230000220FCE010596FC0132968081829586953A
:102310008770820F8C93A6EFB0E0CE010596FC018A
:1023200032968081282F220F220F220FCE01059690
:10233000FC0131968081829586958770820F8C93FF
:10234000A5EFB0E0CE010596FC0131968081982F73
:10235000990F990F990FFE01359680818295869588
:102360008770890F8C93A4EFB0E0FE0135968081D1
:10237000880F880F880F8C93A4EFB0E0E4EFF0E0B3
:1023800080818B7F8C93A4EFB0E0E4EFF0E080815C
:1023900081608C93AFEEB0E0EFEEF0E090818FE3E0
:1023A00089238C93AFEEB0E0EFEEF0E0808180689F
:1023B0008C93C0C3E985FA8583858270882309F4EC
:1023C00057C0A3EFB0E089859A850396FC01339648
:1023D0008081282F220F220F220F89859A8503964C
:1023E000FC0132968081829586958770820F8C934E
:1023F000A2EFB0E089859A850396FC013296808130
:10240000282F220F220F220F89859A850396FC011F
:1024100031968081829586958770820F8C93A1EF8B
:10242000B0E089859A850396FC0131968081282F3A
:10243000220F220F220F89859A850396FC01808145
:10244000829586958770820F8C93A0EFB0E0898586
:102450009A850396FC018081880F880F880F8C93E2
:10246000AFEEB0E0EFEEF0E0808180618C9328C0A9
:10247000A3EFB0E089859A850396FC0131968081AF
:10248000282F2295220F207E89859A850396FC01AC
:102490008081869586958695820F8C93A2EFB0E019
:1024A00089859A850396FC0180818295880F807EBC
:1024B0008C93AFEEB0E0EFEEF0E080818F7E8C93F6
:1024C0008FEF9FEFAFEFBFEF8D839E83AF83B88712
:1024D000A7EFB0E0CE010596FC0133968081282F4E
:1024E000220F220F220FCE010596FC013296808129
:1024F000829586958770820F8C93A6EFB0E0CE010F
:102500000596FC0132968081282F220F220F220F80
:10251000CE010596FC013196808182958695877063
:10252000820F8C93A5EFB0E0CE010596FC013196A9
:102530008081982F990F990F990FFE013596808110
:10254000829586958770890F8C93A4EFB0E0FE0189
:1025500035968081880F880F880F8C93E985FA85DE
:1025600083858E7F8387A4EFB0E0E4EFF0E0808185
:1025700084608C93A0EFB0E0E0EFF0E080818B7F8F
:102580008C93A4EFB0E0E4EFF0E0808181608C9365
:10259000AFEEB0E0EFEEF0E090818FE389238C9313
:1025A000AFEEB0E0EFEEF0E0808180688C93C2C2C5
:1025B000E985FA8583858270882309F457C0A3EFE3
:1025C000B0E089859A850396FC0133968081282F97
:1025D000220F220F220F89859A850396FC013296DD
:1025E0008081829586958770820F8C93A2EFB0E0F0
:1025F00089859A850396FC0132968081282F220FC7
:10260000220F220F89859A850396FC0131968081DD
:10261000829586958770820F8C93A1EFB0E08985B3
:102620009A850396FC0131968081282F220F220F74
:10263000220F89859A850396FC0180818295869573
:102640008770820F8C93A0EFB0E089859A850396FE
:10265000FC018081880F880F880F8C93AFEEB0E06B
:10266000EFEEF0E0808180618C9328C0A3EFB0E0B2
:1026700089859A850396FC0131968081282F2295C1
:10268000220F207E89859A850396FC01808186959C
:1026900086958695820F8C93A2EFB0E089859A8506
:1026A0000396FC0180818295880F807E8C93AFEE2B
:1026B000B0E0EFEEF0E080818F7E8C938FEF9FEFA4
:1026C000AFEFBFEF8D839E83AF83B887A7EFB0E0F6
:1026D000CE010596FC0133968081282F220F220F10
:1026E000220FCE010596FC01329680818295869557
:1026F0008770820F8C93A6EFB0E0CE010596FC01A7
:1027000032968081282F220F220F220FCE010596AC
:10271000FC0131968081829586958770820F8C931B
:10272000A5EFB0E0CE010596FC0131968081982F8F
:10273000990F990F990FFE013596808182958695A4
:102740008770890F8C93A4EFB0E0FE0135968081ED
:10275000880F880F880F8C93E985FA8583858160BF
:102760008387A4EFB0E0E4EFF0E0808184608C9395
:10277000A0EFB0E0E0EFF0E0808184608C93AFEEFA
:10278000B0E0EFEEF0E080818F7D8C93A4EFB0E0BD
:10279000E4EFF0E0808181608C93AFEEB0E0EFEE8B
:1027A000F0E090818FE389238C93AFEEB0E0EFEE01
:1027B000F0E0808180688C93BDC11B8210C0AAEFBD
:1027C000B0E0E985FA85208531858B819927F9016B
:1027D000E80FF91F80818C938B818F5F8B83E98554
:1027E000FA8597818B81891750F31D821E821F8283
:1027F0001886A7EFB0E0CE010596FC0133968081E4
:10280000282F220F220F220FCE010596FC013296AF
:102810008081829586958770820F8C93A6EFB0E0B9
:10282000CE010596FC0132968081282F220F220FBF
:10283000220FCE010596FC01319680818295869506
:102840008770820F8C93A5EFB0E0CE010596FC0156
:1028500031968081982F990F990F990FFE01359627
:102860008081829586958770890F8C93A4EFB0E064
:10287000FE0135968081880F880F880F8C93E9853B
:10288000FA85838581608387A4EFB0E0E4EFF0E010
:10289000808184608C93A0EFB0E0E0EFF0E0808175
:1028A00084608C93AFEEB0E0EFEEF0E08081806268
:1028B0008C93A4EFB0E0E4EFF0E080818E7F8C9306
:1028C000AFEEB0E0EFEEF0E090818FE389238C93E0
:1028D000AFEEB0E0EFEEF0E0808180688C932AC12B
:1028E000E985FA8583858270882309F457C0A3EFB0
:1028F000B0E089859A850396FC0133968081282F64
:10290000220F220F220F89859A850396FC013296A9
:102910008081829586958770820F8C93A2EFB0E0BC
:1029200089859A850396FC0132968081282F220F93
:10293000220F220F89859A850396FC0131968081AA
:10294000829586958770820F8C93A1EFB0E0898580
:102950009A850396FC0131968081282F220F220F41
:10296000220F89859A850396FC0180818295869540
:102970008770820F8C93A0EFB0E089859A850396CB
:10298000FC018081880F880F880F8C93AFEEB0E038
:10299000EFEEF0E0808180618C9328C0A3EFB0E07F
:1029A00089859A850396FC0131968081282F22958E
:1029B000220F207E89859A850396FC018081869569
:1029C00086958695820F8C93A2EFB0E089859A85D3
:1029D0000396FC0180818295880F807E8C93AFEEF8
:1029E000B0E0EFEEF0E080818F7E8C931B8210C010
:1029F000AAEFB0E0E985FA85208531858B8199279A
:102A0000F901E80FF91F80818C938B818F5F8B8395
:102A1000E985FA8597818B81891750F38FEF9FEFB6
:102A2000AFEFBFEF8D839E83AF83B887A7EFB0E092
:102A3000CE010596FC0133968081282F220F220FAC
:102A4000220FCE010596FC013296808182958695F3
:102A50008770820F8C93A6EFB0E0CE010596FC0143
:102A600032968081282F220F220F220FCE01059649
:102A7000FC0131968081829586958770820F8C93B8
:102A8000A5EFB0E0CE010596FC0131968081982F2C
:102A9000990F990F990FFE01359680818295869541
:102AA0008770890F8C93A4EFB0E0FE01359680818A
:102AB000880F880F880F8C93E985FA85838581605C
:102AC0008387A4EFB0E0E4EFF0E0808184608C9332
:102AD000A0EFB0E0E0EFF0E0808184608C93AFEE97
:102AE000B0E0EFEEF0E0808180628C93A4EFB0E084
:102AF000E4EFF0E0808181608C93AFEEB0E0EFEE28
:102B0000F0E090818FE389238C93AFEEB0E0EFEE9D
:102B1000F0E0808180688C930DC0E985FA8512868B
:102B200009C0E985FA858FE182878FEF90E09C8765
:102B30008B8702C01C861B868B859C852E960FB6C4
:102B4000F894DEBF0FBECDBFDF91CF910895CF9334
:102B5000DF93CDB7DEB728970FB6F894DEBF0FBE70
:102B6000CDBF9C838B83EB81FC8182858A838A81A4
:102B7000882331F08A818F3119F08A818F3F29F4BF
:102B800022E030E038872F8308C1ADEEB0E0EB8162
:102B9000FC8180818295807F8C930E944C178A8370
:102BA0008A81282F33273E832D838D819E81803219
:102BB0009105C9F02D813E81213231052CF48D81A2
:102BC0009E81009769F0D3C02D813E81203431056C
:102BD00009F4BCC08D819E81803A910521F0C7C067
:102BE00081E08983D5C0EFEEF0E080818F70EB81CA
:102BF000FC818783EB81FC81808591850E948D1704
:102C0000E0EFF0E08081992784709070959587952A
:102C1000959587958170EB81FC81982F91708385C4
:102C20008E7F892B8387EFEEF0E08081992780717A
:102C30009070959587959595879595958795959598
:102C40008795009709F44DC0EB81FC8183858260F4
:102C500083878B819C810396DC011396E3EFF0E080
:102C600080818695869586958C938B819C81039631
:102C7000DC011296E2EFF0E08081982F9695969510
:102C80009695E3EFF0E080818295880F807E890F32
:102C90008C938B819C810396DC011196E1EFF0E02F
:102CA0008081982F969596959695E2EFF0E0808139
:102CB0008295880F807E890F8C938B819C810396EF
:102CC000DC01E0EFF0E08081982F9695969596953F
:102CD000E1EFF0E080818295880F807E890F8C93F0
:102CE00024C0EB81FC8183858D7F83878B819C81D0
:102CF0000396DC011196E3EFF0E0808182958695E2
:102D000087708C938B819C810396DC01E2EFF0E06D
:102D10008081982F929596959770E3EFF0E08081EF
:102D2000880F880F880F890F8C93EB81FC818A8133
:102D30008287AFEEB0E0EFEEF0E090818FE3892381
:102D40008C93EEEEF0E01082198222C0EB81FC81C0
:102D50008A818287AFEEB0E0EFEEF0E090818FE302
:102D600089238C93EEEEF0E01082198211C0EB8182
:102D7000FC818A818287AFEEB0E0EFEEF0E09081D7
:102D80008FE389238C93EEEEF0E0108282E089835A
:102D90008981282F332738872F838F81988528961C
:102DA0000FB6F894DEBF0FBECDBFDF91CF9108956F
:102DB000CF93DF93CDB7DEB723970FB6F894DEBF7E
:102DC0000FBECDBF1B821BC0EDEEF0E08B81829564
:102DD000807F80838EEE90E09A83898308C0E981AA
:102DE000FA81108289819A8101969A8389838981E7
:102DF0009A81883F910598F38B818F5F8B838B81BC
:102E00008F3010F323960FB6F894DEBF0FBECDBF00
:102E1000DF91CF910895CF93DF93CDB7DEB724979D
:102E20000FB6F894DEBF0FBECDBFEDEEF0E08081AF
:102E300089831A821BC0EDEEF0E08A818295807F43
:102E40008083EFEEF0E080819927807C907000977E
:102E500051F4EDEEF0E0898180838A81282F3327B9
:102E60003C832B830EC08A818F5F8A838A818F3057
:102E700010F3EDEEF0E0898180838FEF90E09C838A
:102E80008B838B819C8124960FB6F894DEBF0FBE96
:102E9000CDBFDF91CF910895CF93DF93CDB7DEB74C
:102EA00024970FB6F894DEBF0FBECDBFEFEEF0E073
:102EB00080819927807C9070009729F42FEF30E073
:102EC0003C832B831FC0EEEEF0E08081898390EE7F
:102ED000898189238A838A81882331F08A81282FF6
:102EE00033273C832B830EC089818F718A838A812B
:102EF000882331F08A81282F33273C832B8302C01B
:102F00001C821B828B819C8124960FB6F894DEBFB5
:102F10000FBECDBFDF91CF910895CF93DF93CDB793
:102F2000DEB723970FB6F894DEBF0FBECDBF9B83ED
:102F30008A8319820FC0898199279C018A819B818C
:102F4000D901A80FB91FEAEFF0E080818C93898145
:102F50008F5F89838981282F3327EFEEF0E080810E
:102F600099278F709070281739072CF323960FB686
:102F7000F894DEBF0FBECDBFDF91CF910895CF9300
:102F8000DF93CDB7DEB767970FB6F894DEBF0FBEFD
:102F9000CDBF8A8B1E82188688858B871B821D82F7
:102FA0001C8281E08A878A898823A1F481E0888B4A
:102FB00088E08E8782E08D8782E08C879D858C8576
:102FC000980F8E85891B81508F8781E08F8381E0E8
:102FD000898799C0E2EEF0E0808199278E77907022
:102FE000959587951816190664F4E2EEF0E0808155
:102FF00099278E77907095958795982F9F5F9F8BD7
:1030000002C081E08F8B9F89988BE3EEF0E0808196
:1030100099278E709070959587951816190664F407
:10302000E3EEF0E0808199278E70907095958795FA
:10303000982F9F5F9E8B02C081E08E8B9E899F8719
:10304000E4EEF0E0808199278E70907095958795D9
:103050008230910564F0E4EEF0E0808199278E7073
:10306000907095958795982F9F5F9D8B02C082E009
:103070008D8B9D899D87E4EEF0E080819927807794
:103080009070959587959595879595958795959544
:1030900087958230910594F0E4EEF0E080819927E5
:1030A0008077907095958795959587959595879557
:1030B00095958795982F9F5F9C8B02C082E08C8BA3
:1030C0009C899C878F85282F33278D859927280FEA
:1030D000391F8C859927820F931F883091054CF0FA
:1030E0009F858D85980F8C85890F982F9F5F9B8B6F
:1030F00002C088E08B8B9B899E8781E088878885CA
:103100008B871F821986198A1BC0EDEEF0E0898932
:103110008295807F80838EEE90E09A83898308C0B9
:10312000E981FA81108289819A8101969A83898343
:1031300089819A81883F910598F389898F5F898B6E
:1031400089898F3010F34DC18F81813009F0B9C06A
:10315000E8EDF0E081E080838C819D8101969D8384
:103160008C831E82E2EEF0E088898150880F808394
:10317000E3EEF0E08C85869599270197880F991FDB
:1031800082959295907F9827807F9827282F8F850A
:1031900099270197880F991F822B8083E4EEF0E036
:1031A0008C859927019782959295907F9827807FAB
:1031B0009827282F8D8599270197880F991F822B93
:1031C00081608083E5EEF0E08C819D819695879506
:1031D00096958795969587958083EDEEF0E0108221
:1031E000EEEEF0E01082EFEEF0E080E88083E8EDB4
:1031F000F0E08AE08083E9EDF0E080819927847037
:1032000090700097C1F3EAEDF0E08FEF808359C032
:10321000EEEEF0E08081898B898999278072907029
:103220000097C9F0198618861A8681E08B83AFEE65
:10323000B0E0EFEEF0E090818FE389238C93E8ED2E
:10324000F0E01082E9EDF0E08081992784709070C1
:103250000097C1F736C0898999278F7190700097C0
:1032600019F081E088871986EAEDF0E08081898B8A
:1032700089899927807290700097C1F08E81882388
:1032800059F4AAEDB0E0EAEDF0E0808180628C9321
:103290008E818F5F8E830AC0AAEDB0E0EAEDF0E088
:1032A000808180628C9381E088871986898999273B
:1032B0008F709070009729F081E08887198681E0EF
:1032C0008F838985813009F4A3CF87C08B858823BC
:1032D00019F08D858F5F8D8781E08B878D85893093
:1032E00078F18C85883060F182E08D8782E08C8770
:1032F0001B868E85893121F08E858F5F8E876DC00C
:1033000088E08E878889803421F088898F5F888B58
:1033100064C018861B821A86AFEEB0E0EFEEF0E0D4
:1033200090818FE389238C93E8EDF0E01082E9ED42
:10333000F0E080819927847090700097C1F74DC0AC
:103340008D85863078F08D85282F33278C859927B9
:1033500001968217930744F48C858F5F8C878C8548
:103360008D8702C08D858C879D858C85980F8E8575
:10337000891B81508F878F85893078F58F858823C9
:1033800061F18C859927AC01440F551F440F551FDF
:103390008F85282F33278D859927820F931F0196BC
:1033A00048175907D4F08C85282F33278C85992707
:1033B000280F391F8C859927A901480F591F8F8520
:1033C000282F33278D859927820F931F0196841705
:1033D00095071CF0188681E089878885813009F47B
:1033E00075CF8A85813009F4AFCE8B819927679696
:1033F0000FB6F894DEBF0FBECDBFDF91CF91089519
:10340000CF93DF93CDB7DEB721970FB6F894DEBF29
:103410000FBECDBF8983E8EDF0E081E08083E2EE6E
:10342000F0E01082E3EEF0E01082E4EEF0E01082D3
:1034300081E090E021960FB6F894DEBF0FBECDBFBD
:10344000DF91CF910895CF93DF93CDB7DEB7249767
:103450000FB6F894DEBF0FBECDBF81E090E09C8335
:103460008B8388E08A8381E089838A8199272B81F5
:103470003C814981BC01C9010E946B1A24960FB698
:10348000F894DEBF0FBECDBFDF91CF910895CF93EB
:10349000DF93CDB7DEB724970FB6F894DEBF0FBE2B
:1034A000CDBF8DE490E09C838B8382E08A8382E0B1
:1034B00089838A8199272B813C814981BC01C9017B
:1034C0000E946B1A24960FB6F894DEBF0FBECDBFD4
:1034D000DF91CF910895CF93DF93CDB7DEB72697D5
:1034E0000FB6F894DEBF0FBECDBF9B838A837D836A
:1034F0006C834E83EDEEF0E0808189838E81823093
:1035000009F076C0EDEEF0E080E28083E3EFF0E0DA
:103510008A819B81959587959595879595958795B2
:103520008083E2EFF0E08A818295880F807E80833D
:10353000E1EFF0E01082E0EFF0E01082EFEEF0E07B
:103540008C818F7080648083EDEEF0E080E2808378
:103550008C819D81181619062CF4EAEFF0E0809119
:103560000A0180838C819D81823091052CF0EAEFE5
:10357000F0E080910B0180838C819D8183309105E7
:103580002CF0EAEFF0E080910C0180838C819D812A
:10359000843091052CF0EAEFF0E080910D018083FA
:1035A0008C819D81853091052CF0EAEFF0E08091CF
:1035B0000E0180838C819D81863091052CF0EAEF8D
:1035C000F0E080910F0180838C819D81873091058F
:1035D0002CF0EAEFF0E08091100180838C819D81D6
:1035E000883091052CF0EAEFF0E0809111018083A2
:1035F000EDEEF0E08981808326960FB6F894DEBF69
:103600000FBECDBFDF91CF9108951F920F920FB6DD
:103610000F9211248F939F93AF93BF93EF93FF93D8
:10362000CF93DF93CDB7DEB72297DEBFCDBFEDEEF0
:10363000F0E080818A831982EDEEF0E01082EEEEF8
:10364000F0E08081992780729070009711F1AEEEC2
:10365000B0E0EEEEF0E080818F7D8C93EFEEF0E055
:1036600080818F7089838981882319F481E0809318
:1036700000018981823019F482E080930001EAEF31
:10368000F0E0808180930101EAEFF0E08081809397
:103690000201EFEEF0E088E88083EDEEF0E080E3F9
:1036A0008083EEEEF0E08081992780729070009721
:1036B00009F452C0AEEEB0E0EEEEF0E080818F7D16
:1036C0008C93EFEEF0E080818F708983898188236D
:1036D00029F0EAEFF0E08081809301018981823056
:1036E00028F0EAEFF0E08081809302018981833045
:1036F00028F0EAEFF0E08081809303018981843033
:1037000028F0EAEFF0E08081809304018981853020
:1037100028F0EAEFF0E0808180930501898186300E
:1037200028F0EAEFF0E080818093060189818730FC
:1037300028F0EAEFF0E080818093070189818830EA
:1037400028F0EAEFF0E080818093080183E0809325
:103750000001898180930901EFEEF0E088E8808321
:10376000EDEEF0E080E28083EEEEF0E080819927DC
:1037700080749070009771F0AEEEB0E0EEEEF0E085
:1037800080818F7B8C93ABEDB0E0EBEDF0E080813E
:103790008F7E8C93EBEDF0E08EEF8083EDEEF0E02A
:1037A0008A8180832296F894DEBFCDBFDF91CF91CE
:1037B000FF91EF91BF91AF919F918F910F900FBEAD
:1037C0000F901F901895CF93DF93CDB7DEB7EB978F
:1037D0000FB6F894DEBF0FBECDBF1F8A1E8A1D8AAA
:1037E0001C8A198A188A1F861B861C861D861E86BF
:1037F0001A86198618861F821E82198E188E1D82BF
:103800001C821B821A82E1E6F0E080E88083E1E618
:10381000F0E01082E9E6F0E01082EAE6F0E01082E3
:103820000E949E08F89481E08C8BE5E5F0E084E846
:103830008083E5E7F0E01082E4E7F0E080E8808351
:103840001FC02E893F898D89482F5527C901880FB0
:10385000991F820F931F880F991F880F991F840F3C
:10386000951FFC01E555F64F10828D898F5F8D8B7A
:103870008D898C3030F38E899F8901969F8B8E8B3A
:103880008E899F89813191059CF31F8A1E8A1D8A2A
:103890000BC08E899F89FC01E958F54F10828E89F3
:1038A0009F8901969F8B8E8B8E899F89843091058D
:1038B00084F31F8A1E8A0E94760580E090E00E94B1
:1038C00074278EE40E947A2E0E94722388E393E08C
:1038D00090933403809333038DE79AE090937C03B5
:1038E00080937B038091330390913403805C9F4FDE
:1038F0009093C5088093C40880913303909134035A
:1039000090937E0380937D0380917B0390917C0351
:10391000805C9F4F909336038093350380917B03A7
:1039200090917C0390938C0380938B038EEF90E0B7
:103930000E948C0B809301018FEF90E00E948C0B12
:1039400080930201809101019927982F88279B8BF2
:103950008A8B80910201282F33278A899B89820FC5
:10396000931F9B8B8A8B8091020190910101682F9C
:10397000892F0E94D60710920001789400C0809190
:103980000001282F33273BAF2AAF4AAD5BAD413052
:10399000510591F08AAD9BAD823091050CF4EFCFCB
:1039A0002AAD3BAD2230310589F04AAD5BAD4330E5
:1039B000510509F4F7C0E3CF1092000142E060E046
:1039C00070E08FE890E00E946B1AD9CF109200014E
:1039D000809102019927880F991F82959295907F77
:1039E0009827807F9827982F80EE89238093030162
:1039F00080910201869586958695282F2F7180915A
:103A000001019927880F991F82959295907F982799
:103A1000807F9827982F80EE8923820F809304015E
:103A2000809101019927982F88279B8B8A8B809101
:103A30000201282F33278A899B89820F931F9B8B32
:103A40008A8BAAE2B0E0EAE2F0E080818F7B8C937F
:103A5000AAE2B0E0EAE2F0E080818F7D8C93ABE2F5
:103A6000B0E0EBE2F0E0808180648C93ABE2B0E008
:103A7000EBE2F0E0808180628C93E8EDF0E081E0A1
:103A800080830E94D816EBEDF0E01082EDEEF0E0BE
:103A900080E38083E0EFF0E01082E1EFF0E010825D
:103AA000E2EFF0E0809103018083E3EFF0E08091AA
:103AB00004018083E4EFF0E01082E5EFF0E0108293
:103AC000E6EFF0E080EE8083E7EFF0E08FEF8083B9
:103AD000EFEEF0E088E88083EDEEF0E01082E0EFBA
:103AE000F0E01082E1EFF0E01082E2EFF0E010820F
:103AF000E3EFF0E01082E4EFF0E01082E5EFF0E0B9
:103B00001082E6EFF0E080ED8083E7EFF0E08FEFEA
:103B10008083EFEEF0E088E88083E2EEF0E0108250
:103B2000E3EEF0E086E08083E4EEF0E085E1808380
:103B3000A5EEB0E0E2EEF0E080818C93EBEDF0E0FA
:103B40008EEF8083EEEDF0E08FE08083EFEDF0E02C
:103B50001082E8EDF0E080E28083A8EDB0E0E8EDCF
:103B6000F0E0808182608C938091020180930A0151
:103B70008091010180930B0180910101682F8EEFEC
:103B800090E00E94B30B80910201682F8FEF90E0CC
:103B90000E94B30B42E062E070E08FE890E00E9488
:103BA0006B1AEDCE1092000180910101282F33276E
:103BB00039AF28AF48AD59AD4631510509F457C169
:103BC00088AD99AD8731910564F428AD39AD2131C7
:103BD0003105A1F048AD59AD4231510509F400C19C
:103BE000CECE88AD99AD8731910509F407C228ADD5
:103BF00039AD2632310509F41BC3C1CE80910901CC
:103C0000843009F0BCCE10920B018091030188230F
:103C10004CF4A4E3B0E0E4E3F0E090818FEE89237C
:103C20008C9307C0A4E3B0E0E4E3F0E0808180611E
:103C30008C9380910301992780749070009749F0CC
:103C4000A4E3B0E0E4E3F0E0908187EF89238C9374
:103C500007C0A4E3B0E0E4E3F0E0808188608C93E7
:103C600080910301992780729070009749F0AEE22D
:103C7000B0E0EEE2F0E090818FED89238C9307C0F5
:103C8000AEE2B0E0EEE2F0E0808180628C93809161
:103C90000301992780719070009749F0AEE2B0E07F
:103CA000EEE2F0E090818FEE89238C9307C0AEE2C4
:103CB000B0E0EEE2F0E0808180618C9380910301BE
:103CC000992788709070009741F0A1E3B0E0E1E39C
:103CD000F0E0808182608C9308C0A1E3B0E0E1E372
:103CE000F0E090818DEF89238C93809103019927D7
:103CF00081709070882329F11B861C861D861E8684
:103D00000E947C09DC01CB018B879C87AD87BE8735
:103D10008B859C85AD85BE850097A105B10541F0D9
:103D200081E08A8780910B01846080930B010AC037
:103D300082E08A8790910B018BEF892380930B019E
:103D400001C01A8680910401882364F40E94592FCF
:103D5000982F97959927979580910B01892B8093A0
:103D60000B0105C080910B018F7780930B0180912F
:103D700004019927807490700097D1F00E947D25EE
:103D8000998B888B888999898130910541F481E0EC
:103D90008F8780910B01806480930B0110C082E0BB
:103DA0008F8790910B018FEB892380930B0107C0C4
:103DB00080910B019FEB892380930B011F8681E08B
:103DC00080930A0180910B0180930B018A899B8962
:103DD00042E062E070E00E946B1A10920B01CFCDBE
:103DE00082E080930A018FEF80930B018FEF809325
:103DF0000C01EFE2F0E080819927817090708823B8
:103E000021F088E080930D0102C010920D01E9E2DB
:103E1000F0E08081992784709070009731F0809154
:103E20000D018C5F80930D0104C080910D01809382
:103E30000D0190910D018A85980F8F858295880FCD
:103E4000880F807C890F80930D018FEF80930E0186
:103E50008FEF80930F0110921001109211018A8947
:103E60009B8942E068E070E00E946B1A88CD8091E7
:103E700002019927382F2227809103019927820F69
:103E8000931F99878887809104019927382F2227CB
:103E9000809105019927820F931F9F838E8386E06F
:103EA00080930A018091020180930B0180910301AC
:103EB00080930C018091040180930D018091050194
:103EC00080930E018A899B8942E065E070E00E9440
:103ED0006B1A809100018823E1F3109200017CC0ED
:103EE00080910101813009F05FC0888599850E9429
:103EF0008C0B80930A018885998501960E948C0B12
:103F000080930B018885998502960E948C0B809383
:103F10000C018885998503960E948C0B80930D0176
:103F20008885998504960E948C0B80930E01888564
:103F3000998505960E948C0B80930F018885998541
:103F400006960E948C0B80931001888599850796B0
:103F50000E948C0B80931101888599859C01295FB3
:103F60003F4F8E819F818217930740F08A899B89FA
:103F700042E068E070E00E946B1A10C02E813F8121
:103F800088859985A901481B590BCA0101962A8980
:103F90003B8942E0BC01C9010E946B1A8885998562
:103FA0000796998788870DC08E819F81998788871A
:103FB00010920A018A899B8942E061E070E00E94C8
:103FC0006B1A809100018823E1F31092000188852B
:103FD0009985019699878887288539858E819F8163
:103FE0008217930708F07CCF10920A018A899B8977
:103FF00042E061E070E00E946B1AC1CC8091020146
:104000009927382F2227809103019927820F931F28
:1040100099878887809104019927382F22278091DA
:1040200005019927820F931F9F838E8387E08093DA
:104030000A018091020180930B018091030180931A
:104040000C018091040180930D0180910501809302
:104050000E018A899B8942E065E070E00E946B1A3C
:10406000809100018823E1F310920001CFC02E81DE
:104070003F8188859985A901481B590BCA019C017C
:104080002F5F3F4F8091090199272817390708F4BE
:10409000A4C080910901282F33273FAB2EAB4EA936
:1040A0005FA94430510509F455C08EA99FA98530F8
:1040B00091059CF42EA93FA92230310509F45EC078
:1040C0004EA95FA9433051050CF04EC08EA99FA99F
:1040D0008130910509F45CC071C02EA93FA926303A
:1040E000310521F14EA95FA9463051054CF18EA949
:1040F0009FA98730910581F02EA93FA9283031056D
:1041000009F05CC08091080128853985295F3F4FFF
:10411000682FC9010E94B30B80910701288539855A
:104120002A5F3F4F682FC9010E94B30B809106019F
:10413000288539852B5F3F4F682FC9010E94B30B3B
:1041400080910501288539852C5F3F4F682FC90173
:104150000E94B30B80910401288539852D5F3F4F64
:10416000682FC9010E94B30B80910301288539850E
:104170002E5F3F4F682FC9010E94B30B809102014F
:10418000288539852F5F3F4F682FC9010E94B30BE7
:104190002091010188859985622F0E94B30B1092AE
:1041A0000A018A899B8942E061E070E00E946B1AF3
:1041B000888599850796998788871DC081E08093B7
:1041C0000A018A899B8942E061E070E00E946B1AD3
:1041D0008E819F81998788870EC081E080930A0134
:1041E0008A899B8942E061E070E00E946B1A8E81AF
:1041F0009F8199878887809100018823E1F310923D
:104200000001888599850196998788872885398551
:104210008E819F818217930708F029CF10920A019F
:104220008A899B8942E061E070E00E946B1AA7CB0B
:1042300087E280930A0110920B0110920C01A4E313
:10424000B0E0E4E3F0E0808180618C938091020132
:10425000882321F480910301882331F06BE080E40E
:104260000E94792A998F888F888D998D8130910548
:1042700009F41EC2809102019927AC01417050706F
:104280005DAB4CAB809102019927827090701BAAA4
:104290001AAA8230910524F081E090E09BAB8AABB2
:1042A0002CA93DA94AA95BA9240F351F39AB28AB1E
:1042B000809102019927847090701FA61EA68330FA
:1042C000910524F081E090E09FA78EA728A939A945
:1042D0004EA55FA5240F351F3DA72CA78091020195
:1042E0009927887090701BA61AA68430910524F037
:1042F00081E090E09BA78AA72CA53DA54AA55BA5D8
:10430000240F351F39A728A78091020199278071B2
:1043100090701FA21EA28530910524F081E090E0EC
:104320009FA38EA328A539A54EA15FA1240F351FF9
:104330003DA32CA3809102019927807290701BA24B
:104340001AA28630910524F081E090E09BA38AA315
:104350002CA13DA14AA15BA1240F351F39A328A39D
:10436000809102019927807490701F8E1E8E873075
:10437000910524F081E090E09F8F8E8F28A139A1D4
:104380004E8D5F8D240F351F3D8F2C8F8091020144
:104390009927807890701B8E1A8E8830910524F0B2
:1043A00081E090E09B8F8A8F2C8D3D8D4A8D5B8DB7
:1043B000240F351F80910301992781709070820F1F
:1043C000931F9B838A83809102019927817090704B
:1043D0008823E1F08A819B8101979B838A838A816C
:1043E0009B81009719F481E1898302C081E0898370
:1043F000CE014896BC0189810E94FC2B9D838C8351
:104400009C8180910B01892B80930B01809102018B
:10441000992782709070009701F18A819B810197A2
:104420009B838A838A819B81009719F482E1898327
:1044300002C082E08983CE014896BC0189810E9436
:10444000FC2B9D838C838C819927880F991F982F33
:1044500080910B01892B80930B0180910201992798
:1044600084709070009711F18A819B8101979B83E2
:104470008A838A819B81009719F483E1898302C032
:1044800083E08983CE014896BC0189810E94FC2B80
:104490009D838C838C819927880F991F880F991F82
:1044A000982F80910B01892B80930B018091020141
:1044B000992788709070009721F18A819B810197DC
:1044C0009B838A838A819B81009719F484E1898385
:1044D00002C084E08983CE014896BC0189810E9494
:1044E000FC2B9D838C838C819927880F991F880FC3
:1044F000991F880F991F982F80910B01892B80930A
:104500000B0180910201992780719070009721F131
:104510008A819B8101979B838A838A819B810097F3
:1045200019F485E1898302C085E08983CE0148962C
:10453000BC0189810E94FC2B9D838C838C819927EF
:1045400082959295907F9827807F9827982F8091C9
:104550000B01892B80930B018091020199278072B6
:104560009070009731F18A819B8101979B838A83A8
:104570008A819B81009719F486E1898302C086E0D5
:104580008983CE014896BC0189810E94FC2B9D83C2
:104590008C838C819927880F991F82959295907FA3
:1045A0009827807F9827982F80910B01892B8093E3
:1045B0000B0180910201992780749070009739F166
:1045C0008A819B8101979B838A838A819B81009743
:1045D00019F487E1898302C087E08983CE01489678
:1045E000BC0189810E94FC2B9D838C838C8199273F
:1045F0000024969587950794969587950794982F0C
:10460000802D982F80910B01892B80930B01809135
:10461000020188231CF58A819B8101979B838A83F1
:104620008A819B81009719F488E1898302C088E020
:104630008983CE014896BC0189810E94FC2B9D8311
:104640008C838C8199279695982F882797958795A5
:10465000982F80910B01892B80930B01809103018E
:104660009927817090708823E1F08A819B8101975E
:104670009B838A838A819B81009719F489E18983CE
:1046800002C089E08983CE014896BC0189810E94DD
:10469000FC2B9D838C839C8180910C01892B8093C2
:1046A0000C0168E080E00E94792A998F888F08C009
:1046B0008091020180930B018091030180930C0192
:1046C000888D998D8130910529F480910C01806845
:1046D00080930C018A899B8942E063E070E00E942C
:1046E0006B1A4DC9CF93DF93CDB7DEB7E8EBF0E09F
:1046F0008AE08083A9EBB0E0E9EBF0E080818C7F79
:104700008C93EAEBF0E01082ECEBF0E085E4808340
:104710001092CD0ADF91CF910895CF93DF93CDB75B
:10472000DEB729970FB6F894DEBF0FBECDBF8B83DF
:104730007D836C835F834E83398728871A82198231
:104740008C819D81009749F4E885F98583E0808319
:1047500081E090E09A83898326C08091CD0A8823E6
:10476000E1F7E885F98510828E819F819093D30AC5
:104770008093D20A888599859093D90A8093D80A24
:104780008C819D819093D50A8093D40A8B818093EC
:10479000D60A82E08093CD0AACEBB0E0ECEBF0E01F
:1047A0008081806A8C9389819A8129960FB6F894CA
:1047B000DEBF0FBECDBFDF91CF910895CF93DF93C2
:1047C000CDB7DEB729970FB6F894DEBF0FBECDBFC9
:1047D0008B837D836C835F834E83398728871A821E
:1047E00019828C819D81009749F4E885F98583E0E1
:1047F000808381E090E09A8389832AC08091CD0AEA
:104800008823E1F7E885F98510828E819F81909356
:10481000CF0A8093CE0A888599859093D90A809390
:10482000D80A8C819D819093D10A8093D00A8B8184
:104830008093D70A81E08093CD0AACEBB0E0ECEB3B
:10484000F0E08081806A8C938091CD0A8823E1F723
:1048500089819A8129960FB6F894DEBF0FBECDBF2D
:10486000DF91CF9108951F920F920FB60F921124EE
:104870002F933F938F939F93AF93BF93EF93FF93A8
:10488000CF93DF93CDB7DEB72597DEBFCDBF25EC45
:104890002A8382E089838AE08093DA0AE9EBF0E0F8
:1048A000908188EF392F38233B838091CD0A282FC0
:1048B00033273D832C838C819D818330910509F4BE
:1048C0006EC02C813D81243031055CF48C819D814A
:1048D00081309105C1F02C813D812230310531F1CB
:1048E000DAC08C819D818530910509F46EC02C81E0
:1048F0003D812530310574F18C819D818630910593
:1049000009F490C0C8C09B81983019F02B812031E8
:1049100049F484E08093CD0AEBEBF0E08091D70A74
:104920008083B9C087E08093CD0AB5C03B81383021
:1049300019F08B81803151F483E08093CD0AEBEB49
:10494000F0E08091D60A81608083A5C087E08093E3
:10495000CD0AA1C09B819831F1F485E08093CD0A06
:104960008091D00A9091D10A01979093D10A8093B7
:10497000D00AABEBB0E0E091CE0AF091CF0A808193
:104980008C938091CE0A9091CF0A01969093CF0A92
:104990008093CE0A80C087E08093CD0A7CC02B81B3
:1049A000203479F486E08093CD0A8091D40A9091E6
:1049B000D50A8130910509F06EC03A813F7B3A8378
:1049C0006AC087E08093CD0A66C08B81883231F55A
:1049D0008091D00A9091D10A0097D9F08091D00AA5
:1049E0009091D10A01979093D10A8093D00AABEBB2
:1049F000B0E0E091CE0AF091CF0A80818C93809153
:104A0000CE0A9091CF0A01969093CF0A8093CE0A56
:104A100042C087E08093CD0A19823DC087E0809331
:104A2000CD0A39C09B81903519F02B81283581F54D
:104A3000A091D20AB091D30AEBEBF0E080818C9385
:104A40008091D20A9091D30A01969093D30A8093D1
:104A5000D20A8091D40A9091D50A01979093D50AF1
:104A60008093D40A8091D40A9091D50A009759F086
:104A70008091D40A9091D50A8130910561F43A81F0
:104A80003F7B3A8308C087E08093CD0A198203C038
:104A900087E08093CD0A8091CD0A8730B9F41092D7
:104AA000CD0A1092DA0A8981823039F4E091D80A6D
:104AB000F091D90A83E0808306C0E091D80AF09192
:104AC000D90A81E080838A8180618A83ECEBF0E0FF
:104AD0009A8190832596F894DEBFCDBFDF91CF9168
:104AE000FF91EF91BF91AF919F918F913F912F9146
:104AF0000F900FBE0F901F901895CF93DF93CDB7F7
:104B0000DEB727970FB6F894DEBF0FBECDBF1E826B
:104B10001D821C821B821A8219821F821092C60873
:104B20001092C7080DC08D819E8102962D81FC01D7
:104B3000EA53F74F20838D819E8101969E838D835A
:104B40008D819E818038910570F386C0CE010796D5
:104B500046EC58E09C0162E870E080EA0E94DE23A7
:104B60009A83898389819A81009799F4E091D80A80
:104B7000F091D90A8081823061F0CE01079646EC2F
:104B800058E09C0162E070E080EA0E94DE239A8394
:104B9000898389819A81009799F4E091D80AF091EC
:104BA000D90A8081823061F0CE01079642E458E054
:104BB0009C0160E870E080EA0E948D239A838983DB
:104BC0008091CD0A8823E1F789819A81009759F570
:104BD000E091D80AF091D90A8081823021F11E82B9
:104BE0001D8218C08D819E810296FC01EA53F74F09
:104BF00020818D819E81FC01EE5BF74F808128171B
:104C000021F081E090E09A8389838D819E810196D5
:104C10009E838D838D819E818038910520F48981CA
:104C20009A810097F9F28B819C8101969C838B83FA
:104C30008B819C819695982F882797958795892FAA
:104C400099278093C6088B819C819695982F8827F9
:104C5000979587958093C7088B819C8180349105B7
:104C600060F489819A81009741F4E091D80AF0912B
:104C7000D90A8081823009F069CF89819A8127968B
:104C80000FB6F894DEBF0FBECDBFDF91CF91089570
:104C90001F920F920FB60F9211242F933F934F93B1
:104CA0005F936F937F938F939F93AF93BF93EF9394
:104CB000FF93CF93DF93CDB7DEB72297DEBFCDBF93
:104CC000A5E2B0E0E5E2F0E0808181608C93809124
:104CD0000E0390910F038130910509F05EC0809121
:104CE0000D03882379F4A0911603B0911703EEE425
:104CF000F0E080818C93CD0101969093170380930F
:104D000016034BC0209124033091250340912603C4
:104D10005091270380911C0390911D03A0911E03C5
:104D2000B0911F03281739074A075B07B0F5809138
:104D3000240390912503A0912603B09127030196A7
:104D4000A11DB11D8093240390932503A0932603F6
:104D5000B09327032091240330912503409126032B
:104D6000509127038091120390911303A091140393
:104D7000B091150382179307A407B50770F4A091AB
:104D80001603B0911703EEE4F0E080818C93CD011F
:104D9000019690931703809316032091200330917E
:104DA0002103409122035091230380911C03909191
:104DB0001D03A0911E03B0911F03281739074A074E
:104DC0005B0708F06BC080910D038823F9F4ECE2D7
:104DD000F0E08081992784709070009781F40E94A0
:104DE000192AAEE2B0E0EEE2F0E08081877F8C939A
:104DF000E0912803F091290383E080835EC0A5E25F
:104E0000B0E0E5E2F0E080818E7F8C93209120037A
:104E1000309121034091220350912303809112038A
:104E200090911303A0911403B0911503281739072B
:104E30004A075B07E0F480911003909111039A8375
:104E400089838091200390912103A0912203B09146
:104E500023039C0189819A81820F931F9A838983FE
:104E6000AEE4B0E0E981FA8180818C9303C0EEE486
:104E7000F0E010828091200390912103A091220301
:104E8000B09123030196A11DB11D8093200390933F
:104E90002103A0932203B09323030FC00E94192A79
:104EA000AEE2B0E0EEE2F0E08081877F8C93E091AB
:104EB0002803F091290381E080832296F894DEBFD5
:104EC000CDBFDF91CF91FF91EF91BF91AF919F91B6
:104ED0008F917F916F915F914F913F912F910F90A3
:104EE0000FBE0F901F901895CF93DF93CDB7DEB70D
:104EF00024970FB6F894DEBF0FBECDBF9A83898387
:104F000089819A81009759F4ECE4F0E084ED808384
:104F1000EDE4F0E081E080831C821B8204C081E02C
:104F200090E09C838B838B819C8124960FB6F894B0
:104F3000DEBF0FBECDBFDF91CF910895CF93DF933A
:104F4000CDB7DEB722970FB6F894DEBF0FBECDBF48
:104F5000E0912803F0912903108280910D038823AA
:104F600009F5A5E2B0E0E5E2F0E0808181608C9394
:104F7000AEE2B0E0EEE2F0E08081877F8C93ECE27D
:104F8000F0E08081992784709070009759F0E0914B
:104F90002803F091290383E0808381E090E09A83E5
:104FA0008983B5C08091120390911303A0911403DB
:104FB000B09115030097A105B10559F4E0912803BC
:104FC000F091290383E0808381E090E09A838983D4
:104FD0009EC080910E0390910F038130910509F0DE
:104FE0005AC080910D03882389F5209118033091D0
:104FF000190340911A0350911B0380911203909161
:105000001303A0911403B0911503281739074A0719
:105010005B0758F4E0912803F091290383E0808333
:1050200081E090E09A83898372C080911803909107
:105030001903A0911A03B0911B0380931C03909352
:105040001D03A0931E03B0931F033DC0809118035E
:1050500090911903A0911A03B0911B0320911203A0
:10506000309113034091140350911503820F931F45
:10507000A41FB51F80931C0390931D03A0931E03D0
:10508000B0931F031092240310922503109226035D
:105090001092270318C08091120390911303A091DE
:1050A0001403B091150380931C0390931D03A093E8
:1050B0001E03B0931F03109218031092190310924D
:1050C0001A0310921B0380910D0399270E947427E5
:1050D0008130910559F4E0912803F091290383E090
:1050E000808381E090E09A83898311C080910D03D1
:1050F000882349F40E94C828009739F081E090E0A5
:105100009A83898304C00E9492281A821982898115
:105110009A8122960FB6F894DEBF0FBECDBFDF9105
:10512000CF910895CF93DF93CDB7DEB722970FB617
:10513000F894DEBF0FBECDBF80910D03882339F4F4
:10514000A5E2B0E0E5E2F0E080818E7F8C93809173
:105150001003909111039A83898381E090E0A0E08D
:10516000B0E08093200390932103A0932203B09397
:105170002303AEE4B0E0E981FA8180818C9322962A
:105180000FB6F894DEBF0FBECDBFDF91CF9108956B
:10519000CF93DF93CDB7DEB724970FB6F894DEBF79
:1051A0000FBECDBF1A821982AEE2B0E0EEE2F0E0AF
:1051B000808188608C938DE093E09093DC0A8093EB
:1051C000DB0A8AE090E0A0E0B0E08093DD0A9093F3
:1051D000DE0AA093DF0AB093E00A1092E10A10926F
:1051E000E20A1092E30A1092E40AECE2F0E0808115
:1051F000992784709070009759F081E090E09A832D
:1052000089831092E50A0E9492281C821B8218C092
:10521000AEE2B0E0EEE2F0E08081877F8C930E9406
:10522000192AE091DB0AF091DC0A038CF48DE02D61
:1052300083E080831092E50A81E090E09C838B8379
:105240008B819C8124960FB6F894DEBF0FBECDBF34
:10525000DF91CF9108950F931F93CF93DF93CDB735
:10526000DEB72B970FB6F894DEBF0FBECDBF898394
:105270004A835B836C837D833F832E8319870887F2
:105280000E94F329898180930D0310920F031092DD
:105290000E038E819F8190931103809310038A8166
:1052A0009B81AC81BD818093120390931303A093E3
:1052B0001403B093150388859985909329038093EF
:1052C00028030E949E278130910539F40E94192AF3
:1052D00081E090E09B878A8702C01B861A868A85B8
:1052E0009B852B960FB6F894DEBF0FBECDBFDF9126
:1052F000CF911F910F910895AF92BF92CF92DF92FD
:10530000EF92FF920F931F93CF93DF93CDB7DEB74A
:1053100061970FB6F894DEBF0FBECDBF89834A8375
:105320005B836C837D833F832E83E886F9860A87BF
:105330001B87DD86CC86BF86AE860E94F3298981D5
:1053400080930D0381E090E090930F0380930E0310
:105350008E819F8190931103809310038A819B819A
:10536000AC81BD818093120390931303A093140327
:10537000B09315038C859D85909317038093160336
:1053800088859985AA85BB85809318039093190316
:10539000A0931A03B0931B038E859F8590932903D6
:1053A000809328030E949E278130910539F40E9442
:1053B000192A81E090E0998B888B02C0198A188A9B
:1053C0008889998961960FB6F894DEBF0FBECDBF6C
:1053D000DF91CF911F910F91FF90EF90DF90CF90D1
:1053E000BF90AF900895CF93DF93CDB7DEB72197ED
:1053F0000FB6F894DEBF0FBECDBF19820EC08091EC
:10540000120190911301009741F481E090E0909394
:1054100013018093120181E089838981882379F3C4
:1054200021960FB6F894DEBF0FBECDBFDF91CF91AE
:105430000895CF93DF93CDB7DEB71092130110928A
:105440001201DF91CF910895CF93DF93CDB7DEB7EF
:105450002C970FB6F894DEBF0FBECDBF69877A8751
:105460008B879C8781E090E0A0E0B0E08D839E83F5
:10547000AF83B8872CC081E090E0A0E0B0E08983E2
:105480009A83AB83BC830BC089819A81AB81BC8139
:105490000196A11DB11D89839A83AB83BC832981A9
:1054A0003A814B815C8189859A85AB85BC852817BB
:1054B00039074A075B0740F38D819E81AF81B8852C
:1054C0000196A11DB11D8D839E83AF83B8878D8109
:1054D0009E81AF81B88582309105A105B10558F252
:1054E0002C960FB6F894DEBF0FBECDBFDF91CF91E3
:1054F00008956F927F928F929F92AF92BF92CF92B8
:10550000DF92EF92FF920F931F93CF93DF93CDB76C
:10551000DEB727970FB6F894DEBF0FBECDBF8E83E0
:105520006F831A82198286E090E09C838B831092AD
:10553000A40986E08093A5098E818093A609109224
:10554000A7098F818093A8098B819C81019724EA08
:1055500039E0BC01C9010E94132D8093A909109262
:10556000BF0A86E08093C00A8E818093C10A1092A0
:10557000C20A1092C30A60E177E280E090E00E94E4
:10558000242A8B819C81AC01662777278B819C81A3
:105590003C0188249924CE0105962FE733E0E4EA04
:1055A000F9E05C0169017A018B019F01B401A3015B
:1055B00080E00E947C299A8389839091C10A80EFC0
:1055C00089238093C10A8091C10A982F8091810319
:1055D0008F70892B8093C10A8B819C8101972FEB5F
:1055E0003AE0BC01C9010E94132D8093C40A8D8149
:1055F000992782709070009709F0A1C08091810373
:1056000099279C01207F30708E81992728173907B0
:1056100029F480918003863009F491C060E177E23B
:1056200080E090E00E94242A8B819C81AC01662757
:1056300077278B819C813C0188249924CE01059693
:105640002FE733E0E4EAF9E05C0169017A018B01BC
:105650009F01B401A30180E00E947C299A83898381
:105660009091C10A80EF89238093C10A8091C10A79
:10567000982F809181038F70892B8093C10A8B8131
:105680009C8101972FEB3AE0BC01C9010E94132DC8
:105690008093C40A3CC060E177E280E090E00E9421
:1056A000242A8B819C81AC01662777278B819C8182
:1056B0003C0188249924CE0105962FE733E0E4EAE3
:1056C000F9E05C0169017A018B019F01B401A3013A
:1056D00080E00E947C299A8389839091C10A80EF9F
:1056E00089238093C10A8091C10A982F80918103F8
:1056F0008F70892B8093C10A8B819C8101972FEB3E
:105700003AE0BC01C9010E94132D8093C40A8FE7BF
:1057100093E02FEB3AE046E050E0BC01C9010E9463
:10572000B62B8130910559F489819A81009739F41B
:105730008D81992782709070009709F4ACCF898190
:105740009A8127960FB6F894DEBF0FBECDBFDF91CA
:10575000CF911F910F91FF90EF90DF90CF90BF906E
:10576000AF909F908F907F906F900895CF93DF932D
:10577000CDB7DEB72A970FB6F894DEBF0FBECDBF08
:105780009E838D8378876F835A8749871C821B820B
:1057900089859A859A8389831CC0ED81FE819081D9
:1057A000EF81F8858081981729F081E090E09C8353
:1057B0008B830FC08D819E8101969E838D838F8107
:1057C0009885019698878F8389819A8101979A831A
:1057D000898389819A81009721F08B819C81009730
:1057E000E1F28B819C812A960FB6F894DEBF0FBE42
:1057F000CDBFDF91CF9108956F927F928F929F924C
:10580000AF92BF92CF92DF92EF92FF920F931F93CE
:10581000CF93DF93CDB7DEB728970FB6F894DEBFEE
:105820000FBECDBF8E8378876F831A82198287E07F
:1058300090E09C838B831092A40987E08093A50954
:1058400080E48093A6091092A70984E18093A809B7
:105850008E818F708093A9098B819C81019724EAA6
:1058600039E0BC01C9010E94132D8093AA0910924E
:10587000BF0A87E08093C00A80E48093C10A109237
:10588000C20A1092C30A1092C40A60EA76E881E064
:1058900090E00E94242A8B819C81AC0166277727A7
:1058A0008B819C813C0188249924CE0105962FE7A9
:1058B00033E0E4EAF9E05C0169017A018B019F01C0
:1058C000B401A30180E00E947C299A83898380919E
:1058D00084038093C40A9091C10A80EF8923809346
:1058E000C10A8091C10A982F809181038F70892B02
:1058F0008093C10A809183038093C30A8B819C812A
:1059000001972FEB3AE0BC01C9010E94132D80934F
:10591000C50AEF81F88589819A81918380838D8181
:10592000992782709070009709F05CC08FE793E030
:105930002FEB3AE047E050E0BC01C9010E94B62BD2
:105940009A838983EF81F88589819A819183808305
:105950008E81893019F08E818931B1F5ABE2B0E0EA
:10596000EBE2F0E0808180618C9364EF71E080E095
:1059700090E00E94242AABE2B0E0EBE2F0E09081FC
:105980008FEE89238C9364EF71E080E090E00E94B9
:10599000242AABE2B0E0EBE2F0E0808180618C93FE
:1059A00064EF71E080E090E00E94242AABE2B0E076
:1059B000EBE2F0E090818FEE89238C9364EF71E04D
:1059C00080E090E00E94242A89819A8181309105AB
:1059D00099F08F819885BC018E810E94522D9A8307
:1059E00089830AC081E090E09A838983EF81F885FA
:1059F00089819A819183808389819A8128960FB6C3
:105A0000F894DEBF0FBECDBFDF91CF911F910F91F4
:105A1000FF90EF90DF90CF90BF90AF909F908F90CE
:105A20007F906F900895CF93DF93CDB7DEB7279720
:105A30000FB6F894DEBF0FBECDBF9D838C837F83EE
:105A40006E83EC81FD8180818B838C819D810196A9
:105A50009D838C831A82198210C0EC81FD81908114
:105A60008B8189278B838C819D8101969D838C837B
:105A700089819A8101969A8389838E819F819C0175
:105A80002150304089819A818217930730F38B81AE
:105A9000992727960FB6F894DEBF0FBECDBFDF91D2
:105AA000CF9108956F927F928F929F92AF92BF9203
:105AB000CF92DF92EF92FF920F931F93CF93DF93DA
:105AC000CDB7DEB72A970FB6F894DEBF0FBECDBFB5
:105AD00088877A8769871C821B821A82198286E0EE
